:100000000230D6020006C2AFD2AF32022A8EC2AF91
:10001000D2AF3202000E909241E0FEA3E0FF123711
:02002000B1220B
:0700230002350A1238D42255
:10002B000239837B017A9279E5909333E4F0A374E0
:10003B0010F07F207EA61220819092E5E0A3E025B0
:10004B00E025E024CFF582E43492F5831217A090DB
:10005B0092E91217ACC312177B60087F077E001260
:10006B0037B1229092F11217A09092ED1217ACC3F8
:10007B0012177B60087F087E001237B1229092ED39
:10008B001217A09092E5E0A3E025E025E024CFF540
:10009B0082E43492F5831217B812387BE49092F90C
:1000AB00F09092F9E0C3940A748094805018E02584
:1000BB00E024E5F582E43492F583E4F0A3F090922A
:1000CB00F9E004F080DB7B017A9279E5909317E4F9
:1000DB00F0A3740CF07F227EA61222EE224389013C
:0B00EB00758CBC758ACDD2A9D28C2286
:1000F800FFFF4457494E5435429348000042933E0F
:1001080000004893400069005A003C0015429338AB
:10011800000042933A000E42933C00005A917C3F03
:10012800C900690046000086000A2D2D203A3A00D1
:100138000000000000000000005A91963FCC012703
:100148000046000086000A2D2D2F3A3A00000000D4
:100158000000000000005A92223FD0021200460020
:10016800000212004602DA00640010001718180294
:10017800000000603C91E6400040A0414040104033
:10018800B04150402040C04160403040D0417040B4
:100198004040E04180405040F04190406041004183
:1001A800A04070411041B04080412041C040904182
:1001B8003041D05491D241E041F8421042284240A7
:1001C80042584270428842A042B84891C300000099
:1001D80000000000004291CB00004291D000004294
:1001E80091CD00004191CF004191C2004291B000F1
:1001F80005498000B2E2CAD4BABAD7D6006E608088
:100208000949443030BBD8B7E7B8DFCEC200000098
:1002180000000000000000000000000000000000D6
:100228000049443031BBD8B7E7B5CDCEC200000095
:1002380000000000000000000000000000000000B6
:100248000049443032BBD8B7E7B8DFCAAA0000007B
:100258000000000000000000000000000000000096
:100268000049443033BBD8B7E7B8DFCAAA0000005A
:100278000000000000000000000000000000000076
:100288000049443034CBCDB7E7B8DFCEC200000018
:100298000000000000000000000000000000000056
:1002A8000049443035CBCDB7E7B5CDCEC20000000C
:1002B8000000000000000000000000000000000036
:1002C8000049443036CBCDB7E7B8DFCAAA000000F2
:1002D8000000000000000000000000000000000016
:1002E8000049443037CBCDB7E7B5CDCAAA000000E6
:1002F80000000000000000000000000000000000F6
:100308000049443038B1A3C1F400000000000000E7
:1003180000000000000000000000000000000000D5
:100328000049443039C4DAB2BFCDA8D0C5000000B6
:1003380000000000000000000000000000000000B5
:1003480000494431304E5443D2ECB3A300000000BE
:100358000000000000000000000000000000000095
:100368000049443131B7E7BBFA31B9CAD5CF0000EB
:100378000000000000000000000000000000000075
:100388000049443132B7E7BBFA32B9CAD5CF0000C9
:100398000000000000000000000000000000000055
:1003A8000049443133B7E7BBFA33B9CAD5CF0000A7
:1003B8000000000000000000000000000000000035
:1003C8000049443134B7E7BBFA34B9CAD5CF000085
:1003D8000000000000000000000000000000000015
:1003E8000049443135B7E7BBFA35B9CAD5CF000063
:1003F80000000000000000000000000000000000F5
:100408000049443136CDE2B7E7BBFAB9CAD5CF00C7
:1004180000000000000000000000000000000000D4
:100428000049443137B7E7BBFA31D4CBD0D0B3ACAD
:10043800CAB1000000000000000000000000000039
:100448000049443138B7E7BBFA32D4CBD0D0B3AC8B
:10045800CAB1000000000000000000000000000019
:100468000049443139B7E7BBFA33D4CBD0D0B3AC69
:10047800CAB10000000000000000000000000000F9
:100488000049443230B7E7BBFA34D4CBD0D0B3AC50
:10049800CAB10000000000000000000000000000D9
:1004A8000049443231B7E7BBFA35D4CBD0D0B3AC2E
:1004B800CAB10000000000000000000000000000B9
:1004C8000049443232CDE2B7E7BBFAD4CBD0D0B33F
:1004D800ACCAB100000000000000000000000000ED
:1004E8000049443233B8DFD1B931B8E6BEAF0000B5
:1004F80000000000000000000000000000000000F4
:100508000049443234B8DFD1B931CBF8CBC0000050
:1005180000000000000000000000000000000000D3
:100528000049443235B5CDD1B931B8E6BEAF000087
:1005380000000000000000000000000000000000B3
:100548000049443236B5CDD1B931CBF8CBC0000023
:100558000000000000000000000000000000000093
:100568000049443237C5C5C6F8CEC2B6C831B8E668
:10057800BEAF000000000000000000000000000006
:100588000049443238C5C5C6F8CEC2B6C831CBF822
:10059800CBC00000000000000000000000000000C8
:1005A8000049443239B6CCD6DCC6DA31B8E6BEAF3B
:1005B8000000000000000000000000000000000033
:1005C8000049443330D1B9BBFA31D4CBD0D0B3AC25
:1005D800CAB1000000000000000000000000000098
:1005E8000049443331B8DFD1B932B8E6BEAF0000B4
:1005F80000000000000000000000000000000000F3
:100608000049443332B8DFD1B932CBF8CBC000004F
:1006180000000000000000000000000000000000D2
:100628000049443333B5CDD1B9D1B9C1A6B8E6BE76
:10063800AF00000000000000000000000000000003
:100648000049443334B5CDD1B932CBF8CBC0000022
:100658000000000000000000000000000000000092
:100668000049443335C5C5C6F8CEC2B6C832B8E667
:10067800BEAF000000000000000000000000000005
:100688000049443336C5C5C6F8CEC2B6C832CBF821
:10069800CBC00000000000000000000000000000C7
:1006A8000049443337B6CCD6DCC6DA32B8E6BEAF3A
:1006B8000000000000000000000000000000000032
:1006C8000049443338D1B9BBFA32D4CBD0D0B3AC1B
:1006D800CAB1000000000000000000000000000097
:1006E8000049443339BCD3CAAAC6F7B5E7C1F7B93C
:1006F800FDB4F3000000000000000000000000004E
:100708000049443430BCD3CAAAC6F7B8DFCBAECE52
:10071800BB00000000000000000000000000000016
:100728000049443431BCD3CAAAC6F7C8B1CBAE001D
:1007380000000000000000000000000000000000B1
:100748000049443432BCD3CAAAC6F7D4CBD0D0B3FC
:10075800ACCAB1000000000000000000000000006A
:100768000049443433BCD3C8C8C6F7B8E6BEAF00A6
:100778000000000000000000000000000000000071
:100788000049443434BCD3C8C8C6F731B3ACCAB185
:100798000000000000000000000000000000000051
:1007A8000049443435BCD3C8C8C6F732B3ACCAB163
:1007B8000000000000000000000000000000000031
:1007C8000049443436B6CFB5E7D6D8C6F4000000A1
:1007D8000000000000000000000000000000000011
:1007E8000049443437B5E7D4B4CFE0D0F2B4EDCE05
:1007F800F3000000000000000000000000000000FE
:100808000049443438B5E7D4B4C6B5C2CAC6ABB893
:10081800DF000000000000000000000000000000F1
:100828000049443439B5E7D4B4C6B5C2CAC6ABB575
:10083800CD000000000000000000000000000000E3
:10084800004944353041CFE0B9FDD1B9000000007E
:100858000000000000000000000000000000000090
:10086800004944353142CFE0B9FDD1B9000000005C
:100878000000000000000000000000000000000070
:10088800004944353243CFE0B9FDD1B9200000001A
:100898000000000000000000000000000000000050
:1008A800004944353341CFE0C7B7D1B90000000053
:1008B8000000000000000000000000000000000030
:1008C800004944353442CFE0C7B7D1B90000000031
:1008D8000000000000000000000000000000000010
:1008E800004944353543CFE0C7B7D1B9000000000F
:1008F80000000000000000000000000000000000F0
:10090800004944353641CFE0C8B1CFE000000000CF
:1009180000000000000000000000000000000000CF
:10092800004944353742CFE0C8B1CFE000000000AD
:1009380000000000000000000000000000000000AF
:10094800004944353843CFE0C8B1CFE0000000008B
:10095800000000000000000000000000000000008F
:100968000049443539C6F8C1F7B6AACAA7B8E6BEE1
:10097800AF000000000000000000000000000000C0
:100988000049443630B9FDC2CBCDF8D4CBD0D0B372
:10099800ACCAB10000000000000000000000000028
:1009A8000049443631B9FDC2CBCDF8B6C2B8E6BE6F
:1009B800AF00000000000000000000000000000080
:1009C8000049443632D4B6B3CCB9D8BBFAB8E6BE7F
:1009D800AF00000000000000000000000000000060
:1009E8000049443633D2E7CBAEB8E6BEAF000000CC
:1009F80000000000000000000000000000000000EF
:100A08000049443634C8BABFD8CDA8D0C5D2ECB353
:100A1800A30000000000000000000000000000002B
:100A28000049443635B1E4C6B5C6F7B9CAD5CF00D2
:100A380000000000000000000000000000000000AE
:100A48000049443636D7A2CBAEB5E7B5BCC2CAB862
:100A5800DF000000000000000000000000000000AF
:100A68000049443637D7A2CBAEB5E7B5BCC2CAB544
:100A7800CD000000000000000000000000000000A1
:100A88000049443638D1CCCEEDB8E6BEAF00000000
:100A9800000000000000000000000000000000004E
:100AA8000049443639D3C3BBA7D7D4B6A8D2E5B8D2
:100AB800E6BEAF00000000000000000000000000DB
:100AC8000049443730B5E7D4B4D2ECB3A3000000F2
:100AD800000000000000000000000000000000000E
:100AE8000049443731C8EBCBAEB8DFCEC2000000B6
:100AF80000000000000000000000000000000000EE
:100B08000049443732CBAEB7A7B9CAD5CF000000E9
:100B180000000000000000000000000000000000CD
:100B28000049443733C5CCB9DCB6CFC1F7B8E6BE07
:100B3800AF000000000000000000000000000000FE
:100B48000049443734B7E7BBFA36B9CAD5CF0000F5
:100B5800000000000000000000000000000000008D
:100B68000049443735B7E7BBFA37B9CAD5CF0000D3
:100B7800000000000000000000000000000000006D
:100B88000049443736B7E7BBFA38B9CAD5CF0000B1
:100B9800000000000000000000000000000000004D
:100BA8000049443737B7E7BBFA36B3ACCAB10000DF
:100BB800000000000000000000000000000000002D
:100BC8000049443738B7E7BBFA37B3ACCAB10000BD
:100BD800000000000000000000000000000000000D
:100BE8000049443739B7E7BBFA38B3ACCAB100009B
:100BF80000000000000000000000000000000000ED
:100C08000049443830C5C5CBAEB8DFCBAECEBB004B
:100C180000000000000000000000000000000000CC
:100C28000049443831BCD3CAAAC6F7D2ECB3A300F2
:100C380000000000000000000000000000000000AC
:100C48000049443832B7E7D1B9B9FDB5CD00000045
:100C5800000000000000000000000000000000008C
:100C68000049443833BAECCDE2BCD3CAAAB9FDC8AE
:100C7800C8000000000000000000000000000000A4
:100C88000049443834D1B9BBFA31B8DFD1B90000D2
:100C9800000000000000000000000000000000004C
:100CA8000049443835B7E7BBFAB5E7C1F7B9FDB431
:100CB800F300000000000000000000000000000039
:100CC8000049443836B8A8C2B7C8EBCBAEB8DFCEB7
:100CD800C20000000000000000000000000000004A
:100CE8000049443837454556B8E6BEAF0000000015
:100CF80000000000000000000000000000000000EC
:100D08000049443838BDD3CBAEC5CCD2E7CBAE0012
:100D180000000000000000000000000000000000CB
:100D28000049443839C5C5C6F8B8DFCEC20000004E
:100D380000000000000000000000000000000000AB
:100D48000049443930C9E8B1B8CAB9D3C3B3ACCA49
:100D5800B1000000000000000000000000000000DA
:100D68000049443931B1A3C1F4000000000000007B
:100D7800000000000000000000000000000000006B
:100D88000049443932B1A3C1F4000000000000005A
:100D9800000000000000000000000000000000004B
:100DA8000049443933B1A3C1F40000000000000039
:100DB800000000000000000000000000000000002B
:100DC8000049443934B1A3C1F40000000000000018
:100DD800000000000000000000000000000000000B
:100DE8000049443935B1A3C1F400000000000000F7
:100DF80000000000000000000000000000000000EB
:100E08000049443936B1A3C1F400000000000000D5
:100E180000000000000000000000000000000000CA
:100E28000049443937BBD8B7E7CEC2CAAAB6C8B456
:100E3800ABB8D0C6F70000000000000000000000BA
:100E48000049443938CBCDB7E7CEC2CAAAB6C8B430
:100E5800ABB8D0C6F700000000000000000000009A
:100E68000049443939BCD3CAAAB0E5D2ECB3A300CF
:100E7800000000000000000000000000000000006A
:100E8800004944313030C6C1C4BBD2D1CBF8B6A872
:100E9800000000000000000000000000000000004A
:100EA800004944313031D2BBCCECBDABCBF8B6A84D
:100EB800000000000000000000000000000000002A
:100EC800004944313032C8FDCCECBDABCBF8B6A8F4
:100ED800000000000000000000000000000000000A
:100EE800004944313033C6DFCCECBDABCBF8B6A8F3
:100EF80000000000000000000000000000000000EA
:100F0800004944313034CAAECEE5CCECBDABCBF8A9
:100F1800B6A800000000000000000000000000006B
:100F2800004944313035C8FDCAAECCECBDABCBF876
:100F3800B6A800000000000000000000000000004B
:100F4800004944313036B5E7D4B432CFE0D0F2B4FA
:100F5800ED0000000000000000000000000000009C
:100F6800004944313037B5E7D4B432C6B5C2CAB83F
:100F7800DF0000000000000000000000000000008A
:100F8800004944313038B5E7D4B432C6B5C2CAB521
:100F9800CD0000000000000000000000000000007C
:100FA800004944313039B5E7D4B43241CFE0B9FD16
:100FB800D1B900000000000000000000000000009F
:100FC800004944313130B5E7D4B43242CFE0B9FDFD
:100FD800D1B900000000000000000000000000007F
:100FE800004944313131B5E7D4B43243CFE0B9FDDB
:100FF800D1B900000000000000000000000000005F
:10100800004944313132B5E7D4B43241CFE0C7B7F3
:10101800D1B900000000000000000000000000003E
:10102800004944313133B5E7D4B43242CFE0C7B7D1
:10103800D1B900000000000000000000000000001E
:10104800004944313134B5E7D4B43243CFE0C7B7AF
:10105800D1B90000000000000000000000000000FE
:101068000041935C0042934C000042934E000042C2
:10107800934A000044935800000000429350000037
:101088004493520000000002080000040B00000016
:1010980000040F000000004293560000010A00619E
:1010A800008E6900C1814001C0804101C0804100BB
:1010B800C1814001C0804100C1814000C18140011F
:1010C800C0804101C0804100C1814000C181400110
:1010D800C0804100C1814001C0804101C080410001
:1010E800C1814001C0804100C1814000C1814001EF
:1010F800C0804100C1814001C0804101C0804100E1
:10110800C1814000C1814001C0804101C0804100CF
:10111800C1814001C0804100C1814000C1814001BE
:10112800C0804101C0804100C1814000C1814001AF
:10113800C0804100C1814001C0804101C0804100A0
:10114800C1814000C1814001C0804101C08041008F
:10115800C1814001C0804100C1814000C18140017E
:10116800C0804100C1814001C0804101C080410070
:10117800C1814001C0804100C1814000C18140015E
:10118800C0804101C0804100C1814000C18140014F
:10119800C0804100C1814001C0804101C080410040
:1011A800C1814061008F6900C0C101C30302C2C68A
:1011B8000607C705C5C404CC0C0DCD0FCFCE0E0A4B
:1011C800CACB0BC90908C8D81819D91BDBDA1A1EEB
:1011D800DEDF1FDD1D1CDC14D4D515D71716D6D2BB
:1011E8001213D311D1D010F03031F133F3F232367B
:1011F800F6F737F53534F43CFCFD3DFF3F3EFEFA8B
:101208003A3BFB39F9F83828E8E929EB2B2AEAEECA
:101218002E2FEF2DEDEC2CE42425E527E7E62622FA
:10122800E2E323E12120E0A06061A163A3A262665A
:10123800A6A767A56564A46CACAD6DAF6F6EAEAACA
:101248006A6BAB69A9A86878B8B979BB7B7ABABE6A
:101258007E7FBF7DBDBC7CB47475B577B7B676723A
:10126800B2B373B17170B05090915193535292963A
:10127800565797559594549C5C5D9D5F9F9E5E5A0A
:101288009A9B5B99595898884849894B8B8A4A4E4A
:101298008E8F4F8D4D4C8C4484854587474686827A
:1012A800424383418180404190F700419078004457
:1012B8009178000000004190730044907400000091
:1012C80000607090875A010301C8010000A0200047
:1012D8005000FF5A010301C8010000A0220053007A
:1012E800FF5A010304C8010000A023006500FF5A4B
:1012F800010301C801000AAA23006700FF5A01037D
:1013080005C801000AAA24006900FF5A010301C8A0
:1013180001000AAA29003500FF5A010601C803AADC
:1013280080AA200016000A5A010601C803AA82AA48
:10133800220035000A4E90790000000000000000ED
:1013480000000000000041906A0048906B000EAE5B
:1013580020AE50AE80419069005892CB000000004A
:101368000000000000000000000000000000000075
:10137800000000005892AB00000000000A29970006
:101388000A2D08000CF13B0002C2460007ED65413A
:1013980092A7FF606492430000010002000300046A
:1013A80000050006000700080009000A010B000CF0
:1013B800000D000E020F001000110012031300149C
:1013C80000150016001700180419001A001B001C4D
:1013D800001D001E001F0020002100220023002401
:1013E80000250026002700280029002A002B002CB1
:1013F800002D002E002F00300031004892C300015C
:101408000103020303054292A90000429241000031
:1014180042923E00004192400042923C000000E7A8
:1014280009F608DFFA8046E709F208DFFA803E8805
:10143800828C83E709F0A3DFFA8032E309F608DF3C
:10144800FA8078E309F208DFFA807088828C83E3F7
:1014580009F0A3DFFA806489828A83E0A3F608DFB3
:10146800FA805889828A83E0A3F208DFFA804C80E8
:10147800D280FA80C680D4806980F2803380108060
:10148800A680EA809A80A880DA80E280CA803389C0
:10149800828A83ECFAE493A3C8C582C8CCC583CCFE
:1014A800F0A3C8C582C8CCC583CCDFE9DEE7800DD0
:1014B80089828A83E493A3F608DFF9ECFAA9F0EDB0
:1014C800FB2289828A83ECFAE0A3C8C582C8CCC50E
:1014D80083CCF0A3C8C582C8CCC583CCDFEADEE8DC
:1014E80080DB89828A83E493A3F208DFF980CC88C1
:1014F800F0EF60010E4E60C388F0ED2402B40400E2
:1015080050B9F582EB2402B4040050AF232345827E
:101518002390147773BB010689828A83E0225002E4
:10152800E722BBFE02E32289828A83E49322BB017D
:101538000CE58229F582E5833AF583E0225006E935
:101548002582F8E622BBFE06E92582F8E222E5823A
:1015580029F582E5833AF583E49322BB0106898263
:101568008A83F0225002F722BBFE01F322EF8DF0AE
:10157800A4A8F0CF8CF0A428CE8DF0A42EFE22BC17
:10158800000BBE0029EF8DF084FFADF022E4CCF80B
:1015980075F008EF2FFFEE33FEEC33FCEE9DEC9870
:1015A8004005FCEE9DFE0FD5F0E9E4CEFD22EDF8F6
:1015B800F5F0EE8420D21CFEADF075F008EF2FFF99
:1015C800ED33FD4007985006D5F0F222C398FD0F81
:1015D800D5F0EA22C5F0F8A3E028F0C5F0F8E582D6
:1015E800158270021583E038F022A3F8E0C5F025D3
:1015F800F0F0E582158270021583E0C838F0E82221
:10160800BB010A89828A83E0F5F0A3E022500687AD
:10161800F009E71922BBFE07E3F5F009E31922896F
:10162800828A83E493F5F074019322BB0110E5826A
:1016380029F582E5833AF583E0F5F0A3E022500925
:10164800E92582F886F008E622BBFE0AE92582F839
:10165800E2F5F008E222E5832AF583E993F5F0A3A1
:10166800E99322BB010A89828A83F0E5F0A3F0227C
:101678005006F709A7F01922BBFE06F3E5F009F3B7
:101688001922EF2BFFEE3AFEED39FDEC38FC2275FE
:10169800F008758200EF2FFFEE33FECD33CDCC334B
:1016A800CCC58233C5829BED9AEC99E58298400CB3
:1016B800F582EE9BFEED9AFDEC99FC0FD5F0D6E491
:1016C800CEFBE4CDFAE4CCF9A88222B800C1B90077
:1016D80059BA002DEC8BF084CFCECDFCE5F0CBF9D8
:1016E8007818EF2FFFEE33FEED33FDEC33FCEB33D0
:1016F800FB10D703994004EB99FB0FD8E5E4F9FAFE
:10170800227818EF2FFFEE33FEED33FDEC33FCC9E2
:1017180033C910D7059BE99A4007EC9BFCE99AF975
:101728000FD8E0E4C9FAE4CCFB2275F010EF2FFFE4
:10173800EE33FEED33FDCC33CCC833C810D7079B4E
:10174800EC9AE899400AED9BFDEC9AFCE899F80FB1
:10175800D5F0DAE4CDFBE4CCFAE4C8F922EB9FF546
:10176800F0EA9E42F0E99D42F0EC6480C8648098FB
:1017780045F022EB9FF5F0EA9E42F0E99D42F0E841
:101788009C45F022E86010ECA2E713FCED13FDEE97
:1017980013FEEF13FFD8F022E0FCA3E0FDA3E0FE68
:1017A800A3E0FF22E0F8A3E0F9A3E0FAA3E0FB221C
:1017B800ECF0A3EDF0A3EEF0A3EFF022A88285836E
:1017C800F0D083D0821217DB1217DB1217DB121747
:1017D800DBE473E493A3C583C5F0C583C8C582C899
:1017E800F0A3C583C5F0C583C8C582C822A42582D5
:1017F800F582E5F03583F58322E0FBA3E0FAA3E068
:10180800F922F8E0FBA3A3E0F925F0F0E5821582C0
:1018180070021583E0FA38F022EBF0A3EAF0A3E9AE
:10182800F022D083D082F8E4937012740193700D83
:10183800A3A393F8740193F5828883E473740293E5
:101848006860EFA3A3A380DFD083D082F8E493700D
:1018580012740193700DA3A393F8740193F5828811
:1018680083E473740293B5F0067403936860E9A384
:10187800A3A3A380D8E3F5F009E208B5F06BDFF580
:101888008067E3F5F009E608B5F05EDFF5805A8772
:10189800F009E608B5F052DFF6804E87F009E20855
:1018A800B5F046DFF6804288828C8387F009E0A392
:1018B800B5F036DFF6803288828C8387F009E493AE
:1018C800A3B5F025DFF5802188828C83E3F5F00944
:1018D800E0A3B5F014DFF5801088828C83E3F5F07F
:1018E80009E493A3B5F002DFF40219AC808780E91C
:1018F800809080D4803E8015806E807E809D80B7E9
:10190800808D80A380518074803C0219B889828AB6
:1019180083ECFAE493F5F0A3C8C582C8CCC583CCA0
:10192800E493A3C8C582C8CCC583CCB5F076DFE301
:10193800DEE1807089828A83E493F5F0A3E208B53A
:10194800F062DFF4805E89828A83E0F5F0A3E6081E
:10195800B5F051DFF5804D89828A83E0F5F0A3E286
:1019680008B5F040DFF5803C89828A83E493F5F07E
:10197800A3E608B5F02EDFF4802A8002805789821A
:101988008A83ECFAE493F5F0A3C8C582C8CCC58372
:10199800CCE0A3C8C582C8CCC583CCB5F006DFE4CB
:1019A800DEE280007FFFB5F0020F2240027F0122B5
:1019B80089828A83ECFAE0F5F0A3C8C582C8CCC551
:1019C80083CCE0A3C8C582C8CCC583CCB5F0D5DF2D
:1019D800E5DEE380CF89828A83ECFAE0F5F0A3C8DC
:1019E800C582C8CCC583CCE493A3C8C582C8CCC57E
:1019F80083CCB5F0AFDFE4DEE280A988F0EF6001C8
:101A08000E4E60ABED2402B404005098F582EB242E
:101A180002B40400508E23234582239018F473EFF8
:101A28004E6012EF60010EEDBB010B89828A83F0D4
:101A3800A3DFFCDEFA2289F05007F709DFFCA9F0E2
:101A480022BBFEFCF309DFFCA9F022F8BB010DE57F
:101A58008229F582E5833AF583E8F0225006E925E4
:101A680082C8F622BBFE05E92582C8F2229092E8D8
:101A78001218219092EBECF0A3EDF0E4A3F0A3F0A0
:101A88009092EBE0FEA3E0FFA3E0FCA3E0C39FEC91
:101A98009E500C9092EDE475F0011215DC80E190F7
:101AA80092EBE0FEA3E0C39405EE94005003021D00
:101AB800EEE4A3F0A3F09092E81218019092EDE002
:101AC800FEA3E0F5828E8312153664016003021DC1
:101AD800C89092E81218019092EDE0A3E029F9EA83
:101AE8003EFA90000112153612182A1B00031C4FEB
:101AF800061D111000001DC89092E812180190925E
:101B0800EDE0FEA3E029F9EA3EFA9000021215364C
:101B1800FF9092F1E4F0A3EFF09092EDE0A3E0FFE4
:101B28009092F1E0FCA3E02FFFEC3EFEEF2405FFCE
:101B3800E43EFE9092EBE0FCA3E0FDD3EF9DEE9C2B
:101B480040119092EBE0FEA3E0FFA3EEF0A3EFF0CC
:101B5800021DC89092E81218019092EDE0FEA3E0F1
:101B680029F9EA3EFA9092F1E0FEA3E02403FDE4AD
:101B78003EFC1231FC9092EFEEF0A3EFF09092E869
:101B88001218019092EDE0FEA3E029F9EA3EFA90DE
:101B980092F1E0FEA3E029F9EA3EFA90000312155B
:101BA80036FD9092EFE0FEA3E0EE6D7001E4600375
:101BB800021DC89092E81218019092EDE0FEA3E091
:101BC80029F9EA3EFA9092F1E0FEA3E029F9EA3E0B
:101BD800FA900004121536FF9092EFE0A3E06F70C0
:101BE80001E46003021DC8909081E0FEA3E0FF902D
:101BF80092E81218019092EDE0FCA3E029F9EA3C82
:101C0800FAE92403F9E43AFA9092F1E0FCA3E0FD42
:101C1800909317ECF0A3EDF01222EE7E007F0E7D7C
:101C2800007B017A907979121A279092F1E0FEA34D
:101C3800E02405FFE43E9092EDF0A3EFF090906968
:101C4800E04402F0021DC89092EDE0FEA3E02408F3
:101C5800FFE43EFE9092EBE0FCA3E0FDD3EF9DEEA7
:101C68009C40119092EBE0FEA3E0FFA3EEF0A3EFFF
:101C7800F0021DC89092E81218019092EDE0FEA3C0
:101C8800E029F9EA3EFA7D067C001231FC9092EFD9
:101C9800EEF0A3EFF09092E81218019092EDE0FEBA
:101CA800A3E029F9EA3EFA900006121536FD909253
:101CB800EFE0FEA3E0EE6D7001E46003021DC89042
:101CC80092E81218019092EDE0FEA3E029F9EA3EAD
:101CD800FA900007121536FF9092EFE0A3E06F70BC
:101CE80001E46003021DC89092ED75F0081215DC3E
:101CF8007E007F0E7D007B017A907979121A2790F9
:101D08009069E04402F0021DC89092EDE0FEA3E065
:101D18002408FFE43EFE9092EBE0FCA3E0FDD3EF45
:101D28009DEE9C40119092EBE0FEA3E0FFA3EEF045
:101D3800A3EFF0021DC89092E81218019092EDE00E
:101D4800FEA3E029F9EA3EFA7D067C001231FC90F8
:101D580092EFEEF0A3EFF09092E81218019092ED56
:101D6800E0FEA3E029F9EA3EFA900006121536FDD6
:101D78009092EFE0FEA3E0EE6D7001E47042909265
:101D8800E81218019092EDE0FEA3E029F9EA3EFA84
:101D9800900007121536FF9092EFE0A3E0B50720F8
:101DA800E49092ED75F0081215DC7E007F0E7D0040
:101DB8007B017A907979121A27909069E04402F0B1
:101DC8009092EDE475F0011215DC9092EBE0FEA321
:101DD800E024FBFFEE34FFFEA3E0FCA3E0C39FEC8E
:101DE8009E5003021ABE229092E81218219092E89F
:101DF80012180112151D9092EBF09092EBE0C3942B
:101E080008748094804003022071E075F00EA424C9
:101E180087F582E43490F583E0645A600302206811
:101E28009092EBE075F00EA4248AF582E43490F5E4
:101E380083E070030220689092EBE075F00EA42412
:101E48008CF582E43490F583E0700302207190925F
:101E5800EBE075F00EA4248CF582E43490F583E071
:101E68006401702D9092EBE075F00EA4248DF5823C
:101E7800E43490F583E0FEA3E0FF909348E0FCA3F0
:101E8800E06F7002EC6E600302206802207102208D
:101E9800689092EBE075F00EA4248CF582E43490FF
:101EA800F583E064026003021F6E9092EBE075F028
:101EB8000EA4248DF582E43490F583E0FEA3E0FFC0
:101EC8007B017A9279EC909333E4F0A37402F012D8
:101ED80020819092ECE0A3E0645A600302206890AD
:101EE80092EBE0C39407748094805048E075F00E3C
:101EF800A4249AF582E43490F583E0640270359066
:101F080092EBE075F00EA4249BF582E43490F583FF
:101F1800E0FEA3E0FF9092EBE075F00EA4248DF5AF
:101F280082E43490F583E0FCA3E06F7002EC6E70FD
:101F380003022071E49092ECF0A3F09092EBE0752C
:101F4800F00EA4248DF582E43490F583E0FEA3E03E
:101F5800FF7B017A9279EC909317E4F0A37402F076
:101F68001222EE0220719092EBE075F00EA4248C00
:101F7800F582E43490F583E06403600302206890FE
:101F880092EBE075F00EA42493F582E43490F58387
:101F9800E0FEA3E0FF909348E0FCA3E0FDEF6D7046
:101FA80002EE6C60030220689092EBE075F00EA4DC
:101FB800248DF582E43490F583E0FEA3E0FF7B01F5
:101FC8007A9279EC909333E4F0A37402F0122081B2
:101FD8009092ECE0A3E0645A60030220689092EBD0
:101FE800E0C39407748094805045E075F00EA424F3
:101FF8009AF582E43490F583E0640370329092EBB2
:10200800E075F00EA4249BF582E43490F583E0FE9D
:10201800A3E0FF9092EBE075F00EA4248DF582E426
:102028003490F583E0FCA3E06F7002EC6E603AE454
:102038009092ECF0A3F09092EBE075F00EA4248D52
:10204800F582E43490F583E0FEA3E0FF7B017A9209
:1020580079EC909317E4F0A37402F01222EE800951
:102068009092EBE004F0021E029092EBE0FF909257
:10207800E8121801EF1215632290932EEEF0A3EFE9
:10208800F0A31218217B007A007900C003C002C0B7
:1020980001909330121801D082D083D0E06B700881
:1020A800E965827003EA658370030222ED90933339
:1020B800E0FEA3E04E70030222ED909333E0A3E02C
:1020C800FFEEC313FEEF13FF90932EE0FCA3E02F67
:1020D800FFEE3CFED3EF94FEEE94FF40030222EDA8
:1020E800C2AF90932EE0A3E05401909335F0909303
:1020F8002EE0FEA3E0FFEEC313FEEF13FF90932E36
:10210800EEF0A3EFF090932EE0FEA3E07810CEC39C
:1021180013CE13D8F9F5F190932EE0FEA3E0EEF577
:10212800F290932EE0A3E0F5F3E4F5F875F401D20C
:10213800FF30FCFDD2FD909335E0640170729093FE
:1021480033E0FEA3E064014E700AC2FBC2FAD2F982
:10215800C2F88008C2FBC2FAD2F9D2F8D2FE20FE39
:10216800FD909333E0FEA3E064014E701A90933023
:1021780075F00112180AE5FC12156390933374FF89
:10218800F5F01215DC8029909330E475F0011218EF
:102198000AE5FC121563909330E475F00112180AF1
:1021A800E5FD12156390933374FF75F0FE1215DC8C
:1021B800909333E0FEA3E04E70030222E89093333D
:1021C800E0A3E0C39404EE940040030222919093AC
:1021D80033E0A3E08EF01218502205000121FB0025
:1021E8000221F100030000220DD2FBD2FAD2F9C27B
:1021F800F88012D2FBD2FAC2F9C2F88008D2FBC228
:10220800FAC2F9C2F8D2FE20FEFD909333E0FEA395
:10221800E08EF0121850227E0001225E0002222E6B
:102228000003000022E8909330E475F00112180AC8
:10223800E5FA121563909330E475F00112180AE577
:10224800FB121563909330E475F00112180AE5FC4F
:102258001215630222E8909330E475F00112180A0F
:10226800E5FA121563909330E475F00112180AE547
:10227800FB121563806A909330E475F00112180A16
:10228800E5FA12156380598057D2FBD2FAD2F9D2F7
:10229800F8D2FE20FEFD909330E475F00112180A82
:1022A800E5FA121563909330E475F00112180AE507
:1022B800FB121563909330E475F00112180AE5FCDF
:1022C800121563909330E475F00112180AE5FD12B7
:1022D800156390933374FF75F0FC1215DC0221B876
:1022E800E4F5F8D2AF22909312EEF0A3EFF0A31228
:1022F80018217B007A007900C003C002C0019093C6
:1023080014121801D082D083D0E06B7008E965827E
:102318007003EA65837003022559909317E0FEA3C2
:10232800E04E7003022559909317E0A3E0FFEEC337
:1023380013FEEF13FF909312E0FCA3E02FFFEE3C97
:10234800FED3EF94FEEE94FF4003022559C2AF90EE
:102358009312E0A3E05401909319F0909312E0FED9
:10236800A3E0FFEEC313FEEF13FF909312EEF0A36A
:10237800EFF0909312E0FEA3E07810CEC313CE13D3
:10238800D8F9F5F1909312E0FEA3E0EEF5F2909300
:1023980012E0A3E0F5F3E4F5F875F401D2FF30FCA0
:1023A800FDC2FD909319E064017072909317E0FEEE
:1023B800A3E064014E700AC2FBC2FAD2F9C2F880E7
:1023C80008C2FBC2FAD2F9D2F8909317E0FEA3E054
:1023D80064014E701A90931475F00112180A1215C0
:1023E8001DF5FC90931774FFF5F01215DC80299009
:1023F8009314E475F00112180A12151DF5FC909358
:1024080014E475F00112180A12151DF5FD909317C2
:1024180074FF75F0FE1215DCD2FE20FEFD909317B6
:10242800E0FEA3E04E7003022554909317E0A3E06A
:10243800C39404EE940040030224FD909317E0A394
:10244800E08EF01218502472000124680002245E05
:1024580000030000247AD2FBD2FAD2F9C2F8801223
:10246800D2FBD2FAC2F9C2F88008D2FBC2FAC2F98A
:10247800C2F8909317E0FEA3E08EF012185024E5FE
:10248800000124C5000224960003000024F4909360
:1024980014E475F00112180A12151DF5FA90931438
:1024A800E475F00112180A12151DF5FB909314E457
:1024B80075F00112180A12151DF5FC802F9093145F
:1024C800E475F00112180A12151DF5FA909314E438
:1024D80075F00112180A12151DF5FB800F90931460
:1024E800E475F00112180A12151DF5FAD2FE30FE35
:1024F8005B80FB8057D2FBD2FAD2F9D2F8909314C2
:10250800E475F00112180A12151DF5FA909314E4F7
:1025180075F00112180A12151DF5FB909314E47555
:10252800F00112180A12151DF5FC909314E475F0C9
:102538000112180A12151DF5FDD2FE20FEFD90931A
:102548001774FF75F0FC1215DC022425E4F5F8D2A7
:10255800AF227B007A0079009092E31218219090C4
:1025680078E0640160030225F1909073E0FF909099
:10257800F7E0D39F4011E0909073F0909178121794
:10258800C4000000008062909073E0FF9090F7E034
:102598006F7056FFFEFDFC9091781217ACD312179E
:1025A8007B40389091781217ACC3E50E9BFFE50D80
:1025B8009AFEE50C99FDE50B98FCE47B14FAF9F812
:1025C800C312177B50237B017A9079F89090F7E03B
:1025D800FD7C00121A751238AE800EAF0EAE0DAD2E
:1025E8000CAC0B9091781217B8909069E030E042EB
:1025F800E020E1299090741217ACC3E50E9BFBE52F
:102608000D9AFAE50C99F9E50B98F890907DE0FFA2
:10261800E4FCFDFEC312177B50030227409090692B
:10262800E030E106A3E004F0802F909069E054FECA
:10263800F0229090741217ACC3E50E9BFFE50D9A3B
:10264800FEE50C99FDE50B98FCE47BF47A01F9F8BA
:10265800D312177B400302274090906AE070031260
:102668002BD89090741217C400000000E4F50EF502
:102678000DF50CF50B909069E054FDF0E054FEF078
:102688001238AE7B017A90796A121DEF90906AE059
:10269800C3940874809480400302273BE075F00ED1
:1026A800A42487F9749035F0FA7B0178797C907DC1
:1026B800017E007F0E1214F71238AE90907BE06412
:1026C8000370127B017A907979122D1D909069E040
:1026D8004401F0805490907BE064067034909081BF
:1026E800E0FEA3E0FF7B017A9279E6909333E4F071
:1026F800A37402F01220817B017A9079799092E696
:10270800E0FCA3E0FD122E38909069E04401F080CF
:102718001890907BE0641070107B017A90797912A0
:1027280028F9909069E04401F0E4F50EF50DF50CF8
:10273800F50B22E490906AF022E49092E3F0A3F083
:10274800E51320E0030228F87B017A9279E390935D
:1027580033E4F0A37402F07F147E5012208190922B
:10276800E3E0FEA3E04E70030228F89092E3E0A3B2
:10277800E08EF012185028B7A00028B7A00128B79B
:10278800A002288EA4002893A4012898A4A0289821
:10279800A4A12898A4A22898A4A32898A4A4289817
:1027A800A4A52898A4A62898A4A72898A4A82898F7
:1027B800A4A92898A4AA2898A4AB2898A4AC2898D7
:1027C800A4AD2898A4AE2898A4AF2898A4B02898B7
:1027D800A4B12898A4B22898A4B32898A4B4289897
:1027E800A4B52898A4B62898A4B72898A4B8289877
:1027F800A4B92898A4BA2898A4BB2898A4BC289857
:10280800A4BD2898A4BE2898A4BF2898A4C0289836
:10281800A4C12898A4C22898A4C32898A4C4289816
:10282800A4C52898A4C62898A4C72898A4C82898F6
:10283800A4C92898A4CA2898A4CB2898A4CC2898D6
:10284800A4CD2898A4CE2898A4CF2898A4D02898B6
:10285800A4D128A5A4F028A5A4F128A5A4F228A508
:10286800A4F328B2A60028DCA60128C4AA0128D10E
:10287800AA2128D1AA2228D1AA2328D1AA2428D13A
:10288800AA25000028DC1232EF8049120016804485
:102898009092E3E0FEA3E0FF12376980379092E35D
:1028A800E0FEA3E0FF123720802A12002E80259038
:1028B80092E3E0FEA3E0FF12336380189092E3E016
:1028C800FEA3E0FF1234A2800B9092E3E0FEA3E0A7
:1028D800FF12343AE49092E3F0A3F07B017A927904
:1028E800E3909317F0A37402F07F147E501222EE47
:1028F800229092E8121821E49092EDF09092E8125A
:102908001801900001121536FF9092EDE0FE04F0D8
:1029180074EE2EF582E43492F583EFF09092EDE0B8
:10292800FF04F074EE2FF582E43492F5837410F00E
:102938009092E812180190000A121633E5F0FF9001
:1029480092EDE0FE04F074EE2EF582E43492F58305
:10295800EFF09092E812180190000A121633FF90D7
:1029680092EDE0FE04F074EE2EF582E43492F583E5
:10297800EFF09092E8121801900003121536FFE468
:102988009092EDE0FE04F074EE2EF582E43492F5B8
:1029980083E4F09092E8121801900003121536FFB4
:1029A8009092EDE0FE04F074EE2EF582E43492F598
:1029B80083EFF09092E81218019000031215362563
:1029C800E0FF9092EDE0FE04F074EE2EF582E43420
:1029D80092F583EFF0909081E0FEA3E0FFC006C07F
:1029E800079092EDE024EEF9E43492FA7B01C003FB
:1029F800C002C0019092E812180190000312153627
:102A080075F002A4FF909333E5F0F0A3EFF0D00146
:102A1800D002D003D007D0061220819092E8121875
:102A28000190000312153625E0FF9092EDE02FF09B
:102A38007B017A9279EEE0FD7C001231FC9092EBFA
:102A4800EEF0A3EFF09092EBE0FEA3E0EEFFA3E040
:102A5800FE04F074EE2EF582E43492F583EFF090E4
:102A680092EBE0A3E0FFA3E0FE04F074EE2EF58203
:102A7800E43492F583EFF07B017A9279EE9092ED4F
:102A8800E0FD1235C722C0E0C0F0C083C082C0D0CC
:102A980075D000C000C001C002C003C004C005C09A
:102AA80006C007C2AF758CBC758ACD90934CE4758F
:102AB800F0011215DC90934CE0FEA3E0D394E8EE0D
:102AC8009403401890934CE4F0A3F0A375F001121E
:102AD80015DC90934AE475F0011215DC43C90190A6
:102AE80093581217A0E47B01FAF9F812168A90930A
:102AF800581217B8909350E475F0011215DC9093B2
:102B0800521217A0E4F812168A9093521217B8902E
:102B18009356E0FEA3E0FFE4FCFD7BDC7AFFF8D3EC
:102B2800121765400A909356E475F0011215DC05FA
:102B380009E50970020508AF12AE11AD10AC0FE43B
:102B48007B01FAF9F812168A8F128E118D108C0FEC
:102B5800AF0EAE0DAD0CAC0BE412168A8F0E8E0DB7
:102B68008D0C8C0BE47B64AF12AE11AD10AC0F1260
:102B780016D3AC00AD01AE02AF03E4FBFAF9F8C31B
:102B880012177B7003430A02E47BF47A01F9F8AF69
:102B980012AE11AD10AC0F1216D3AC00AD01AE02DF
:102BA800AF03E4FBFAF9F8C312177B7003430A0476
:102BB800430A01D2AFD007D006D005D004D003D045
:102BC80002D001D000D0D0D082D083D0F0D0E03273
:102BD8007BFF7A39798678E87C927D017E007F28B0
:102BE8001214F7E4909310F0A3F0909310E0FEA372
:102BF800E0C39401EE94004003022D1C909310E072
:102C0800A3E07803C333CE33CED8F9246CF58274AD
:102C1800903EF583E0FF909348E0FCA3E0FDEF6D64
:102C28007001EC6003022D0F909310E0FEA3E07892
:102C380003C333CE33CED8F9246DF58274903EF5B4
:102C480083E0FEA3E0FF7B017A9279E8909333E476
:102C5800F0A37402F0122081909310E0FEA3E078B4
:102C680003C333CE33CED8F9246FF58274903EF582
:102C780083E0FEA3E0FF7B017A9279EA909333E444
:102C8800F0A37402F01220819092EAE0FEA3E0FF24
:102C98009092E8E0FCA3E06F7002EC6E606990939C
:102CA80010E0FEA3E07803C333CE33CED8F9246F07
:102CB800F58274903EF583E0FEA3E0FF7B017A92F3
:102CC80079E8909317E4F0A37402F01222EE909240
:102CD800ECE4F0A3745AF0909310E0FEA3E07803BC
:102CE800C333CE33CED8F92471F58274903EF58380
:102CF800E0FEA3E0FF7B017A9279EC909317E4F071
:102D0800A37402F01222EE909310E475F0011215EC
:102D1800DC022BF2229092E8121821E49092EDF056
:102D28009092E8121801900001121536FF9092ED6A
:102D3800E0FE04F074EE2EF582E43492F583EFF0B1
:102D48009092EDE0FF04F074EE2FF582E43492F5F2
:102D5800837403F09092E812180190000A12163357
:102D6800E5F0FF9092EDE0FE04F074EE2EF582E4BB
:102D78003492F583EFF09092E812180190000A124D
:102D88001633FF9092EDE0FE04F074EE2EF582E427
:102D98003492F583EFF09092E81218019000031234
:102DA8001536FFE49092EDE0FE04F074EE2EF58205
:102DB800E43492F583E4F09092E81218019000034D
:102DC800121536FF9092EDE0FE04F074EE2EF582B7
:102DD800E43492F583EFF07B017A9279EE9092EDEC
:102DE800E0FD7C001231FC9092EBEEF0A3EFF09046
:102DF80092EBE0FEA3E0EEFFA3E0FE04F074EE2EFB
:102E0800F582E43492F583EFF09092EBE0A3E0FFD3
:102E1800A3E0FE04F074EE2EF582E43492F583EF1D
:102E2800F07B017A9279EE9092EDE0FD1235C7229F
:102E38009092E81218219092EBECF0A3EDF0E49058
:102E480092EFF09092E8121801900001121536FFE7
:102E58009092EFE0FE04F074F02EF582E43492F5DF
:102E680083EFF09092EFE0FF04F074F02FF582E426
:102E78003492F5837406F09092E812180190000AD3
:102E8800121633E5F0FF9092EFE0FE04F074F02E96
:102E9800F582E43492F583EFF09092E812180190ED
:102EA800000A121633FF9092EFE0FE04F074F02E41
:102EB800F582E43492F583EFF09092EBE0FEA3E024
:102EC800EEFF9092EFE0FE04F074F02EF582E43409
:102ED80092F583EFF09092EBE0A3E0FF9092EFE0A1
:102EE800FE04F074F02EF582E43492F583EFF07B63
:102EF800017A9279F09092EFE0FD7C001231FC901B
:102F080092EDEEF0A3EFF09092EDE0FEA3E0EEFF7D
:102F1800A3E0FE04F074F02EF582E43492F583EF1A
:102F2800F09092EDE0A3E0FFA3E0FE04F074F02E31
:102F3800F582E43492F583EFF07B017A9279F09090
:102F480092EFE0FD1235C72290933CE475F0011230
:102F580015DCFEC3E5F09404EE9400500302302E15
:102F6800E490933CF0A3F07B017A9279E590933357
:102F7800F0A37402F07F227EA01220819092E5E0F7
:102F8800FEA3E04E700890933AF0A3740EF0E4901C
:102F980092E7F09092E7E0C3940E748094805070AA
:102FA800E0FF90933AE0FCA3E0FDEF2DFFE43CFE48
:102FB800EF2401FFE43EFE7C007D0E1215877E00A3
:102FC8007401A805088005C333CE33CED8F9FF9025
:102FD80092E5E0FCA3E0FDEE5CFEEF5D4E6029A308
:102FE800E0FF90933AE0FCA3E0FDEF2DFFE43CFE08
:102FF800EF2401FFE43EFE7C007D0E1215879093BE
:103008003AECF0A3EDF080089092E7E004F08083BA
:103018007B017A93793A909317E4F0A37402F07FD6
:10302800B07EA01222EE22E51330E0167B017A93DF
:103038007948909333E4F0A37402F07F147E001271
:103048002081E51320E2030230D5909348E0FEA3E7
:10305800E04E7003122F507B017A9279E3909333FC
:10306800E4F0A37402F07F167E001220819092E3B0
:10307800E0FEA3E04E6024E49092E3F0A3F07B012D
:103088007A9279E3909317F0A37402F07F167E008A
:103098001222EEE4909338F0A3F022909338E0FEE9
:1030A800A3E0C39458EE9402500B909338E475F063
:1030B800011215DC22909338E0FEA3E0B4580EEE1E
:1030C800B4020A909338E475F0011215DC22759465
:1030D80001759502758E0075930075C87075C96085
:1030E80075F800787FE4F6D8FD7581140231320254
:1030F80037F8E493A3F8E493A34003F68001F208B9
:10310800DFF48029E493A3F85407240CC8C333C41C
:10311800540F4420C8834004F456800146F6DFE487
:10312800800B0102040810204080900100E47E0119
:103138009360BCA3FF543F30E509541FFEE493A3FA
:1031480060010ECF54C025E060A840B8E493A3FA0C
:10315800E493A3F8E493A3C8C582C8CAC583CAF098
:10316800A3C8C582C8CAC583CADFE9DEE780BE90A6
:1031780092FAEFF0A3ECF0A3EDF0E4F5F1F5F275B7
:10318800F30475F40175F88F30FCFD9092FAE0F5C0
:10319800FA9092FD1217A0781012178C8FFB90925C
:1031A800FD1217A0780812178C8FFC9092FD121749
:1031B800A0EF54FEFFE48FFDD2FE20FEFD9092FBAF
:1031C800E0FEA3E0EEF5FA9092FBE0A3E054FEF5F2
:1031D800FB909301E0FEA3E0EEF5FC909301E0A3E1
:1031E800E054FEF5FDD2FE20FEFDE4F5F87F04FE76
:1031F8001236212290932E121821909331ECF0A3CD
:10320800EDF0A374FFF0A3F090933174FFF5F01282
:1032180015F245F0604D90932EE475F00112180AEE
:1032280012151DFF909333E06FFF909335E4F0A3E0
:10323800EFF0909335E0FEA3E02469F582748E3EAA
:10324800F583E0FF909334E06F909333F0909335DB
:10325800E0A3E02469F582748F3EF583E09093340F
:10326800F080A5909333E0FEA3E0FDEEEDFF229001
:1032780092E9EEF0A3EFF09092E9E0FEA3E04E6051
:10328800659092E9E0A3E064014E700412367A2258
:103298009092E9E0FEA3E064024E604A9092E9E071
:1032A800A3E064034E703FA3F09092EBE0C3940652
:1032B80074809480502DE025E025E024ABF582E46D
:1032C8003492F5831217A09092EBE025E025E024D4
:1032D800CBF582E43492F5831217B89092EBE004B0
:1032E800F080C612387B227BFF7A3979C078E57C7A
:1032F800927D017E007F041214F77B017A9279E5B2
:10330800909333E4F0A37404F07F207EA41220810C
:10331800909240E0FF7B017A9279E51236D2EF6015
:103328000D12383C909240E09092A7F080077F05FC
:103338007E001237B17E007F047D007B017A92798E
:10334800E5121A277B017A9279E5909317E4F0A3A6
:103358007404F07F207EA41222EE229092E5EEF013
:10336800A3EFF09092E5E0FEA3E08EF01218503340
:1033780087A0003390A00133ADA002000033C890AD
:10338800923CE4F0A304F02290923CE0FEA3E064B7
:10339800014E700990923CF0A37403F022E49092DD
:1033A8003CF0A3F02290923CE0FEA3E064034E7050
:1033B800077FAA7EA4123769E490923CF0A3F0221A
:1033C800E490923CF0A3F0229092E9EEF0A3EFF0A3
:1033D800A3E4F0A3745AF09092E9E0FEA3E0640E2F
:1033E8004E70219092E9E0A3E0FEE42400FFEE3461
:1033F800A0FE7B017A9279EB909317E4F0A3740214
:10340800F01222EE9092E9E0FEA3E064184E7021DB
:103418009092E9E0A3E0FEE42400FFEE34A0FE7BF6
:10342800017A9279EB909317E4F0A37402F01222D8
:10343800EE229092E5EEF0A3EFF09092E5E0A3E0A3
:10344800FFA3E4F0A3EFF09092E5E0FEA3E0742080
:103458009092E9EEF0A37420F09092E9E0FEA3E0E8
:10346800FF7B017A9279E7909317E4F0A37402F056
:103478001222EE9092E7E4F0A3745AF0A3E0FEA3C0
:10348800E02460FFE43EFE7B017A9279E79093178F
:10349800E4F0A37402F01222EE229092E5EEF0A37B
:1034A800EFF09092E5E0A3E0FFA3E4F0A3EFF09043
:1034B80092E5E0FEA3E074229092E9EEF0A3742274
:1034C800F09092E9E0FEA3E0FF7B017A9279E79021
:1034D8009317E4F0A37402F01222EE9092E7E4F05E
:1034E800A3745AF0A3E0FEA3E02460FFE43EFE7B51
:1034F800017A9279E7909317E4F0A37402F012220C
:10350800EE22C0E0C083C082C0D075D000C006C023
:1035180007909337E4F0C2AF309830E599F0909077
:10352800F7E0C3948074809480501E909337E0FF36
:103538009090F7E0FE04F074F82EF582E43490F5EC
:1035480083EFF09090787401F0C298309907C2998F
:1035580090935CE4F0D2AFD007D006D0D0D082D020
:1035680083D0E0329092E9EEF0A3EFF09092E9E098
:10357800FEA3E0D394D1EE94A450199092E9E0A36D
:10358800E025E0FFEE33FE74042FF58274493EF522
:1035980083E0FF229092E9E0FEA3E0D394F3EE9457
:1035A800A450199092E9E0A3E025E0FFEE33FE7401
:1035B800E42FF58274483EF583E0FF227F052290D0
:1035C800932E121821909331EDF07B007A00790048
:1035D800C003C002C00190932E121801D082D0837C
:1035E800D0E06B7008E965827003EA658360299012
:1035F8009331E06023909331E0FF14F0EF6019906D
:10360800932E12180112151DFF12392B90932FE4D7
:1036180075F0011215DC80DD22909303EEF0A3EF24
:10362800F0E4F5F1909303E0FEA3E0EEF5F2909359
:1036380003E0A3E0F5F3E4F5F4E4909303F0A3F0DA
:10364800909303E0FEA3E0C394E8EE9403500F8543
:10365800FCFB909303E475F0011215DC80E275F829
:10366800AF30FCFDD2FE20FEFDE4F5F8AFFAEF70B6
:10367800C8227E007F087D007B017A9179C3121AE7
:10368800277B017A9179C3909317E4F0A37408F02B
:103698007F007E301222EE9091C5E0FEA3E0780311
:1036A800C333CE33CED8F92400FFEE3420FEE4FC39
:1036B800FD9092FD1217B8909301E4F0A37404F002
:1036C8007D007C307FA5123177229092E9EFF0A33C
:1036D8001218219092E9E070037F01229092E9E0AC
:1036E80075F004A424CBF9749235F0FA7B01C00379
:1036F800C002C001A3121801A801AC02AD03D00199
:10370800D002D0037E007F04121A03EF3395E04FF6
:1037180070037F01227F00229092E5EEF0A3EFF084
:103728009092E5E0FEA3E02410FFEE345B90923E19
:10373800F0A3EFF09092E5E0A3E0FF12356C9092D1
:1037480040EFF0909348E0FEA3E0FF909241EEF046
:10375800A3EFF09092A87401F07F047E001237B1B5
:10376800229092E7EEF0A3EFF09092E7E0FEA3E05C
:103778002460FFEE345B9092A9F0A3EFF090934899
:10378800E0FEA3E0FF909241EEF0A3EFF09092E705
:10379800E0FEA3E0FF12356C909240EFF0E49092C7
:1037A800A8F07F04FE1237B1229092FAEEF0A3EF50
:1037B800F07BFF7A3979BC78FC7C927D017E007FB2
:1037C800041214F79092FAE0FEA3E0EE9092FEF055
:1037D8009092FAA3E09092FFF07B017A9279FC90A4
:1037E8009317E4F0A37404F07F847E001222EE2283
:1037F80012394212396AE50A30E01C431301E50A1E
:1038080030E103431302E50A30E203431304530A89
:10381800FE530AFD530AFB43C90112255A12302FE1
:10382800122741E51330E0CE5313FE5313FD531313
:10383800FB80C3229092A8E012182A384D00386401
:10384800010000387A9092A9E0FEA3E0FF1237B198
:103858009092A9E0FEA3E0FF1233D02290923EE0BE
:10386800FEA3E0FF123277909241E0FEA3E0FF1240
:1038780037B1227B017A9279CB909317E4F0A37445
:1038880014F07F007E301222EE9092FD1217C400D1
:10389800003000909301E4F0A3740AF07D007C30BE
:1038A8007FA512317722E49090F7F0909078F0FE9F
:1038B8007F80FD7B017A9079F8121A27E490907343
:1038C800F09091781217C4000000002275F901E405
:1038D800F5A8F5B8F59AF5A9F5B9F580F590F5A02C
:1038E800F5B075B750F5BCF5BDF5BE2243B710432A
:1038F800C940E490935CF075D88075985053877FE1
:1039080075BA0375AA58D29CD2AC2275F90175B75D
:103918000375BC03E4F5BD75BE0CF580F590F5A004
:10392800F5B022909332EFF090935CE0640160F878
:103938007401F0909332E0F59922C2AF120026127A
:10394800391312397F12397843C902D2AF2275C8A8
:1039580070E4F5CDF5CC75CBFF75CAEF43A820D23E
:10396800C8221238AE9090741217C40000000022CA
:103978001200E8123956221238F422C2C632000068
:10398800000000000000000000000000000000002F
:10399800000000000000000000000000000000001F
:1039A800000000000000000000000000000000000F
:0C39B800000000005A01000000000000A8
:00000001FF
