:1000000002312B020006C2AFD2AF32022A9CC2AF2D
:10001000D2AF3202000E90924FE0FEA3E0FF123802
:020020000622B6
:0700230002355F12392922AA
:10002B000239D87B017A9279F3909341E4F0A3746F
:10003B0010F07F207EA612208F9092F3E0A3E02594
:10004B00E025E024DDF582E43492F5831217AE90BF
:10005B0092F71217BAC312178960087F077E001236
:10006B003806229092FF1217AE9092FB1217BAC36A
:10007B0012178960087F087E00123806229092FBC7
:10008B001217AE9092F3E0A3E025E025E024DDF516
:10009B0082E43492F5831217C61238D0E49093079A
:1000AB00F0909307E0C3940A748094805018E02575
:1000BB00E024F3F582E43492F583E4F0A3F090931B
:1000CB0007E004F080DB7B017A9279F3909325E4CF
:1000DB00F0A3740CF07F227EA61222FC224389012E
:0B00EB00758CBC758ACDD2A9D28C2286
:1000F800FFFF4457494E5435429356000042934CF3
:10010800000048934E0069005A003C00154293468F
:100118000000429348000E42934A00005A918A3FD9
:10012800C900690046000086000A2D2D203A3A00D1
:100138000000000000000000005A91A43FCC0127F5
:100148000046000086000A2D2D2F3A3A00000000D4
:100158000000000000005A92303FD0021200460012
:10016800000212004602DA00640010001718180294
:10017800000000603C91F4400040A0414040104025
:10018800B04150402040C04160403040D0417040B4
:100198004040E04180405040F04190406041004183
:1001A800A04070411041B04080412041C040904182
:1001B8003041D05491E041E041F842104228424099
:1001C80042584270428842A042B84891D10000008B
:1001D80000000000004291D900004291DE00004278
:1001E80091DB00004191DD004191D0004291BE00B9
:1001F80005498000B2E2CAD4BABAD7D6006E608088
:100208000949443030BBD8B7E7B8DFCEC200000098
:1002180000000000000000000000000000000000D6
:100228000049443031BBD8B7E7B5CDCEC200000095
:1002380000000000000000000000000000000000B6
:100248000049443032BBD8B7E7B8DFCAAA0000007B
:100258000000000000000000000000000000000096
:100268000049443033BBD8B7E7B8DFCAAA0000005A
:100278000000000000000000000000000000000076
:100288000049443034CBCDB7E7B8DFCEC200000018
:100298000000000000000000000000000000000056
:1002A8000049443035CBCDB7E7B5CDCEC20000000C
:1002B8000000000000000000000000000000000036
:1002C8000049443036CBCDB7E7B8DFCAAA000000F2
:1002D8000000000000000000000000000000000016
:1002E8000049443037CBCDB7E7B5CDCAAA000000E6
:1002F80000000000000000000000000000000000F6
:100308000049443038B1A3C1F400000000000000E7
:1003180000000000000000000000000000000000D5
:100328000049443039C4DAB2BFCDA8D0C5000000B6
:1003380000000000000000000000000000000000B5
:1003480000494431304E5443D2ECB3A300000000BE
:100358000000000000000000000000000000000095
:100368000049443131B7E7BBFA31B9CAD5CF0000EB
:100378000000000000000000000000000000000075
:100388000049443132B7E7BBFA32B9CAD5CF0000C9
:100398000000000000000000000000000000000055
:1003A8000049443133B7E7BBFA33B9CAD5CF0000A7
:1003B8000000000000000000000000000000000035
:1003C8000049443134B7E7BBFA34B9CAD5CF000085
:1003D8000000000000000000000000000000000015
:1003E8000049443135B7E7BBFA35B9CAD5CF000063
:1003F80000000000000000000000000000000000F5
:100408000049443136CDE2B7E7BBFAB9CAD5CF00C7
:1004180000000000000000000000000000000000D4
:100428000049443137B7E7BBFA31D4CBD0D0B3ACAD
:10043800CAB1000000000000000000000000000039
:100448000049443138B7E7BBFA32D4CBD0D0B3AC8B
:10045800CAB1000000000000000000000000000019
:100468000049443139B7E7BBFA33D4CBD0D0B3AC69
:10047800CAB10000000000000000000000000000F9
:100488000049443230B7E7BBFA34D4CBD0D0B3AC50
:10049800CAB10000000000000000000000000000D9
:1004A8000049443231B7E7BBFA35D4CBD0D0B3AC2E
:1004B800CAB10000000000000000000000000000B9
:1004C8000049443232CDE2B7E7BBFAD4CBD0D0B33F
:1004D800ACCAB100000000000000000000000000ED
:1004E8000049443233B8DFD1B931B8E6BEAF0000B5
:1004F80000000000000000000000000000000000F4
:100508000049443234B8DFD1B931CBF8CBC0000050
:1005180000000000000000000000000000000000D3
:100528000049443235B5CDD1B931B8E6BEAF000087
:1005380000000000000000000000000000000000B3
:100548000049443236B5CDD1B931CBF8CBC0000023
:100558000000000000000000000000000000000093
:100568000049443237C5C5C6F8CEC2B6C831B8E668
:10057800BEAF000000000000000000000000000006
:100588000049443238C5C5C6F8CEC2B6C831CBF822
:10059800CBC00000000000000000000000000000C8
:1005A8000049443239B6CCD6DCC6DA31B8E6BEAF3B
:1005B8000000000000000000000000000000000033
:1005C8000049443330D1B9BBFA31D4CBD0D0B3AC25
:1005D800CAB1000000000000000000000000000098
:1005E8000049443331B8DFD1B932B8E6BEAF0000B4
:1005F80000000000000000000000000000000000F3
:100608000049443332B8DFD1B932CBF8CBC000004F
:1006180000000000000000000000000000000000D2
:100628000049443333B5CDD1B9D1B9C1A6B8E6BE76
:10063800AF00000000000000000000000000000003
:100648000049443334B5CDD1B932CBF8CBC0000022
:100658000000000000000000000000000000000092
:100668000049443335C5C5C6F8CEC2B6C832B8E667
:10067800BEAF000000000000000000000000000005
:100688000049443336C5C5C6F8CEC2B6C832CBF821
:10069800CBC00000000000000000000000000000C7
:1006A8000049443337B6CCD6DCC6DA32B8E6BEAF3A
:1006B8000000000000000000000000000000000032
:1006C8000049443338D1B9BBFA32D4CBD0D0B3AC1B
:1006D800CAB1000000000000000000000000000097
:1006E8000049443339BCD3CAAAC6F7B5E7C1F7B93C
:1006F800FDB4F3000000000000000000000000004E
:100708000049443430BCD3CAAAC6F7B8DFCBAECE52
:10071800BB00000000000000000000000000000016
:100728000049443431BCD3CAAAC6F7C8B1CBAE001D
:1007380000000000000000000000000000000000B1
:100748000049443432BCD3CAAAC6F7D4CBD0D0B3FC
:10075800ACCAB1000000000000000000000000006A
:100768000049443433BCD3C8C8C6F7B8E6BEAF00A6
:100778000000000000000000000000000000000071
:100788000049443434BCD3C8C8C6F731B3ACCAB185
:100798000000000000000000000000000000000051
:1007A8000049443435BCD3C8C8C6F732B3ACCAB163
:1007B8000000000000000000000000000000000031
:1007C8000049443436B6CFB5E7D6D8C6F4000000A1
:1007D8000000000000000000000000000000000011
:1007E8000049443437B5E7D4B4CFE0D0F2B4EDCE05
:1007F800F3000000000000000000000000000000FE
:100808000049443438B5E7D4B4C6B5C2CAC6ABB893
:10081800DF000000000000000000000000000000F1
:100828000049443439B5E7D4B4C6B5C2CAC6ABB575
:10083800CD000000000000000000000000000000E3
:10084800004944353041CFE0B9FDD1B9000000007E
:100858000000000000000000000000000000000090
:10086800004944353142CFE0B9FDD1B9000000005C
:100878000000000000000000000000000000000070
:10088800004944353243CFE0B9FDD1B9200000001A
:100898000000000000000000000000000000000050
:1008A800004944353341CFE0C7B7D1B90000000053
:1008B8000000000000000000000000000000000030
:1008C800004944353442CFE0C7B7D1B90000000031
:1008D8000000000000000000000000000000000010
:1008E800004944353543CFE0C7B7D1B9000000000F
:1008F80000000000000000000000000000000000F0
:10090800004944353641CFE0C8B1CFE000000000CF
:1009180000000000000000000000000000000000CF
:10092800004944353742CFE0C8B1CFE000000000AD
:1009380000000000000000000000000000000000AF
:10094800004944353843CFE0C8B1CFE0000000008B
:10095800000000000000000000000000000000008F
:100968000049443539C6F8C1F7B6AACAA7B8E6BEE1
:10097800AF000000000000000000000000000000C0
:100988000049443630B9FDC2CBCDF8D4CBD0D0B372
:10099800ACCAB10000000000000000000000000028
:1009A8000049443631B9FDC2CBCDF8B6C2B8E6BE6F
:1009B800AF00000000000000000000000000000080
:1009C8000049443632D4B6B3CCB9D8BBFAB8E6BE7F
:1009D800AF00000000000000000000000000000060
:1009E8000049443633D2E7CBAEB8E6BEAF000000CC
:1009F80000000000000000000000000000000000EF
:100A08000049443634C8BABFD8CDA8D0C5D2ECB353
:100A1800A30000000000000000000000000000002B
:100A28000049443635B1E4C6B5C6F7B9CAD5CF00D2
:100A380000000000000000000000000000000000AE
:100A48000049443636D7A2CBAEB5E7B5BCC2CAB862
:100A5800DF000000000000000000000000000000AF
:100A68000049443637D7A2CBAEB5E7B5BCC2CAB544
:100A7800CD000000000000000000000000000000A1
:100A88000049443638D1CCCEEDB8E6BEAF00000000
:100A9800000000000000000000000000000000004E
:100AA8000049443639D3C3BBA7D7D4B6A8D2E5B8D2
:100AB800E6BEAF00000000000000000000000000DB
:100AC8000049443730B5E7D4B4D2ECB3A3000000F2
:100AD800000000000000000000000000000000000E
:100AE8000049443731C8EBCBAEB8DFCEC2000000B6
:100AF80000000000000000000000000000000000EE
:100B08000049443732CBAEB7A7B9CAD5CF000000E9
:100B180000000000000000000000000000000000CD
:100B28000049443733C5CCB9DCB6CFC1F7B8E6BE07
:100B3800AF000000000000000000000000000000FE
:100B48000049443734B7E7BBFA36B9CAD5CF0000F5
:100B5800000000000000000000000000000000008D
:100B68000049443735B7E7BBFA37B9CAD5CF0000D3
:100B7800000000000000000000000000000000006D
:100B88000049443736B7E7BBFA38B9CAD5CF0000B1
:100B9800000000000000000000000000000000004D
:100BA8000049443737B7E7BBFA36B3ACCAB10000DF
:100BB800000000000000000000000000000000002D
:100BC8000049443738B7E7BBFA37B3ACCAB10000BD
:100BD800000000000000000000000000000000000D
:100BE8000049443739B7E7BBFA38B3ACCAB100009B
:100BF80000000000000000000000000000000000ED
:100C08000049443830C5C5CBAEB8DFCBAECEBB004B
:100C180000000000000000000000000000000000CC
:100C28000049443831BCD3CAAAC6F7D2ECB3A300F2
:100C380000000000000000000000000000000000AC
:100C48000049443832B7E7D1B9B9FDB5CD00000045
:100C5800000000000000000000000000000000008C
:100C68000049443833BAECCDE2BCD3CAAAB9FDC8AE
:100C7800C8000000000000000000000000000000A4
:100C88000049443834D1B9BBFA31B8DFD1B90000D2
:100C9800000000000000000000000000000000004C
:100CA8000049443835B7E7BBFAB5E7C1F7B9FDB431
:100CB800F300000000000000000000000000000039
:100CC8000049443836B8A8C2B7C8EBCBAEB8DFCEB7
:100CD800C20000000000000000000000000000004A
:100CE8000049443837454556B8E6BEAF0000000015
:100CF80000000000000000000000000000000000EC
:100D08000049443838BDD3CBAEC5CCD2E7CBAE0012
:100D180000000000000000000000000000000000CB
:100D28000049443839C5C5C6F8B8DFCEC20000004E
:100D380000000000000000000000000000000000AB
:100D48000049443930C9E8B1B8CAB9D3C3B3ACCA49
:100D5800B1000000000000000000000000000000DA
:100D68000049443931B1A3C1F4000000000000007B
:100D7800000000000000000000000000000000006B
:100D88000049443932B1A3C1F4000000000000005A
:100D9800000000000000000000000000000000004B
:100DA8000049443933B1A3C1F40000000000000039
:100DB800000000000000000000000000000000002B
:100DC8000049443934B1A3C1F40000000000000018
:100DD800000000000000000000000000000000000B
:100DE8000049443935B1A3C1F400000000000000F7
:100DF80000000000000000000000000000000000EB
:100E08000049443936B1A3C1F400000000000000D5
:100E180000000000000000000000000000000000CA
:100E28000049443937BBD8B7E7CEC2CAAAB6C8B456
:100E3800ABB8D0C6F70000000000000000000000BA
:100E48000049443938CBCDB7E7CEC2CAAAB6C8B430
:100E5800ABB8D0C6F700000000000000000000009A
:100E68000049443939BCD3CAAAB0E5D2ECB3A300CF
:100E7800000000000000000000000000000000006A
:100E8800004944313030C6C1C4BBD2D1CBF8B6A872
:100E9800000000000000000000000000000000004A
:100EA800004944313031D2BBCCECBDABCBF8B6A84D
:100EB800000000000000000000000000000000002A
:100EC800004944313032C8FDCCECBDABCBF8B6A8F4
:100ED800000000000000000000000000000000000A
:100EE800004944313033C6DFCCECBDABCBF8B6A8F3
:100EF80000000000000000000000000000000000EA
:100F0800004944313034CAAECEE5CCECBDABCBF8A9
:100F1800B6A800000000000000000000000000006B
:100F2800004944313035C8FDCAAECCECBDABCBF876
:100F3800B6A800000000000000000000000000004B
:100F4800004944313036B5E7D4B432CFE0D0F2B4FA
:100F5800ED0000000000000000000000000000009C
:100F6800004944313037B5E7D4B432C6B5C2CAB83F
:100F7800DF0000000000000000000000000000008A
:100F8800004944313038B5E7D4B432C6B5C2CAB521
:100F9800CD0000000000000000000000000000007C
:100FA800004944313039B5E7D4B43241CFE0B9FD16
:100FB800D1B900000000000000000000000000009F
:100FC800004944313130B5E7D4B43242CFE0B9FDFD
:100FD800D1B900000000000000000000000000007F
:100FE800004944313131B5E7D4B43243CFE0B9FDDB
:100FF800D1B900000000000000000000000000005F
:10100800004944313132B5E7D4B43241CFE0C7B7F3
:10101800D1B900000000000000000000000000003E
:10102800004944313133B5E7D4B43242CFE0C7B7D1
:10103800D1B900000000000000000000000000001E
:10104800004944313134B5E7D4B43243CFE0C7B7AF
:10105800D1B90000000000000000000000000000FE
:101068000041936A0042935A000042935C00004298
:10107800935800004493660000000042935E00000D
:101088004493600000000002080000040B00000008
:1010980000040F000000004293640000010A006190
:1010A800008E6900C1814001C0804101C0804100BB
:1010B800C1814001C0804100C1814000C18140011F
:1010C800C0804101C0804100C1814000C181400110
:1010D800C0804100C1814001C0804101C080410001
:1010E800C1814001C0804100C1814000C1814001EF
:1010F800C0804100C1814001C0804101C0804100E1
:10110800C1814000C1814001C0804101C0804100CF
:10111800C1814001C0804100C1814000C1814001BE
:10112800C0804101C0804100C1814000C1814001AF
:10113800C0804100C1814001C0804101C0804100A0
:10114800C1814000C1814001C0804101C08041008F
:10115800C1814001C0804100C1814000C18140017E
:10116800C0804100C1814001C0804101C080410070
:10117800C1814001C0804100C1814000C18140015E
:10118800C0804101C0804100C1814000C18140014F
:10119800C0804100C1814001C0804101C080410040
:1011A800C1814061008F6900C0C101C30302C2C68A
:1011B8000607C705C5C404CC0C0DCD0FCFCE0E0A4B
:1011C800CACB0BC90908C8D81819D91BDBDA1A1EEB
:1011D800DEDF1FDD1D1CDC14D4D515D71716D6D2BB
:1011E8001213D311D1D010F03031F133F3F232367B
:1011F800F6F737F53534F43CFCFD3DFF3F3EFEFA8B
:101208003A3BFB39F9F83828E8E929EB2B2AEAEECA
:101218002E2FEF2DEDEC2CE42425E527E7E62622FA
:10122800E2E323E12120E0A06061A163A3A262665A
:10123800A6A767A56564A46CACAD6DAF6F6EAEAACA
:101248006A6BAB69A9A86878B8B979BB7B7ABABE6A
:101258007E7FBF7DBDBC7CB47475B577B7B676723A
:10126800B2B373B17170B05090915193535292963A
:10127800565797559594549C5C5D9D5F9F9E5E5A0A
:101288009A9B5B99595898884849894B8B8A4A4E4A
:101298008E8F4F8D4D4C8C4484854587474686827A
:1012A8004243834181804041910500419078004448
:1012B8009186000000004190730044907400000083
:1012C80000607E90875A010301C8010000A0200039
:1012D8005000FF5A010301C8010000A0220053007A
:1012E800FF5A010304C8010000A023006500FF5A4B
:1012F800010301C8010000A027006E00FF5A010386
:1013080001C801000AAA23006700FF5A010305C8A3
:1013180001000AAA24006900FF5A010301C801005C
:101328000AAA29003500FF5A010601C803AA80AAA3
:10133800200016000A5A010601C803AA82AA220040
:1013480035000A4E907900000000000000000000FF
:101358000000000041906A0048906B000EAE20AE7D
:1013680050AE80419069005892D9000000000000FA
:101378000000000000000000000000000000000065
:1013880000005892B900000000000A2997000A2DB1
:1013980008000CF13B0002C2460007ED654192B51A
:1013A800FF60649251000001000200030004000580
:1013B8000006000700080009000A010B000C000DD8
:1013C800000E020F00100011001203130014001584
:1013D8000016001700180419001A001B001C001D35
:1013E800001E001F002000210022002300240025E9
:1013F8000026002700280029002A002B002C002D99
:10140800002E002F00300031004892D10001010366
:10141800020303054292B7000042924F0000429235
:101428004C000041924E0042924A000000E709F643
:1014380008DFFA8046E709F208DFFA803E88828CE6
:1014480083E709F0A3DFFA8032E309F608DFFA80C0
:1014580078E309F208DFFA807088828C83E309F068
:10146800A3DFFA806489828A83E0A3F608DFFA8022
:101478005889828A83E0A3F208DFFA804C80D28000
:10148800FA80C680D4806980F28033801080A6807C
:10149800EA809A80A880DA80E280CA803389828ACA
:1014A80083ECFAE493A3C8C582C8CCC583CCF0A367
:1014B800C8C582C8CCC583CCDFE9DEE7800D898248
:1014C8008A83E493A3F608DFF9ECFAA9F0EDFB228E
:1014D80089828A83ECFAE0A3C8C582C8CCC583CCCC
:1014E800F0A3C8C582C8CCC583CCDFEADEE880DBC0
:1014F80089828A83E493A3F208DFF980CC88F0EF2D
:1015080060010E4E60C388F0ED2402B4040050B9A7
:10151800F582EB2402B4040050AF232345822390C4
:10152800148573BB010689828A83E0225002E72270
:10153800BBFE02E32289828A83E49322BB010CE585
:101548008229F582E5833AF583E0225006E925826F
:10155800F8E622BBFE06E92582F8E222E58229F5B3
:1015680082E5833AF583E49322BB010689828A8364
:10157800F0225002F722BBFE01F322EF8DF0A4A85F
:10158800F0CF8CF0A428CE8DF0A42EFE22BC000B48
:10159800BE0029EF8DF084FFADF022E4CCF875F0A1
:1015A80008EF2FFFEE33FEEC33FCEE9DEC98400580
:1015B800FCEE9DFE0FD5F0E9E4CEFD22EDF8F5F046
:1015C800EE8420D21CFEADF075F008EF2FFFED334E
:1015D800FD4007985006D5F0F222C398FD0FD5F0CC
:1015E800EA22C5F0F8A3E028F0C5F0F8E5821582F4
:1015F80070021583E038F022A3F8E0C5F025F0F07A
:10160800E582158270021583E0C838F0E822BB0134
:101618000A89828A83E0F5F0A3E022500687F00960
:10162800E71922BBFE07E3F5F009E3192289828A4C
:1016380083E493F5F074019322BB0110E58229F548
:1016480082E5833AF583E0F5F0A3E0225009E92525
:1016580082F886F008E622BBFE0AE92582F8E2F560
:10166800F008E222E5832AF583E993F5F0A3E993EC
:1016780022BB010A89828A83F0E5F0A3F022500692
:10168800F709A7F01922BBFE06F3E5F009F31922C2
:10169800EF2BFFEE3AFEED39FDEC38FC2275F00831
:1016A800758200EF2FFFEE33FECD33CDCC33CCC5A2
:1016B8008233C5829BED9AEC99E58298400CF582BD
:1016C800EE9BFEED9AFDEC99FC0FD5F0D6E4CEFB2F
:1016D800E4CDFAE4CCF9A88222B800C1B90059BA1D
:1016E800002DEC8BF084CFCECDFCE5F0CBF978184B
:1016F800EF2FFFEE33FEED33FDEC33FCEB33FB1045
:10170800D703994004EB99FB0FD8E5E4F9FA22785E
:1017180018EF2FFFEE33FEED33FDEC33FCC933C970
:1017280010D7059BE99A4007EC9BFCE99AF90FD87A
:10173800E0E4C9FAE4CCFB2275F010EF2FFFEE339A
:10174800FEED33FDCC33CCC833C810D7079BEC9AD9
:10175800E899400AED9BFDEC9AFCE899F80FD5F062
:10176800DAE4CDFBE4CCFAE4C8F922EB9FF5F0EA21
:101778009E42F0E99D42F0EC6480C864809845F090
:1017880022EB9FF5F0EA9E42F0E99D42F0E89C4585
:10179800F022E86010ECA2E713FCED13FDEE13FE57
:1017A800EF13FFD8F022E0FCA3E0FDA3E0FEA3E0E6
:1017B800FF22E0F8A3E0F9A3E0FAA3E0FB22ECF0B3
:1017C800A3EDF0A3EEF0A3EFF022A8828583F0D07A
:1017D80083D0821217E91217E91217E91217E9E400
:1017E80073E493A3C583C5F0C583C8C582C8F0A3B5
:1017F800C583C5F0C583C8C582C822A42582F582E1
:10180800E5F03583F58322E0FBA3E0FAA3E0F922B3
:10181800F8E0FBA3A3E0F925F0F0E5821582700259
:101828001583E0FA38F022EBF0A3EAF0A3E9F022FE
:10183800D083D082F8E4937012740193700DA3A33F
:1018480093F8740193F5828883E473740293686053
:10185800EFA3A3A380DFD083D082F8E4937012743F
:101868000193700DA3A393F8740193F5828883E420
:1018780073740293B5F0067403936860E9A3A3A395
:10188800A380D8E3F5F009E208B5F06BDFF58067CF
:10189800E3F5F009E608B5F05EDFF5805A87F00950
:1018A800E608B5F052DFF6804E87F009E208B5F099
:1018B80046DFF6804288828C8387F009E0A3B5F082
:1018C80036DFF6803288828C8387F009E493A3B5EB
:1018D800F025DFF5802188828C83E3F5F009E0A309
:1018E800B5F014DFF5801088828C83E3F5F009E405
:1018F80093A3B5F002DFF40219BA808780E98090DB
:1019080080D4803E8015806E807E809D80B7808DDB
:1019180080A380518074803C0219C689828A83EC36
:10192800FAE493F5F0A3C8C582C8CCC583CCE49388
:10193800A3C8C582C8CCC583CCB5F076DFE3DEE1A9
:10194800807089828A83E493F5F0A3E208B5F06297
:10195800DFF4805E89828A83E0F5F0A3E608B5F0BB
:1019680051DFF5804D89828A83E0F5F0A3E208B55E
:10197800F040DFF5803C89828A83E493F5F0A3E6A2
:1019880008B5F02EDFF4802A8002805789828A8386
:10199800ECFAE493F5F0A3C8C582C8CCC583CCE0C3
:1019A800A3C8C582C8CCC583CCB5F006DFE4DEE2A7
:1019B80080007FFFB5F0020F2240027F012289825A
:1019C8008A83ECFAE0F5F0A3C8C582C8CCC583CCFD
:1019D800E0A3C8C582C8CCC583CCB5F0D5DFE5DEA9
:1019E800E380CF89828A83ECFAE0F5F0A3C8C58248
:1019F800C8CCC583CCE493A3C8C582C8CCC583CC66
:101A0800B5F0AFDFE4DEE280A988F0EF60010E4EAA
:101A180060ABED2402B404005098F582EB2402B4C4
:101A28000400508E232345822390190273EF4E60E1
:101A380012EF60010EEDBB010B89828A83F0A3DFF0
:101A4800FCDEFA2289F05007F709DFFCA9F022BB77
:101A5800FEFCF309DFFCA9F022F8BB010DE58229A1
:101A6800F582E5833AF583E8F0225006E92582C835
:101A7800F622BBFE05E92582C8F2229092F61218DA
:101A88002F9092F9ECF0A3EDF0E4A3F0A3F090927C
:101A9800F9E0FEA3E0FFA3E0FCA3E0C39FEC9E50A7
:101AA8000C9092FBE475F0011215EA80E19092F92E
:101AB800E0FEA3E0C39405EE94005003021DFCE48D
:101AC800A3F0A3F09092F612180F9092FBE0FEA3F9
:101AD800E0F5828E8312154464016003021DD690DE
:101AE80092F612180F9092FBE0A3E029F9EA3EFA69
:101AF8009000011215441218381B0E031C5D061DB8
:101B08001F1000001DD69092F612180F9092FBE05D
:101B1800FEA3E029F9EA3EFA900002121544FF906C
:101B280092FFE4F0A3EFF09092FBE0A3E0FF909225
:101B3800FFE0FCA3E02FFFEC3EFEEF2405FFE43EB0
:101B4800FE9092F9E0FCA3E0FDD3EF9DEE9C4011DE
:101B58009092F9E0FEA3E0FFA3EEF0A3EFF0021DE0
:101B6800D69092F612180F9092FBE0FEA3E029F9A6
:101B7800EA3EFA9092FFE0FEA3E02403FDE43EFC77
:101B88001232519092FDEEF0A3EFF09092F61218F7
:101B98000F9092FBE0FEA3E029F9EA3EFA9092FF4B
:101BA800E0FEA3E029F9EA3EFA900003121544FD8D
:101BB8009092FDE0FEA3E0EE6D7001E46003021D6B
:101BC800D69092F612180F9092FBE0FEA3E029F946
:101BD800EA3EFA9092FFE0FEA3E029F9EA3EFA9085
:101BE8000004121544FF9092FDE0A3E06F7001E439
:101BF8006003021DD6909081E0FEA3E0FF9092F66C
:101C080012180F9092FBE0FCA3E029F9EA3CFAE9EC
:101C18002403F9E43AFA9092FFE0FCA3E0FD9093E4
:101C280025ECF0A3EDF01222FC7E007F0E7D007BF8
:101C3800017A907979121A359092FFE0FEA3E02498
:101C480005FFE43E9092FBF0A3EFF0909069E0442A
:101C580002F0021DD69092FBE0FEA3E02408FFE408
:101C68003EFE9092F9E0FCA3E0FDD3EF9DEE9C4090
:101C7800119092F9E0FEA3E0FFA3EEF0A3EFF002CB
:101C88001DD69092F612180F9092FBE0FEA3E02961
:101C9800F9EA3EFA7D067C001232519092FDEEF090
:101CA800A3EFF09092F612180F9092FBE0FEA3E0DB
:101CB80029F9EA3EFA900006121544FD9092FDE0DB
:101CC800FEA3E0EE6D7001E46003021DD69092F66B
:101CD80012180F9092FBE0FEA3E029F9EA3EFA9071
:101CE8000007121544FF9092FDE0A3E06F7001E435
:101CF8006003021DD69092FB75F0081215EA7E006B
:101D08007F0E7D007B017A907979121A359090695F
:101D1800E04402F0021DD69092FBE0FEA3E0240806
:101D2800FFE43EFE9092F9E0FCA3E0FDD3EF9DEEC8
:101D38009C40119092F9E0FEA3E0FFA3EEF0A3EF20
:101D4800F0021DD69092F612180F9092FBE0FEA3B7
:101D5800E029F9EA3EFA7D067C001232519092FDA4
:101D6800EEF0A3EFF09092F612180F9092FBE0FEBF
:101D7800A3E029F9EA3EFA900006121544FD909274
:101D8800FDE0FEA3E0EE6D7001E470429092F61261
:101D9800180F9092FBE0FEA3E029F9EA3EFA9000C2
:101DA80007121544FF9092FDE0A3E0B50720E490E8
:101DB80092FB75F0081215EA7E007F0E7D007B010C
:101DC8007A907979121A35909069E04402F09092ED
:101DD800FBE475F0011215EA9092F9E0FEA3E02405
:101DE800FBFFEE34FFFEA3E0FCA3E0C39FEC9E5094
:101DF80003021ACC229092F612182F9092F612181B
:101E08000F12152B9092F9F09092F9E0C39409748F
:101E1800809480400302207FE075F00EA42487F5AB
:101E280082E43490F583E0645A600302207690924D
:101E3800F9E075F00EA4248AF582E43490F583E085
:101E480070030220769092F9E075F00EA4248CF5C8
:101E580082E43490F583E0700302207F9092F9E0E9
:101E680075F00EA4248CF582E43490F583E06401C7
:101E7800702D9092F9E075F00EA4248DF582E4346B
:101E880090F583E0FEA3E0FF909356E0FCA3E06F9B
:101E98007002EC6E600302207602207F02207690AA
:101EA80092F9E075F00EA4248CF582E43490F58361
:101EB800E064026003021F7C9092F9E075F00EA4C2
:101EC800248DF582E43490F583E0FEA3E0FF7B01E6
:101ED8007A9279FA909341E4F0A37402F012208F79
:101EE8009092FAE0A3E0645A60030220769092F997
:101EF800E0C39408748094805048E075F00EA424E0
:101F08009AF582E43490F583E0640270359092F992
:101F1800E075F00EA4249BF582E43490F583E0FE8E
:101F2800A3E0FF9092F9E075F00EA4248DF582E409
:101F38003490F583E0FCA3E06F7002EC6E7003024E
:101F4800207FE49092FAF0A3F09092F9E075F00EF9
:101F5800A4248DF582E43490F583E0FEA3E0FF7BB2
:101F6800017A9279FA909325E4F0A37402F0122290
:101F7800FC02207F9092F9E075F00EA4248CF58283
:101F8800E43490F583E0640360030220769092F9CC
:101F9800E075F00EA42493F582E43490F583E0FE16
:101FA800A3E0FF909356E0FCA3E0FDEF6D7002EE16
:101FB8006C60030220769092F9E075F00EA4248DEF
:101FC800F582E43490F583E0FEA3E0FF7B017A928A
:101FD80079FA909341E4F0A37402F012208F909262
:101FE800FAE0A3E0645A60030220769092F9E0C315
:101FF8009408748094805045E075F00EA4249AF5F6
:1020080082E43490F583E0640370329092F9E075CD
:10201800F00EA4249BF582E43490F583E0FEA3E05F
:10202800FF9092F9E075F00EA4248DF582E43490C7
:10203800F583E0FCA3E06F7002EC6E603AE49092E6
:10204800FAF0A3F09092F9E075F00EA4248DF582D1
:10205800E43490F583E0FEA3E0FF7B017A9279FAFD
:10206800909325E4F0A37402F01222FC8009909268
:10207800F9E004F0021E109092F9E0FF9092F61237
:10208800180FEF1215712290933CEEF0A3EFF0A316
:1020980012182F7B007A007900C003C002C001909B
:1020A800933E12180FD082D083D0E06B7008E96598
:1020B800827003EA658370030222FB909341E0FE7D
:1020C800A3E04E70030222FB909341E0A3E0FFEEF1
:1020D800C313FEEF13FF90933CE0FCA3E02FFFEE49
:1020E8003CFED3EF94FEEE94FF40030222FBC2AF06
:1020F80090933CE0A3E05401909343F090933CE02C
:10210800FEA3E0FFEEC313FEEF13FF90933CEEF047
:10211800A3EFF090933CE0FEA3E07810CEC313CE7B
:1021280013D8F9F5F190933CE0FEA3E0EEF5F290B8
:10213800933CE0A3E0F5F3E4F5F875F401D2FF3041
:10214800FCFDD2FD909343E064017072909341E0EE
:10215800FEA3E064014E700AC2FBC2FAD2F9C2F8CB
:102168008008C2FBC2FAD2F9D2F8D2FE20FEFD9056
:102178009341E0FEA3E064014E701A90933E75F01F
:1021880001121818E5FC12157190934174FFF5F0CF
:102198001215EA802990933EE475F001121818E5AB
:1021A800FC12157190933EE475F001121818E5FDC4
:1021B80012157190934174FF75F0FE1215EA909311
:1021C80041E0FEA3E04E70030222F6909341E0A3A3
:1021D800E0C39404EE9400400302229F909341E0F0
:1021E800A3E08EF012185E221300012209000221DA
:1021F800FF00030000221BD2FBD2FAD2F9C2F880FA
:1022080012D2FBD2FAC2F9C2F88008D2FBC2FAC2D3
:10221800F9C2F8D2FE20FEFD909341E0FEA3E08EC5
:10222800F012185E228C0001226C0002223C00038E
:10223800000022F690933EE475F001121818E5FAB2
:1022480012157190933EE475F001121818E5FB120F
:10225800157190933EE475F001121818E5FC1215FB
:10226800710222F690933EE475F001121818E5FA0F
:1022780012157190933EE475F001121818E5FB12DF
:102288001571806A90933EE475F001121818E5FA0A
:1022980012157180598057D2FBD2FAD2F9D2F8D2EE
:1022A800FE20FEFD90933EE475F001121818E5FA41
:1022B80012157190933EE475F001121818E5FB129F
:1022C800157190933EE475F001121818E5FC12158B
:1022D8007190933EE475F001121818E5FD1215711E
:1022E80090934174FF75F0FC1215EA0221C6E4F5DB
:1022F800F8D2AF22909320EEF0A3EFF0A312182F9C
:102308007B007A007900C003C002C00190932212BA
:10231800180FD082D083D0E06B7008E96582700313
:10232800EA65837003022567909325E0FEA3E04EDB
:102338007003022567909325E0A3E0FFEEC313FE28
:10234800EF13FF909320E0FCA3E02FFFEE3CFED3B9
:10235800EF94FEEE94FF4003022567C2AF909320EE
:10236800E0A3E05401909327F0909320E0FEA3E0CF
:10237800FFEEC313FEEF13FF909320EEF0A3EFF0F0
:10238800909320E0FEA3E07810CEC313CE13D8F9C3
:10239800F5F1909320E0FEA3E0EEF5F2909320E0B3
:1023A800A3E0F5F3E4F5F875F401D2FF30FCFDC2C3
:1023B800FD909327E064017072909325E0FEA3E0FE
:1023C80064014E700AC2FBC2FAD2F9C2F88008C290
:1023D800FBC2FAD2F9D2F8909325E0FEA3E064019B
:1023E8004E701A90932275F00112181812152BF5D9
:1023F800FC90932574FFF5F01215EA80299093223A
:10240800E475F00112181812152BF5FC909322E4CC
:1024180075F00112181812152BF5FD90932574FF0D
:1024280075F0FE1215EAD2FE20FEFD909325E0FE1F
:10243800A3E04E7003022562909325E0A3E0C394C5
:1024480004EE9400400302250B909325E0A3E08E50
:10245800F012185E2480000124760002246C000328
:1024680000002488D2FBD2FAD2F9C2F88012D2FB3B
:10247800D2FAC2F9C2F88008D2FBC2FAC2F9C2F88D
:10248800909325E0FEA3E08EF012185E24F300017D
:1024980024D3000224A4000300002502909322E420
:1024A80075F00112181812152BF5FA909322E4759D
:1024B800F00112181812152BF5FB909322E475F011
:1024C8000112181812152BF5FC802F909322E47531
:1024D800F00112181812152BF5FA909322E475F0F2
:1024E8000112181812152BF5FB800F909322E47532
:1024F800F00112181812152BF5FAD2FE30FE5B8087
:10250800FB8057D2FBD2FAD2F9D2F8909322E47525
:10251800F00112181812152BF5FA909322E475F0B1
:102528000112181812152BF5FB909322E475F0018F
:1025380012181812152BF5FC909322E475F001126D
:10254800181812152BF5FDD2FE20FEFD9093257468
:10255800FF75F0FC1215EA022433E4F5F8D2AF2235
:102568007B007A0079009092F112182F909078E011
:10257800640160030225FF909073E0FF909105E0ED
:10258800D39F4011E0909073F09091861217D2007B
:102598000000008062909073E0FF909105E06F70FA
:1025A80056FFFEFDFC9091861217BAD31217894088
:1025B800389091861217BAC3E50E9BFFE50D9AFE77
:1025C800E50C99FDE50B98FCE47B14FAF9F8C312C5
:1025D800178950237B017A917906909105E0FD7C5B
:1025E80000121A83123903800EAF0EAE0DAD0CAC7B
:1025F8000B9091861217C6909069E030E042E02077
:10260800E1299090741217BAC3E50E9BFBE50D9A69
:10261800FAE50C99F9E50B98F890907DE0FFE4FC59
:10262800FDFEC3121789500302274E909069E030CF
:10263800E106A3E004F0802F909069E054FEF022B8
:102648009090741217BAC3E50E9BFFE50D9AFEE54C
:102658000C99FDE50B98FCE47BF47A01F9F8D312A8
:102668001789400302274E90906AE07003122BE608
:102678009090741217D200000000E4F50EF50DF5E5
:102688000CF50B909069E054FDF0E054FEF012391F
:10269800037B017A90796A121DFD90906AE0C394D9
:1026A80009748094804003022749E075F00EA42441
:1026B80087F9749035F0FA7B0178797C907D017EFA
:1026C800007F0E12150512390390907BE0640370A9
:1026D800127B017A907979122E51909069E0440129
:1026E800F0805490907BE064067034909081E0FE16
:1026F800A3E0FF7B017A9279F4909341E4F0A3740C
:1027080002F012208F7B017A9079799092F4E0FCA4
:10271800A3E0FD122F6C909069E04401F0801890BE
:10272800907BE0641070107B017A90797912290708
:10273800909069E04401F0E4F50EF50DF50CF50B09
:1027480022E490906AF022E49092F1F0A3F0E5136D
:1027580020E0030229067B017A9279F1909341E403
:10276800F0A37402F07F147E5012208F9092F1E053
:10277800FEA3E04E70030229069092F1E0A3E08EDA
:10278800F012185E28C5A00028C5A00128C5A0021F
:10279800289CA40028A1A40128A6A4A028A6A4A136
:1027A80028A6A4A228A6A4A328A6A4A428A6A4A5CB
:1027B80028A6A4A628A6A4A728A6A4A828A6A4A9AB
:1027C80028A6A4AA28A6A4AB28A6A4AC28A6A4AD8B
:1027D80028A6A4AE28A6A4AF28A6A4B028A6A4B16B
:1027E80028A6A4B228A6A4B328A6A4B428A6A4B54B
:1027F80028A6A4B628A6A4B728A6A4B828A6A4B92B
:1028080028A6A4BA28A6A4BB28A6A4BC28A6A4BD0A
:1028180028A6A4BE28A6A4BF28A6A4C028A6A4C1EA
:1028280028A6A4C228A6A4C328A6A4C428A6A4C5CA
:1028380028A6A4C628A6A4C728A6A4C828A6A4C9AA
:1028480028A6A4CA28A6A4CB28A6A4CC28A6A4CD8A
:1028580028A6A4CE28A6A4CF28A6A4D028A6A4D16A
:1028680028B3A4F028B3A4F128B3A4F228B3A4F39E
:1028780028C0A60028EAA60128D2AA0128DFAA2192
:1028880028DFAA2228DFAA2328DFAA2428DFAA25EE
:10289800000028EA123344804912001680449092BE
:1028A800F1E0FEA3E0FF1237BE80379092F1E0FE20
:1028B800A3E0FF123775802A12002E80259092F12E
:1028C800E0FEA3E0FF1233B880189092F1E0FEA377
:1028D800E0FF1234F7800B9092F1E0FEA3E0FF12C4
:1028E800348FE49092F1F0A3F07B017A9279F19021
:1028F8009325F0A37402F07F147E501222FC2290DC
:1029080092F612182FE49092FBF09092F612180F9C
:10291800900001121544FF9092FBE0FE04F074FC55
:102928002EF582E43492F583EFF09092FBE0FF04F9
:10293800F074FC2FF582E43492F5837410F09092D1
:10294800F612180F90000A121641E5F0FF9092FB5C
:10295800E0FE04F074FC2EF582E43492F583EFF087
:102968009092F612180F90000A121641FF9092FBEF
:10297800E0FE04F074FC2EF582E43492F583EFF067
:102988009092F612180F900003121544FFE49092EB
:10299800FBE0FE04F074FC2EF582E43492F583E447
:1029A800F09092F612180F900003121544FF9092BF
:1029B800FBE0FE04F074FC2EF582E43492F583EF1C
:1029C800F09092F612180F90000312154425E0FFBC
:1029D8009092FBE0FE04F074FC2EF582E43492F54C
:1029E80083EFF0909081E0FEA3E0FFC006C007905F
:1029F80092FBE024FCF9E43492FA7B01C003C002A4
:102A0800C0019092F612180F90000312154475F049
:102A180002A4FF909341E5F0F0A3EFF0D001D002BB
:102A2800D003D007D00612208F9092F612180F907C
:102A3800000312154425E0FF9092FBE02FF07B0184
:102A48007A9279FCE0FD7C001232519092F9EEF016
:102A5800A3EFF09092F9E0FEA3E0EEFFA3E0FE04FE
:102A6800F074FC2EF582E43492F583EFF09092F93D
:102A7800E0A3E0FFA3E0FE04F074FC2EF582E4344A
:102A880092F583EFF07B017A9279FC9092FBE0FD5E
:102A980012361C22C0E0C0F0C083C082C0D075D0FE
:102AA80000C000C001C002C003C004C005C006C009
:102AB80007C2AF758CBC758ACD90935AE475F00146
:102AC8001215EA90935AE0FEA3E0D394E8EE94033B
:102AD800401890935AE4F0A3F0A375F0011215EA98
:102AE800909358E475F0011215EA43C90190936672
:102AF8001217AEE47B01FAF9F81216989093661251
:102B080017C690935EE475F0011215EA909360126F
:102B180017AEE4F81216989093601217C690936453
:102B2800E0FEA3E0FFE4FCFD7BDC7AFFF8D312179C
:102B380073400A909364E475F0011215EA0509E5FB
:102B48000970020508AF12AE11AD10AC0FE47B019D
:102B5800FAF9F81216988F128E118D108C0FAF0E8D
:102B6800AE0DAD0CAC0BE41216988F0E8E0D8D0CBD
:102B78008C0BE47B64AF12AE11AD10AC0F1216E1F2
:102B8800AC00AD01AE02AF03E4FBFAF9F8C31217CB
:102B9800897003430A02E47BF47A01F9F8AF12AEB4
:102BA80011AD10AC0F1216E1AC00AD01AE02AF03CF
:102BB800E4FBFAF9F8C31217897003430A04430ABD
:102BC80001D2AFD007D006D005D004D003D002D0B0
:102BD80001D000D0D0D082D083D0F0D0E0327BFFBB
:102BE8007A3979DB78F67C927D017E007F28121590
:102BF80005E490931EF0A3F090931EE0FEA3E0C3BB
:102C08009401EE94004003022D2A90931EE0A3E065
:102C18007803C333CE33CED8F9246CF58274903E52
:102C2800F583E0FF909356E0FCA3E0FDEF6D7001A3
:102C3800EC6003022D1D90931EE0FEA3E07803C311
:102C480033CE33CED8F9246DF58274903EF583E007
:102C5800FEA3E0FF7B017A9279F6909341E4F0A31A
:102C68007402F012208F90931EE0FEA3E07803C355
:102C780033CE33CED8F9246FF58274903EF583E0D5
:102C8800FEA3E0FF7B017A9279F8909341E4F0A3E8
:102C98007402F012208F9092F8E0FEA3E0FF909269
:102CA800F6E0FCA3E06F7002EC6E606990931EE0A2
:102CB800FEA3E07803C333CE33CED8F9246FF58270
:102CC80074903EF583E0FEA3E0FF7B017A9279F6EB
:102CD800909325E4F0A37402F01222FC9092FAE497
:102CE800F0A3745AF090931EE0FEA3E07803C33378
:102CF800CE33CED8F92471F58274903EF583E0FE88
:102D0800A3E0FF7B017A9279FA909325E4F0A3740B
:102D180002F01222FC90931EE475F0011215EA02EB
:102D28002C002290934AE475F0011215EAFEC3E5DF
:102D3800F09404EE94005003022E50E490934AF06D
:102D4800A3F07B017A9279F3909341F0A37402F097
:102D58007F227EA012208F9092F3E0FEA3E04E70B7
:102D680008909348F0A3740EF0E49092F5F09092D6
:102D7800F5E0C3940E748094805070E0FF909348FF
:102D8800E0FCA3E0FDEF2DFFE43CFEEF2401FFE4AF
:102D98003EFE7C007D0E1215957E007401A8050884
:102DA8008005C333CE33CED8F9FF9092F3E0FCA36D
:102DB800E0FDEE5CFEEF5D4E6029A3E0FF909348D6
:102DC800E0FCA3E0FDEF2DFFE43CFEEF2401FFE46F
:102DD8003EFE7C007D0E121595909348ECF0A3ED15
:102DE800F080089092F5E004F080837B017A937973
:102DF80048909325E4F0A37402F07FB07EA01222DD
:102E0800FC7B017A9279F3909341E4F0A37402F089
:102E18007F207EA012208F9092F3E0A3E030E3069B
:102E28007E007F0180047E007F009092F3EEF0A385
:102E3800EFF07B017A9279F3909325E4F0A3740282
:102E4800F07F107EA01222FC229092F612182FE436
:102E58009092FBF09092F612180F90000112154410
:102E6800FF9092FBE0FE04F074FC2EF582E43492AD
:102E7800F583EFF09092FBE0FF04F074FC2FF582ED
:102E8800E43492F5837403F09092F612180F9000D0
:102E98000A121641E5F0FF9092FBE0FE04F074FC84
:102EA8002EF582E43492F583EFF09092F612180F23
:102EB80090000A121641FF9092FBE0FE04F074FCA9
:102EC8002EF582E43492F583EFF09092F612180F03
:102ED800900003121544FFE49092FBE0FE04F074A6
:102EE800FC2EF582E43492F583E4F09092F6121801
:102EF8000F900003121544FF9092FBE0FE04F0745B
:102F0800FC2EF582E43492F583EFF07B017A927916
:102F1800FC9092FBE0FD7C001232519092F9EEF0A9
:102F2800A3EFF09092F9E0FEA3E0EEFFA3E0FE0429
:102F3800F074FC2EF582E43492F583EFF09092F968
:102F4800E0A3E0FFA3E0FE04F074FC2EF582E43475
:102F580092F583EFF07B017A9279FC9092FBE0FD89
:102F680012361C229092F612182F9092F9ECF0A3C8
:102F7800EDF0E49092FDF09092F612180F90000197
:102F8800121544FF9092FDE0FE04F074FE2EF582C7
:102F9800E43492F583EFF09092FDE0FF04F074FEC4
:102FA8002FF582E43492F5837406F09092F61218A5
:102FB8000F90000A121641E5F0FF9092FDE0FE0422
:102FC800F074FE2EF582E43492F583EFF09092F6D9
:102FD80012180F90000A121641FF9092FDE0FE04AD
:102FE800F074FE2EF582E43492F583EFF09092F9B6
:102FF800E0FEA3E0EEFF9092FDE0FE04F074FE2EEA
:10300800F582E43492F583EFF09092F9E0A3E0FFC3
:103018009092FDE0FE04F074FE2EF582E43492F501
:1030280083EFF07B017A9279FE9092FDE0FD7C00BF
:103038001232519092FBEEF0A3EFF09092FBE0FE7B
:10304800A3E0EEFFA3E0FE04F074FE2EF582E43464
:1030580092F583EFF09092FBE0A3E0FFA3E0FE047B
:10306800F074FE2EF582E43492F583EFF07B017A5A
:103078009279FE9092FDE0FD12361C22E51330E0B5
:10308800167B017A937956909341E4F0A37402F089
:103098007F147E0012208FE51320E20302312A906C
:1030A8009356E0FEA3E04E7003122D2B7B017A921B
:1030B80079F1909341E4F0A37402F07F167E001238
:1030C800208F9092F1E0FEA3E04E6024E49092F10C
:1030D800F0A3F07B017A9279F1909325F0A3740222
:1030E800F07F167E001222FCE4909346F0A3F022B3
:1030F800909346E0FEA3E0C39458EE9402500B90E0
:103108009346E475F0011215EA22909346E0FEA377
:10311800E0B4580EEEB4020A909346E475F001123A
:1031280015EA22759401759502758E0075930075E0
:10313800C87075C96075F800787FE4F6D8FD7581A8
:103148001402318702384DE493A3F8E493A34003B3
:10315800F68001F208DFF48029E493A3F8540724E9
:103168000CC8C333C4540F4420C8834004F45680A9
:103178000146F6DFE4800B0102040810204080902D
:103188000100E47E019360BCA3FF543F30E509547D
:103198001FFEE493A360010ECF54C025E060A84051
:1031A800B8E493A3FAE493A3F8E493A3C8C582C848
:1031B800CAC583CAF0A3C8C582C8CAC583CADFE91D
:1031C800DEE780BE909308EFF0A3ECF0A3EDF0E407
:1031D800F5F1F5F275F30475F40175F88F30FCFD1F
:1031E800909308E0F5FA90930B1217AE7810121727
:1031F8009A8FFB90930B1217AE780812179A8FFCD0
:1032080090930B1217AEEF54FEFFE48FFDD2FE2011
:10321800FEFD909309E0FEA3E0EEF5FA909309E035
:10322800A3E054FEF5FB90930FE0FEA3E0EEF5FC5F
:1032380090930FE0A3E054FEF5FDD2FE20FEFDE4DE
:10324800F5F87F04FE1236762290933C12182F90E0
:10325800933FECF0A3EDF0A374FFF0A3F090933F3D
:1032680074FFF5F012160045F0604D90933CE4753C
:10327800F00112181812152BFF909341E06FFF9080
:103288009343E4F0A3EFF0909343E0FEA3E02469B6
:10329800F582748E3EF583E0FF909342E06F909341
:1032A80041F0909343E0A3E02469F582748F3EF5E2
:1032B80083E0909342F080A5909341E0FEA3E0FD67
:1032C800EEEDFF229092F7EEF0A3EFF09092F7E088
:1032D800FEA3E04E60659092F7E0A3E064014E70B3
:1032E800041236CF229092F7E0FEA3E064024E600B
:1032F8004A9092F7E0A3E064034E703FA3F09092E7
:10330800F9E0C3940674809480502DE025E025E010
:1033180024B9F582E43492F5831217AE9092F9E05D
:1033280025E025E024D9F582E43492F5831217C606
:103338009092F9E004F080C61238D0227BFF7A3AE6
:10334800791578F37C927D017E007F041215057B48
:10335800017A9279F3909341E4F0A37404F07F200A
:103368007EA412208F90924EE0FF7B017A9279F32F
:10337800123727EF600D12389190924EE09092B577
:10338800F080077F057E001238067E007F047D00EE
:103398007B017A9279F3121A357B017A9279F3904C
:1033A8009325E4F0A37404F07F207EA41222FC226B
:1033B8009092F3EEF0A3EFF09092F3E0FEA3E08E8C
:1033C800F012185E33DCA00033E5A0013402A0023D
:1033D8000000341D90924AE4F0A304F02290924A2F
:1033E800E0FEA3E064014E700990924AF0A37403D2
:1033F800F022E490924AF0A3F02290924AE0FEA3D1
:10340800E064034E70077FAA7EA41237BEE4909250
:103418004AF0A3F022E490924AF0A3F0229092F7A7
:10342800EEF0A3EFF0A3E4F0A3745AF09092F7E063
:10343800FEA3E0640E4E70219092F7E0A3E0FEE454
:103448002400FFEE34A0FE7B017A9279F99093254F
:10345800E4F0A37402F01222FC9092F7E0FEA3E0DD
:1034680064184E70219092F7E0A3E0FEE42400FF78
:10347800EE34A0FE7B017A9279F9909325E4F0A3CB
:103488007402F01222FC229092F3EEF0A3EFF09077
:1034980092F3E0A3E0FFA3E4F0A3EFF09092F3E04F
:1034A800FEA3E074209092F7EEF0A37420F09092BF
:1034B800F7E0FEA3E0FF7B017A9279F5909325E48B
:1034C800F0A37402F01222FC9092F5E4F0A3745A6F
:1034D800F0A3E0FEA3E02460FFE43EFE7B017A92C5
:1034E80079F5909325E4F0A37402F01222FC22905F
:1034F80092F3EEF0A3EFF09092F3E0A3E0FFA3E4E1
:10350800F0A3EFF09092F3E0FEA3E074229092F71C
:10351800EEF0A37422F09092F7E0FEA3E0FF7B01A7
:103528007A9279F5909325E4F0A37402F01222FCC4
:103538009092F5E4F0A3745AF0A3E0FEA3E02460AF
:10354800FFE43EFE7B017A9279F5909325E4F0A39F
:103558007402F01222FC22C0E0C083C082C0D07581
:10356800D000C006C007909345E4F0C2AF30983051
:10357800E599F0909105E0C3948074809480501E82
:10358800909345E0FF909105E0FE04F074062EF557
:1035980082E43491F583EFF09090787401F0C2984A
:1035A800309907C29990936AE4F0D2AFD007D00659
:1035B800D0D0D082D083D0E0329092F7EEF0A3EF53
:1035C800F09092F7E0FEA3E0D394D1EE94A45019C2
:1035D8009092F7E0A3E025E0FFEE33FE74122FF59A
:1035E8008274493EF583E0FF229092F7E0FEA3E063
:1035F800D394F3EE94A450199092F7E0A3E025E059
:10360800FFEE33FE74F22FF58274483EF583E0FF37
:10361800227F052290933C12182F90933FEDF07B68
:10362800007A007900C003C002C00190933C1218D0
:103638000FD082D083D0E06B7008E965827003EA0E
:103648006583602990933FE0602390933FE0FF14E7
:10365800F0EF601990933C12180F12152BFF1239D6
:103668008090933DE475F0011215EA80DD22909375
:1036780011EEF0A3EFF0E4F5F1909311E0FEA3E072
:10368800EEF5F2909311E0A3E0F5F3E4F5F4E4909D
:103698009311F0A3F0909311E0FEA3E0C394E8EE39
:1036A8009403500F85FCFB909311E475F0011215FB
:1036B800EA80E275F8AF30FCFDD2FE20FEFDE4F5AD
:1036C800F8AFFAEF70C8227E007F087D007B017A90
:1036D8009179D1121A357B017A9179D1909325E4A9
:1036E800F0A37408F07F007E301222FC9091D3E0A2
:1036F800FEA3E07803C333CE33CED8F92400FFEE1F
:103708003420FEE4FCFD90930B1217C690930FE44F
:10371800F0A37404F07D007C307FA51231CC229098
:1037280092F7EFF0A312182F9092F7E070037F0141
:10373800229092F7E075F004A424D9F9749235F038
:10374800FA7B01C003C002C001A312180FA801AC84
:1037580002AD03D001D002D0037E007F04121A11FB
:10376800EF3395E04F70037F01227F00229092F3A0
:10377800EEF0A3EFF09092F3E0FEA3E02410FFEE4A
:10378800345B90924CF0A3EFF09092F3E0A3E0FF4B
:103798001235C190924EEFF0909356E0FEA3E0FFF1
:1037A80090924FEEF0A3EFF09092B67401F07F0480
:1037B8007E00123806229092F5EEF0A3EFF0909278
:1037C800F5E0FEA3E02460FFEE345B9092B7F0A32F
:1037D800EFF0909356E0FEA3E0FF90924FEEF0A337
:1037E800EFF09092F5E0FEA3E0FF1235C190924E03
:1037F800EFF0E49092B6F07F04FE12380622909320
:1038080008EEF0A3EFF07BFF7A3A7911780A7C93FF
:103818007D017E007F04121505909308E0FEA3E069
:10382800EE90930CF0909308A3E090930DF07B0139
:103838007A93790A909325E4F0A37404F07F847E48
:10384800001222FC221239971239BFE50A30E01C17
:10385800431301E50A30E103431302E50A30E203AA
:10386800431304530AFE530AFD530AFB43C90112CA
:10387800256812308412274FE51330E0CE5313FE2B
:103888005313FD5313FB80C3229092B6E0121838ED
:1038980038A20038B901000038CF9092B7E0FEA3F3
:1038A800E0FF1238069092B7E0FEA3E0FF1234253D
:1038B8002290924CE0FEA3E0FF1232CC90924FE0AF
:1038C800FEA3E0FF123806227B017A9279D9909301
:1038D80025E4F0A37414F07F007E301222FC90934C
:1038E8000B1217D20000300090930FE4F0A3740A73
:1038F800F07D007C307FA51231CC22E4909105F058
:10390800909078F0FE7F80FD7B017A917906121AFB
:1039180035E4909073F09091861217D20000000061
:103928002275F901E4F5A8F5B8F59AF5A9F5B9F500
:1039380080F590F5A0F5B075B750F5BCF5BDF5BEAE
:103948002243B71043C940E490936AF075D8807554
:10395800985053877F75BA0375AA58D29CD2AC2267
:1039680075F90175B70375BC03E4F5BD75BE0CF5B3
:1039780080F590F5A0F5B022909340EFF090936A0F
:10398800E0640160F87401F0909340E0F59922C278
:10399800AF1200261239681239D41239CD43C90240
:1039A800D2AF2275C870E4F5CDF5CC75CBFF75CADA
:1039B800EF43A820D2C8221239039090741217D26C
:1039C80000000000221200E81239AB221239492205
:1039D800C2C6320000000000000000000000000025
:1039E80000000000000000000000000000000000CF
:1039F80000000000000000000000000000000000BF
:103A08000000000000000000005A01000000000053
:013A180000AD
:00000001FF
