:100000000231A6020006C2AFD2AF32022B17C2AF36
:10001000D2AF3202000E9092C9E0FEA3E0FF123888
:0200200081223B
:070023000235DA1239A422B4
:10002B00023A537B017A93796D9093BBE4F0A374FE
:10003B0010F07F207EA612210A90936DE0A3E0259D
:10004B00E025E02457F582E43493F58312182990C8
:10005B009371121835C312180460087F077E0012C3
:10006B00388122909379121829909375121835C301
:10007B0012180460087F087E001238812290937555
:10008B0012182990936DE0A3E025E025E02457F5A5
:10009B0082E43493F58312184112394BE490938127
:1000AB00F0909381E0C3940A748094805018E025FB
:1000BB00E0246DF582E43493F583E4F0A3F09093A0
:1000CB0081E004F080DB7B017A93796D90939FE460
:1000DB00F0A3740CF07F227EA612237722438901B2
:0B00EB00758CBC758ACDD2A9D28C2286
:1000F800FFFF4457494E54354293D000004293C6FF
:1001080000004893C80069005A003C00154293C09B
:1001180000004293C2000E4293C400005A92043F6A
:10012800C900690046000086000A2D2D203A3A00D1
:100138000000000000000000005A921E3FCC01277A
:100148000046000086000A2D2D2F3A3A00000000D4
:100158000000000000005A92AA3FD0021200460098
:10016800000212004602DA00640010001718180294
:10017800000000603C926E400040A04140401040AA
:10018800B04150402040C04160403040D0417040B4
:100198004040E04180405040F04190406041004183
:1001A800A04070411041B04080412041C040904182
:1001B8003041D054925A41E041F84210422842401E
:1001C80042584270428842A042B848924B00000010
:1001D8000000000000429253000042925800004282
:1001E800925500004192570041924A0042923800CD
:1001F80005498000B2E2CAD4BABAD7D6006E608088
:100208000949443030BBD8B7E7B8DFCEC200000098
:1002180000000000000000000000000000000000D6
:100228000049443031BBD8B7E7B5CDCEC200000095
:1002380000000000000000000000000000000000B6
:100248000049443032BBD8B7E7B8DFCAAA0000007B
:100258000000000000000000000000000000000096
:100268000049443033BBD8B7E7B8DFCAAA0000005A
:100278000000000000000000000000000000000076
:100288000049443034CBCDB7E7B8DFCEC200000018
:100298000000000000000000000000000000000056
:1002A8000049443035CBCDB7E7B5CDCEC20000000C
:1002B8000000000000000000000000000000000036
:1002C8000049443036CBCDB7E7B8DFCAAA000000F2
:1002D8000000000000000000000000000000000016
:1002E8000049443037CBCDB7E7B5CDCAAA000000E6
:1002F80000000000000000000000000000000000F6
:100308000049443038B1A3C1F400000000000000E7
:1003180000000000000000000000000000000000D5
:100328000049443039C4DAB2BFCDA8D0C5000000B6
:1003380000000000000000000000000000000000B5
:1003480000494431304E5443D2ECB3A300000000BE
:100358000000000000000000000000000000000095
:100368000049443131B7E7BBFA31B9CAD5CF0000EB
:100378000000000000000000000000000000000075
:100388000049443132B7E7BBFA32B9CAD5CF0000C9
:100398000000000000000000000000000000000055
:1003A8000049443133B7E7BBFA33B9CAD5CF0000A7
:1003B8000000000000000000000000000000000035
:1003C8000049443134B7E7BBFA34B9CAD5CF000085
:1003D8000000000000000000000000000000000015
:1003E8000049443135B7E7BBFA35B9CAD5CF000063
:1003F80000000000000000000000000000000000F5
:100408000049443136CDE2B7E7BBFAB9CAD5CF00C7
:1004180000000000000000000000000000000000D4
:100428000049443137B7E7BBFA31D4CBD0D0B3ACAD
:10043800CAB1000000000000000000000000000039
:100448000049443138B7E7BBFA32D4CBD0D0B3AC8B
:10045800CAB1000000000000000000000000000019
:100468000049443139B7E7BBFA33D4CBD0D0B3AC69
:10047800CAB10000000000000000000000000000F9
:100488000049443230B7E7BBFA34D4CBD0D0B3AC50
:10049800CAB10000000000000000000000000000D9
:1004A8000049443231B7E7BBFA35D4CBD0D0B3AC2E
:1004B800CAB10000000000000000000000000000B9
:1004C8000049443232CDE2B7E7BBFAD4CBD0D0B33F
:1004D800ACCAB100000000000000000000000000ED
:1004E8000049443233B8DFD1B931B8E6BEAF0000B5
:1004F80000000000000000000000000000000000F4
:100508000049443234B8DFD1B931CBF8CBC0000050
:1005180000000000000000000000000000000000D3
:100528000049443235B5CDD1B931B8E6BEAF000087
:1005380000000000000000000000000000000000B3
:100548000049443236B5CDD1B931CBF8CBC0000023
:100558000000000000000000000000000000000093
:100568000049443237C5C5C6F8CEC2B6C831B8E668
:10057800BEAF000000000000000000000000000006
:100588000049443238C5C5C6F8CEC2B6C831CBF822
:10059800CBC00000000000000000000000000000C8
:1005A8000049443239B6CCD6DCC6DA31B8E6BEAF3B
:1005B8000000000000000000000000000000000033
:1005C8000049443330D1B9BBFA31D4CBD0D0B3AC25
:1005D800CAB1000000000000000000000000000098
:1005E8000049443331B8DFD1B932B8E6BEAF0000B4
:1005F80000000000000000000000000000000000F3
:100608000049443332B8DFD1B932CBF8CBC000004F
:1006180000000000000000000000000000000000D2
:100628000049443333B5CDD1B9D1B9C1A6B8E6BE76
:10063800AF00000000000000000000000000000003
:100648000049443334B5CDD1B932CBF8CBC0000022
:100658000000000000000000000000000000000092
:100668000049443335C5C5C6F8CEC2B6C832B8E667
:10067800BEAF000000000000000000000000000005
:100688000049443336C5C5C6F8CEC2B6C832CBF821
:10069800CBC00000000000000000000000000000C7
:1006A8000049443337B6CCD6DCC6DA32B8E6BEAF3A
:1006B8000000000000000000000000000000000032
:1006C8000049443338D1B9BBFA32D4CBD0D0B3AC1B
:1006D800CAB1000000000000000000000000000097
:1006E8000049443339BCD3CAAAC6F7B5E7C1F7B93C
:1006F800FDB4F3000000000000000000000000004E
:100708000049443430BCD3CAAAC6F7B8DFCBAECE52
:10071800BB00000000000000000000000000000016
:100728000049443431BCD3CAAAC6F7C8B1CBAE001D
:1007380000000000000000000000000000000000B1
:100748000049443432BCD3CAAAC6F7D4CBD0D0B3FC
:10075800ACCAB1000000000000000000000000006A
:100768000049443433BCD3C8C8C6F7B8E6BEAF00A6
:100778000000000000000000000000000000000071
:100788000049443434BCD3C8C8C6F731B3ACCAB185
:100798000000000000000000000000000000000051
:1007A8000049443435BCD3C8C8C6F732B3ACCAB163
:1007B8000000000000000000000000000000000031
:1007C8000049443436B6CFB5E7D6D8C6F4000000A1
:1007D8000000000000000000000000000000000011
:1007E8000049443437B5E7D4B4CFE0D0F2B4EDCE05
:1007F800F3000000000000000000000000000000FE
:100808000049443438B5E7D4B4C6B5C2CAC6ABB893
:10081800DF000000000000000000000000000000F1
:100828000049443439B5E7D4B4C6B5C2CAC6ABB575
:10083800CD000000000000000000000000000000E3
:10084800004944353041CFE0B9FDD1B9000000007E
:100858000000000000000000000000000000000090
:10086800004944353142CFE0B9FDD1B9000000005C
:100878000000000000000000000000000000000070
:10088800004944353243CFE0B9FDD1B9200000001A
:100898000000000000000000000000000000000050
:1008A800004944353341CFE0C7B7D1B90000000053
:1008B8000000000000000000000000000000000030
:1008C800004944353442CFE0C7B7D1B90000000031
:1008D8000000000000000000000000000000000010
:1008E800004944353543CFE0C7B7D1B9000000000F
:1008F80000000000000000000000000000000000F0
:10090800004944353641CFE0C8B1CFE000000000CF
:1009180000000000000000000000000000000000CF
:10092800004944353742CFE0C8B1CFE000000000AD
:1009380000000000000000000000000000000000AF
:10094800004944353843CFE0C8B1CFE0000000008B
:10095800000000000000000000000000000000008F
:100968000049443539C6F8C1F7B6AACAA7B8E6BEE1
:10097800AF000000000000000000000000000000C0
:100988000049443630B9FDC2CBCDF8D4CBD0D0B372
:10099800ACCAB10000000000000000000000000028
:1009A8000049443631B9FDC2CBCDF8B6C2B8E6BE6F
:1009B800AF00000000000000000000000000000080
:1009C8000049443632D4B6B3CCB9D8BBFAB8E6BE7F
:1009D800AF00000000000000000000000000000060
:1009E8000049443633D2E7CBAEB8E6BEAF000000CC
:1009F80000000000000000000000000000000000EF
:100A08000049443634C8BABFD8CDA8D0C5D2ECB353
:100A1800A30000000000000000000000000000002B
:100A28000049443635B1E4C6B5C6F7B9CAD5CF00D2
:100A380000000000000000000000000000000000AE
:100A48000049443636D7A2CBAEB5E7B5BCC2CAB862
:100A5800DF000000000000000000000000000000AF
:100A68000049443637D7A2CBAEB5E7B5BCC2CAB544
:100A7800CD000000000000000000000000000000A1
:100A88000049443638D1CCCEEDB8E6BEAF00000000
:100A9800000000000000000000000000000000004E
:100AA8000049443639D3C3BBA7D7D4B6A8D2E5B8D2
:100AB800E6BEAF00000000000000000000000000DB
:100AC8000049443730B5E7D4B4D2ECB3A3000000F2
:100AD800000000000000000000000000000000000E
:100AE8000049443731C8EBCBAEB8DFCEC2000000B6
:100AF80000000000000000000000000000000000EE
:100B08000049443732CBAEB7A7B9CAD5CF000000E9
:100B180000000000000000000000000000000000CD
:100B28000049443733C5CCB9DCB6CFC1F7B8E6BE07
:100B3800AF000000000000000000000000000000FE
:100B48000049443734B7E7BBFA36B9CAD5CF0000F5
:100B5800000000000000000000000000000000008D
:100B68000049443735B7E7BBFA37B9CAD5CF0000D3
:100B7800000000000000000000000000000000006D
:100B88000049443736B7E7BBFA38B9CAD5CF0000B1
:100B9800000000000000000000000000000000004D
:100BA8000049443737B7E7BBFA36B3ACCAB10000DF
:100BB800000000000000000000000000000000002D
:100BC8000049443738B7E7BBFA37B3ACCAB10000BD
:100BD800000000000000000000000000000000000D
:100BE8000049443739B7E7BBFA38B3ACCAB100009B
:100BF80000000000000000000000000000000000ED
:100C08000049443830C5C5CBAEB8DFCBAECEBB004B
:100C180000000000000000000000000000000000CC
:100C28000049443831BCD3CAAAC6F7D2ECB3A300F2
:100C380000000000000000000000000000000000AC
:100C48000049443832B7E7D1B9B9FDB5CD00000045
:100C5800000000000000000000000000000000008C
:100C68000049443833BAECCDE2BCD3CAAAB9FDC8AE
:100C7800C8000000000000000000000000000000A4
:100C88000049443834D1B9BBFA31B8DFD1B90000D2
:100C9800000000000000000000000000000000004C
:100CA8000049443835B7E7BBFAB5E7C1F7B9FDB431
:100CB800F300000000000000000000000000000039
:100CC8000049443836B8A8C2B7C8EBCBAEB8DFCEB7
:100CD800C20000000000000000000000000000004A
:100CE8000049443837454556B8E6BEAF0000000015
:100CF80000000000000000000000000000000000EC
:100D08000049443838BDD3CBAEC5CCD2E7CBAE0012
:100D180000000000000000000000000000000000CB
:100D28000049443839C5C5C6F8B8DFCEC20000004E
:100D380000000000000000000000000000000000AB
:100D48000049443930C9E8B1B8CAB9D3C3B3ACCA49
:100D5800B1000000000000000000000000000000DA
:100D68000049443931B1A3C1F4000000000000007B
:100D7800000000000000000000000000000000006B
:100D88000049443932B1A3C1F4000000000000005A
:100D9800000000000000000000000000000000004B
:100DA8000049443933B1A3C1F40000000000000039
:100DB800000000000000000000000000000000002B
:100DC8000049443934B1A3C1F40000000000000018
:100DD800000000000000000000000000000000000B
:100DE8000049443935B1A3C1F400000000000000F7
:100DF80000000000000000000000000000000000EB
:100E08000049443936B1A3C1F400000000000000D5
:100E180000000000000000000000000000000000CA
:100E28000049443937BBD8B7E7CEC2CAAAB6C8B456
:100E3800ABB8D0C6F70000000000000000000000BA
:100E48000049443938CBCDB7E7CEC2CAAAB6C8B430
:100E5800ABB8D0C6F700000000000000000000009A
:100E68000049443939BCD3CAAAB0E5D2ECB3A300CF
:100E7800000000000000000000000000000000006A
:100E8800004944313030C6C1C4BBD2D1CBF8B6A872
:100E9800000000000000000000000000000000004A
:100EA800004944313031D2BBCCECBDABCBF8B6A84D
:100EB800000000000000000000000000000000002A
:100EC800004944313032C8FDCCECBDABCBF8B6A8F4
:100ED800000000000000000000000000000000000A
:100EE800004944313033C6DFCCECBDABCBF8B6A8F3
:100EF80000000000000000000000000000000000EA
:100F0800004944313034CAAECEE5CCECBDABCBF8A9
:100F1800B6A800000000000000000000000000006B
:100F2800004944313035C8FDCAAECCECBDABCBF876
:100F3800B6A800000000000000000000000000004B
:100F4800004944313036B5E7D4B432CFE0D0F2B4FA
:100F5800ED0000000000000000000000000000009C
:100F6800004944313037B5E7D4B432C6B5C2CAB83F
:100F7800DF0000000000000000000000000000008A
:100F8800004944313038B5E7D4B432C6B5C2CAB521
:100F9800CD0000000000000000000000000000007C
:100FA800004944313039B5E7D4B43241CFE0B9FD16
:100FB800D1B900000000000000000000000000009F
:100FC800004944313130B5E7D4B43242CFE0B9FDFD
:100FD800D1B900000000000000000000000000007F
:100FE800004944313131B5E7D4B43243CFE0B9FDDB
:100FF800D1B900000000000000000000000000005F
:10100800004944313132B5E7D4B43241CFE0C7B7F3
:10101800D1B900000000000000000000000000003E
:10102800004944313133B5E7D4B43242CFE0C7B7D1
:10103800D1B900000000000000000000000000001E
:10104800004944313134B5E7D4B43243CFE0C7B7AF
:10105800D1B90000000000000000000000000000FE
:10106800004193E4004293D400004293D60000422A
:1010780093D200004493E0000000004293D800009F
:101088004493DA0000000002080000040B0000008E
:1010980000040F000000004293DE0000010A006116
:1010A800008E6900C1814001C0804101C0804100BB
:1010B800C1814001C0804100C1814000C18140011F
:1010C800C0804101C0804100C1814000C181400110
:1010D800C0804100C1814001C0804101C080410001
:1010E800C1814001C0804100C1814000C1814001EF
:1010F800C0804100C1814001C0804101C0804100E1
:10110800C1814000C1814001C0804101C0804100CF
:10111800C1814001C0804100C1814000C1814001BE
:10112800C0804101C0804100C1814000C1814001AF
:10113800C0804100C1814001C0804101C0804100A0
:10114800C1814000C1814001C0804101C08041008F
:10115800C1814001C0804100C1814000C18140017E
:10116800C0804100C1814001C0804101C080410070
:10117800C1814001C0804100C1814000C18140015E
:10118800C0804101C0804100C1814000C18140014F
:10119800C0804100C1814001C0804101C080410040
:1011A800C1814061008F6900C0C101C30302C2C68A
:1011B8000607C705C5C404CC0C0DCD0FCFCE0E0A4B
:1011C800CACB0BC90908C8D81819D91BDBDA1A1EEB
:1011D800DEDF1FDD1D1CDC14D4D515D71716D6D2BB
:1011E8001213D311D1D010F03031F133F3F232367B
:1011F800F6F737F53534F43CFCFD3DFF3F3EFEFA8B
:101208003A3BFB39F9F83828E8E929EB2B2AEAEECA
:101218002E2FEF2DEDEC2CE42425E527E7E62622FA
:10122800E2E323E12120E0A06061A163A3A262665A
:10123800A6A767A56564A46CACAD6DAF6F6EAEAACA
:101248006A6BAB69A9A86878B8B979BB7B7ABABE6A
:101258007E7FBF7DBDBC7CB47475B577B7B676723A
:10126800B2B373B17170B05090915193535292963A
:10127800565797559594549C5C5D9D5F9F9E5E5A0A
:101288009A9B5B99595898884849894B8B8A4A4E4A
:101298008E8F4F8D4D4C8C4484854587474686827A
:1012A8004243834181804041917F004190900044B6
:1012B80092000000000041908B0044908C000000D8
:1012C8000060E0909F5A010301C8010000A02000BF
:1012D8005000FF5A010301C8010000A0220053007A
:1012E800FF5A010304C8010000A023006500FF5A4B
:1012F800010301C8010000A027006E00FF5A010386
:1013080001C801000AAA23006700FF5A010305C8A3
:1013180001000AAA24006900FF5A010301C801005C
:101328000AAA29003500FF5A010601C803AA80AAA3
:10133800200016000A5A010601C803AA82AA220040
:1013480035000A5A010302C803AB00AB20001A009B
:101358000B5A010302C803AB00AB22002E000B5A44
:10136800010301C801000BAB24002C000B5A010635
:1013780001C803AB80AB20001A000B5A010601C854
:1013880003AB81AB21001B000B5A010601C803AB5C
:1013980082AB22002E000B5A010601C803AB83ABB7
:1013A80023002F000B4E9091000000000000000069
:1013B80000000000000041906A006020906B5A0B0A
:1013C800AB20AB50AB805A0BAB21AB51AB815A0B66
:1013D800AB22AB52AB825A0BAB23AB53AB834190DE
:1013E800690058935300000000000000000000004E
:1013F80000000000000000000000000000589333C7
:1014080000000000000A2997000A2D08000CF13B93
:101418000002C2460007ED6541932FFF606492CB3E
:101428000000010002000300040005000600070098
:10143800080009000A010B000C000D000E020F0045
:1014480010001100120313001400150016001700F5
:10145800180419001A001B001C001D001E001F00A4
:101468002000210022002300240025002600270058
:10147800280029002A002B002C002D002E002F0008
:101488003000310048934B00010103020303054279
:10149800933100004292C900004292C60000419276
:1014A800C8004292C4000000E709F608DFFA804647
:1014B800E709F208DFFA803E88828C83E709F0A307
:1014C800DFFA8032E309F608DFFA8078E309F208E8
:1014D800DFFA807088828C83E309F0A3DFFA8064E6
:1014E80089828A83E0A3F608DFFA805889828A8392
:1014F800E0A3F208DFFA804C80D280FA80C680D45C
:10150800806980F28033801080A680EA809A80A863
:1015180080DA80E280CA803389828A83ECFAE49395
:10152800A3C8C582C8CCC583CCF0A3C8C582C8CC23
:10153800C583CCDFE9DEE7800D89828A83E493A343
:10154800F608DFF9ECFAA9F0EDFB2289828A83EC30
:10155800FAE0A3C8C582C8CCC583CCF0A3C8C582AD
:10156800C8CCC583CCDFEADEE880DB89828A83E4E5
:1015780093A3F208DFF980CC88F0EF60010E4E608B
:10158800C388F0ED2402B4040050B9F582EB2402BC
:10159800B4040050AF232345822390150073BB0188
:1015A8000689828A83E0225002E722BBFE02E322F8
:1015B80089828A83E49322BB010CE58229F582E5BE
:1015C800833AF583E0225006E92582F8E622BBFE3D
:1015D80006E92582F8E222E58229F582E5833AF5D3
:1015E80083E49322BB010689828A83F0225002F7A2
:1015F80022BBFE01F322EF8DF0A4A8F0CF8CF0A45B
:1016080028CE8DF0A42EFE22BC000BBE0029EF8D43
:10161800F084FFADF022E4CCF875F008EF2FFFEE70
:1016280033FEEC33FCEE9DEC984005FCEE9DFE0F7E
:10163800D5F0E9E4CEFD22EDF8F5F0EE8420D21CD9
:10164800FEADF075F008EF2FFFED33FD4007985021
:1016580006D5F0F222C398FD0FD5F0EA22C5F0F8BE
:10166800A3E028F0C5F0F8E582158270021583E042
:1016780038F022A3F8E0C5F025F0F0E58215827075
:10168800021583E0C838F0E822BB010A89828A8300
:10169800E0F5F0A3E022500687F009E71922BBFE27
:1016A80007E3F5F009E3192289828A83E493F5F0C8
:1016B80074019322BB0110E58229F582E5833AF58E
:1016C80083E0F5F0A3E0225009E92582F886F008C6
:1016D800E622BBFE0AE92582F8E2F5F008E222E5F7
:1016E800832AF583E993F5F0A3E99322BB010A89DC
:1016F800828A83F0E5F0A3F0225006F709A7F019D3
:1017080022BBFE06F3E5F009F31922EF2BFFEE3AB0
:10171800FEED39FDEC38FC2275F008758200EF2FDC
:10172800FFEE33FECD33CDCC33CCC58233C5829B9F
:10173800ED9AEC99E58298400CF582EE9BFEED9AC5
:10174800FDEC99FC0FD5F0D6E4CEFBE4CDFAE4CC61
:10175800F9A88222B800C1B90059BA002DEC8BF063
:1017680084CFCECDFCE5F0CBF97818EF2FFFEE3320
:10177800FEED33FDEC33FCEB33FB10D7039940044B
:10178800EB99FB0FD8E5E4F9FA227818EF2FFFEE72
:1017980033FEED33FDEC33FCC933C910D7059BE9A3
:1017A8009A4007EC9BFCE99AF90FD8E0E4C9FAE4FF
:1017B800CCFB2275F010EF2FFFEE33FEED33FDCC9E
:1017C80033CCC833C810D7079BEC9AE899400AED88
:1017D8009BFDEC9AFCE899F80FD5F0DAE4CDFBE430
:1017E800CCFAE4C8F922EB9FF5F0EA9E42F0E99DB5
:1017F80042F0EC6480C864809845F022EB9FF5F0D5
:10180800EA9E42F0E99D42F0E89C45F022E860102B
:10181800ECA2E713FCED13FDEE13FEEF13FFD8F077
:1018280022E0FCA3E0FDA3E0FEA3E0FF22E0F8A392
:10183800E0F9A3E0FAA3E0FB22ECF0A3EDF0A3EEBD
:10184800F0A3EFF022A8828583F0D083D08212180B
:1018580064121864121864121864E473E493A3C53C
:1018680083C5F0C583C8C582C8F0A3C583C5F0C5C4
:1018780083C8C582C822A42582F582E5F03583F5A0
:101888008322E0FBA3E0FAA3E0F922F8E0FBA3A39C
:10189800E0F925F0F0E582158270021583E0FA3848
:1018A800F022EBF0A3EAF0A3E9F022D083D082F88B
:1018B800E4937012740193700DA3A393F8740193C9
:1018C800F5828883E4737402936860EFA3A3A3800E
:1018D800DFD083D082F8E4937012740193700DA363
:1018E800A393F8740193F5828883E473740293B523
:1018F800F0067403936860E9A3A3A3A380D8E3F573
:10190800F009E208B5F06BDFF58067E3F5F009E66A
:1019180008B5F05EDFF5805A87F009E608B5F052A1
:10192800DFF6804E87F009E208B5F046DFF6804220
:1019380088828C8387F009E0A3B5F036DFF6803221
:1019480088828C8387F009E493A3B5F025DFF580BE
:101958002188828C83E3F5F009E0A3B5F014DFF564
:10196800801088828C83E3F5F009E493A3B5F00234
:10197800DFF4021A35808780E9809080D4803E8029
:1019880015806E807E809D80B7808D80A380518079
:1019980074803C021A4189828A83ECFAE493F5F058
:1019A800A3C8C582C8CCC583CCE493A3C8C582C8E4
:1019B800CCC583CCB5F076DFE3DEE1807089828A1E
:1019C80083E493F5F0A3E208B5F062DFF4805E8962
:1019D800828A83E0F5F0A3E608B5F051DFF5804D83
:1019E80089828A83E0F5F0A3E208B5F040DFF5804C
:1019F8003C89828A83E493F5F0A3E608B5F02EDFEC
:101A0800F4802A8002805789828A83ECFAE493F56D
:101A1800F0A3C8C582C8CCC583CCE0A3C8C582C81A
:101A2800CCC583CCB5F006DFE4DEE280007FFFB5ED
:101A3800F0020F2240027F012289828A83ECFAE0B9
:101A4800F5F0A3C8C582C8CCC583CCE0A3C8C582BD
:101A5800C8CCC583CCB5F0D5DFE5DEE380CF89827D
:101A68008A83ECFAE0F5F0A3C8C582C8CCC583CC5C
:101A7800E493A3C8C582C8CCC583CCB5F0AFDFE476
:101A8800DEE280A988F0EF60010E4E60ABED240223
:101A9800B404005098F582EB2402B40400508E235D
:101AA8002345822390197D73EF4E6012EF60010E7B
:101AB800EDBB010B89828A83F0A3DFFCDEFA228961
:101AC800F05007F709DFFCA9F022BBFEFCF309DFA1
:101AD800FCA9F022F8BB010DE58229F582E5833ADD
:101AE800F583E8F0225006E92582C8F622BBFE05F8
:101AF800E92582C8F2229093701218AA909373EC89
:101B0800F0A3EDF0E4A3F0A3F0909373E0FEA3E05C
:101B1800FFA3E0FCA3E0C39FEC9E500C909375E4F8
:101B280075F00112166580E1909373E0FEA3E0C39F
:101B38009405EE94005003021E77E4A3F0A3F090FE
:101B4800937012188A909375E0FEA3E0F5828E8355
:101B58001215BF64016003021E5190937012188A17
:101B6800909375E0A3E029F9EA3EFA900001121576
:101B7800BF1218B31B89031CD8061D9A1000001E3B
:101B88005190937012188A909375E0FEA3E029F99A
:101B9800EA3EFA9000021215BFFF909379E4F0A391
:101BA800EFF0909375E0A3E0FF909379E0FCA3E059
:101BB8002FFFEC3EFEEF2405FFE43EFE909373E01A
:101BC800FCA3E0FDD3EF9DEE9C4011909373E0FEE3
:101BD800A3E0FFA3EEF0A3EFF0021E519093701262
:101BE800188A909375E0FEA3E029F9EA3EFA9093EB
:101BF80079E0FEA3E02403FDE43EFC1232CC90938E
:101C080077EEF0A3EFF090937012188A909375E036
:101C1800FEA3E029F9EA3EFA909379E0FEA3E029D1
:101C2800F9EA3EFA9000031215BFFD909377E0FEA3
:101C3800A3E0EE6D7001E46003021E5190937012F0
:101C4800188A909375E0FEA3E029F9EA3EFA90938A
:101C580079E0FEA3E029F9EA3EFA9000041215BFE4
:101C6800FF909377E0A3E06F7001E46003021E51D8
:101C7800909099E0FEA3E0FF90937012188A9093D9
:101C880075E0FCA3E029F9EA3CFAE92403F9E43A0F
:101C9800FA909379E0FCA3E0FD90939FECF0A3ED1C
:101CA800F01223777E007F0E7D007B017A90799178
:101CB800121AB0909379E0FEA3E02405FFE43E9069
:101CC8009375F0A3EFF0909069E04402F0021E5182
:101CD800909375E0FEA3E02408FFE43EFE90937322
:101CE800E0FCA3E0FDD3EF9DEE9C4011909373E0E0
:101CF800FEA3E0FFA3EEF0A3EFF0021E5190937055
:101D080012188A909375E0FEA3E029F9EA3EFA7D5D
:101D1800067C001232CC909377EEF0A3EFF090930C
:101D28007012188A909375E0FEA3E029F9EA3EFA4A
:101D38009000061215BFFD909377E0FEA3E0EE6DCC
:101D48007001E46003021E5190937012188A9093F8
:101D580075E0FEA3E029F9EA3EFA9000071215BFE4
:101D6800FF909377E0A3E06F7001E46003021E51D7
:101D780090937575F0081216657E007F0E7D007BC6
:101D8800017A907991121AB0909069E04402F002B9
:101D98001E51909375E0FEA3E02408FFE43EFE90F8
:101DA8009373E0FCA3E0FDD3EF9DEE9C401190936C
:101DB80073E0FEA3E0FFA3EEF0A3EFF0021E519044
:101DC800937012188A909375E0FEA3E029F9EA3E11
:101DD800FA7D067C001232CC909377EEF0A3EFF0F8
:101DE80090937012188A909375E0FEA3E029F9EA9F
:101DF8003EFA9000061215BFFD909377E0FEA3E02F
:101E0800EE6D7001E4704290937012188A90937589
:101E1800E0FEA3E029F9EA3EFA9000071215BFFF99
:101E2800909377E0A3E0B50720E490937575F008E8
:101E38001216657E007F0E7D007B017A90799112E3
:101E48001AB0909069E04402F0909375E475F0013F
:101E5800121665909373E0FEA3E024FBFFEE34FFB7
:101E6800FEA3E0FCA3E0C39FEC9E5003021B4722A5
:101E78009093701218AA90937012188A1215A6904F
:101E88009373F0909373E0C394107480948040032C
:101E98000220FAE075F00EA4249FF582E43490F550
:101EA80083E0645A60030220F1909373E075F00EAA
:101EB800A424A2F582E43490F583E070030220F1B3
:101EC800909373E075F00EA424A4F582E43490F5A1
:101ED80083E070030220FA909373E075F00EA42457
:101EE800A4F582E43490F583E06401702D90937337
:101EF800E075F00EA424A5F582E43490F583E0FEA5
:101F0800A3E0FF9093D0E0FCA3E06F7002EC6E605A
:101F1800030220F10220FA0220F1909373E075F099
:101F28000EA424A4F582E43490F583E064026003EF
:101F3800021FF7909373E075F00EA424A5F582E4D0
:101F48003490F583E0FEA3E0FF7B017A93797490E7
:101F580093BBE4F0A37402F012210A909374E0A3F7
:101F6800E0645A60030220F1909373E0C3940F7405
:101F78008094805048E075F00EA424B2F582E434D1
:101F880090F583E064027035909373E075F00EA4C9
:101F980024B3F582E43490F583E0FEA3E0FF909348
:101FA80073E075F00EA424A5F582E43490F583E07F
:101FB800FCA3E06F7002EC6E70030220FAE49093C9
:101FC80074F0A3F0909373E075F00EA424A5F58245
:101FD800E43490F583E0FEA3E0FF7B017A93797403
:101FE80090939FE4F0A37402F01223770220FA90F2
:101FF8009373E075F00EA424A4F582E43490F5837D
:10200800E0640360030220F1909373E075F00EA47E
:1020180024ABF582E43490F583E0FEA3E0FF9093CF
:10202800D0E0FCA3E0FDEF6D7002EE6C60030220CF
:10203800F1909373E075F00EA424A5F582E4349032
:10204800F583E0FEA3E0FF7B017A9379749093BB5C
:10205800E4F0A37402F012210A909374E0A3E06400
:102068005A60030220F1909373E0C3940F74809434
:10207800805045E075F00EA424B2F582E43490F562
:1020880083E064037032909373E075F00EA424B378
:10209800F582E43490F583E0FEA3E0FF909373E0CB
:1020A80075F00EA424A5F582E43490F583E0FCA332
:1020B800E06F7002EC6E603AE4909374F0A3F090D5
:1020C8009373E075F00EA424A5F582E43490F583AB
:1020D800E0FEA3E0FF7B017A93797490939FE4F08C
:1020E800A37402F01223778009909373E004F0023E
:1020F8001E8B909373E0FF90937012188AEF12155D
:10210800EC229093B6EEF0A3EFF0A31218AA7B008E
:102118007A007900C003C002C0019093B812188AEF
:10212800D082D083D0E06B7008E965827003EA65DD
:102138008370030223769093BBE0FEA3E04E700306
:102148000223769093BBE0A3E0FFEEC313FEEF13E8
:10215800FF9093B6E0FCA3E02FFFEE3CFED3EF9494
:10216800FEEE94FF4003022376C2AF9093B6E0A33D
:10217800E054019093BDF09093B6E0FEA3E0FFEE2B
:10218800C313FEEF13FF9093B6EEF0A3EFF0909316
:10219800B6E0FEA3E07810CEC313CE13D8F9F5F15C
:1021A8009093B6E0FEA3E0EEF5F29093B6E0A3E0DC
:1021B800F5F3E4F5F875F401D2FF30FCFDD2FD909B
:1021C80093BDE0640170729093BBE0FEA3E06401EC
:1021D8004E700AC2FBC2FAD2F9C2F88008C2FBC22A
:1021E800FAD2F9D2F8D2FE20FEFD9093BBE0FEA30E
:1021F800E064014E701A9093B875F001121893E5D7
:10220800FC1215EC9093BB74FFF5F012166580294B
:102218009093B8E475F001121893E5FC1215EC9050
:1022280093B8E475F001121893E5FD1215EC90933C
:10223800BB74FF75F0FE1216659093BBE0FEA3E039
:102248004E70030223719093BBE0A3E0C39404EEA5
:102258009400400302231A9093BBE0A3E08EF0128F
:1022680018D9228E000122840002227A000300007D
:102278002296D2FBD2FAD2F9C2F88012D2FBD2FA55
:10228800C2F9C2F88008D2FBC2FAC2F9C2F8D2FE7B
:1022980020FEFD9093BBE0FEA3E08EF01218D92338
:1022A80007000122E7000222B70003000023719013
:1022B80093B8E475F001121893E5FA1215EC9093AF
:1022C800B8E475F001121893E5FB1215EC9093B879
:1022D800E475F001121893E5FC1215EC02237190D5
:1022E80093B8E475F001121893E5FA1215EC90937F
:1022F800B8E475F001121893E5FB1215EC806A90AA
:1023080093B8E475F001121893E5FA1215EC8059A8
:102318008057D2FBD2FAD2F9D2F8D2FE20FEFD9035
:1023280093B8E475F001121893E5FA1215EC90933E
:10233800B8E475F001121893E5FB1215EC9093B808
:10234800E475F001121893E5FC1215EC9093B8E4CB
:1023580075F001121893E5FD1215EC9093BB74FF0C
:1023680075F0FC121665022241E4F5F8D2AF22900E
:10237800939AEEF0A3EFF0A31218AA7B007A0079E3
:1023880000C003C002C00190939C12188AD082D06A
:1023980083D0E06B7008E965827003EA6583700397
:1023A8000225E290939FE0FEA3E04E70030225E22F
:1023B80090939FE0A3E0FFEEC313FEEF13FF90930B
:1023C8009AE0FCA3E02FFFEE3CFED3EF94FEEE94E0
:1023D800FF40030225E2C2AF90939AE0A3E05401C4
:1023E8009093A1F090939AE0FEA3E0FFEEC313FE52
:1023F800EF13FF90939AEEF0A3EFF090939AE0FE1C
:10240800A3E07810CEC313CE13D8F9F5F190939AC0
:10241800E0FEA3E0EEF5F290939AE0A3E0F5F3E492
:10242800F5F875F401D2FF30FCFDC2FD9093A1E0F0
:102438006401707290939FE0FEA3E064014E700AFD
:10244800C2FBC2FAD2F9C2F88008C2FBC2FAD2F9BA
:10245800D2F890939FE0FEA3E064014E701A909327
:102468009C75F0011218931215A6F5FC90939F74B1
:10247800FFF5F0121665802990939CE475F001121F
:1024880018931215A6F5FC90939CE475F0011218A8
:10249800931215A6F5FD90939F74FF75F0FE121622
:1024A80065D2FE20FEFD90939FE0FEA3E04E7003F0
:1024B8000225DD90939FE0A3E0C39404EE940040CE
:1024C8000302258690939FE0A3E08EF01218D9248A
:1024D800FB000124F1000224E7000300002503D2D9
:1024E800FBD2FAD2F9C2F88012D2FBD2FAC2F9C2F0
:1024F800F88008D2FBC2FAC2F9C2F890939FE0FEB6
:10250800A3E08EF01218D9256E0001254E00022591
:102518001F00030000257D90939CE475F0011218BC
:10252800931215A6F5FA90939CE475F0011218938E
:102538001215A6F5FB90939CE475F00112189312FE
:1025480015A6F5FC802F90939CE475F00112189362
:102558001215A6F5FA90939CE475F00112189312DF
:1025680015A6F5FB800F90939CE475F00112189363
:102578001215A6F5FAD2FE30FE5B80FB8057D2FB1F
:10258800D2FAD2F9D2F890939CE475F0011218931C
:102598001215A6F5FA90939CE475F001121893129F
:1025A80015A6F5FB90939CE475F00112189312158B
:1025B800A6F5FC90939CE475F0011218931215A6E9
:1025C800F5FDD2FE20FEFD90939F74FF75F0FC127E
:1025D80016650224AEE4F5F8D2AF227B007A0079C2
:1025E8000090936B1218AA909090E0640160030227
:1025F800267A90908BE0FF90917FE0D39F4011E086
:1026080090908BF090920012184D000000008062AC
:1026180090908BE0FF90917FE06F7056FFFEFDFC7D
:10262800909200121835D312180440389092001274
:102638001835C3E50E9BFFE50D9AFEE50C99FDE5FF
:102648000B98FCE47B14FAF9F8C312180450237BA6
:10265800017A91798090917FE0FD7C00121AFE1238
:10266800397E800EAF0EAE0DAD0CAC0B9092001201
:102678001841909069E030E042E020E12990908C88
:10268800121835C3E50E9BFBE50D9AFAE50C99F98E
:10269800E50B98F8909095E0FFE4FCFDFEC3121856
:1026A8000450030227C9909069E030E106A3E004D2
:1026B800F0802F909069E054FEF02290908C1218D0
:1026C80035C3E50E9BFFE50D9AFEE50C99FDE50B7C
:1026D80098FCE47BF47A01F9F8D312180440030259
:1026E80027C990906AE07003122C6190908C1218A0
:1026F8004D00000000E4F50EF50DF50CF50B90907B
:1027080069E054FDF0E054FEF012397E7B017A90C6
:10271800796A121E7890906AE0C39410748094804D
:1027280040030227C4E075F00EA4249FF974903585
:10273800F0FA7B0178917C907D017E007F0E121566
:102748008012397E909093E0640370127B017A9036
:102758007991122ECC909069E04401F080549090C9
:1027680093E064067034909099E0FEA3E0FF7B014B
:102778007A93796E9093BBE4F0A37402F012210A65
:102788007B017A90799190936EE0FCA3E0FD122F83
:10279800E7909069E04401F08018909093E064100D
:1027A80070107B017A907991122982909069E044A7
:1027B80001F0E4F50EF50DF50CF50B22E490906AA6
:1027C800F022E490936BF0A3F0E51320E0030229D4
:1027D800817B017A93796B9093BBE4F0A37402F048
:1027E8007F147E5012210A90936BE0FEA3E04E7096
:1027F8000302298190936BE0A3E08EF01218D92987
:1028080040A0002940A0012940A0022917A40029BE
:102818001CA4012921A4A02921A4A12921A4A22919
:1028280021A4A32921A4A42921A4A52921A4A62956
:1028380021A4A72921A4A82921A4A92921A4AA2936
:1028480021A4AB2921A4AC2921A4AD2921A4AE2916
:1028580021A4AF2921A4B02921A4B12921A4B229F6
:1028680021A4B32921A4B42921A4B52921A4B629D6
:1028780021A4B72921A4B82921A4B92921A4BA29B6
:1028880021A4BB2921A4BC2921A4BD2921A4BE2996
:1028980021A4BF2921A4C02921A4C12921A4C22976
:1028A80021A4C32921A4C42921A4C52921A4C62956
:1028B80021A4C72921A4C82921A4C92921A4CA2936
:1028C80021A4CB2921A4CC2921A4CD2921A4CE2916
:1028D80021A4CF2921A4D02921A4D1292EA4F029CB
:1028E8002EA4F1292EA4F2292EA4F3293BA600290F
:1028F80065A601294DAA01295AAA21295AAA2229DD
:102908005AAA23295AAA24295AAA25000029651255
:1029180033BF8049120016804490936BE0FEA3E019
:10292800FF123839803790936BE0FEA3E0FF12372F
:10293800F0802A12002E802590936BE0FEA3E0FF22
:10294800123433801890936BE0FEA3E0FF123572C7
:10295800800B90936BE0FEA3E0FF12350AE490939E
:102968006BF0A3F07B017A93796B90939FF0A3743B
:1029780002F07F147E50122377229093701218AAC7
:10298800E4909375F090937012188A9000011215D4
:10299800BFFF909375E0FE04F074762EF582E43460
:1029A80093F583EFF0909375E0FF04F074762FF5BC
:1029B80082E43493F5837410F090937012188A901F
:1029C800000A1216BCE5F0FF909375E0FE04F0745F
:1029D800762EF582E43493F583EFF0909370121815
:1029E8008A90000A1216BCFF909375E0FE04F074FA
:1029F800762EF582E43493F583EFF09093701218F5
:102A08008A9000031215BFFFE4909375E0FE04F06E
:102A180074762EF582E43493F583E4F09093701283
:102A2800188A9000031215BFFF909375E0FE04F01A
:102A380074762EF582E43493F583EFF09093701258
:102A4800188A9000031215BF25E0FF909375E0FEE9
:102A580004F074762EF582E43493F583EFF09090C9
:102A680099E0FEA3E0FFC006C007909375E02476C6
:102A7800F9E43493FA7B01C003C002C0019093705B
:102A880012188A9000031215BF75F002A4FF9093E4
:102A9800BBE5F0F0A3EFF0D001D002D003D007D00F
:102AA8000612210A90937012188A9000031215BF1B
:102AB80025E0FF909375E02FF07B017A937976E01B
:102AC800FD7C001232CC909373EEF0A3EFF090935C
:102AD80073E0FEA3E0EEFFA3E0FE04F074762EF5AB
:102AE80082E43493F583EFF0909373E0A3E0FFA3BF
:102AF800E0FE04F074762EF582E43493F583EFF06B
:102B08007B017A937976909375E0FD12369722C00F
:102B1800E0C0F0C083C082C0D075D000C000C00142
:102B2800C002C003C004C005C006C007C2AF758C90
:102B3800BC758ACD9093D4E475F001121665909314
:102B4800D4E0FEA3E0D394E8EE940340189093D425
:102B5800E4F0A3F0A375F0011216659093D2E47522
:102B6800F00112166543C9019093E0121829E47B1D
:102B780001FAF9F81217139093E01218419093D8BC
:102B8800E475F0011216659093DA121829E4F81228
:102B980017139093DA1218419093DEE0FEA3E0FF3A
:102BA800E4FCFD7BDC7AFFF8D31217EE400A909321
:102BB800DEE475F0011216650509E50970020508DD
:102BC800AF12AE11AD10AC0FE47B01FAF9F8121791
:102BD800138F128E118D108C0FAF0EAE0DAD0CAC85
:102BE8000BE41217138F0E8E0D8D0C8C0BE47B6487
:102BF800AF12AE11AD10AC0F12175CAC00AD01AE48
:102C080002AF03E4FBFAF9F8C31218047003430A8D
:102C180002E47BF47A01F9F8AF12AE11AD10AC0FF3
:102C280012175CAC00AD01AE02AF03E4FBFAF9F891
:102C3800C31218047003430A04430A01D2AFD00731
:102C4800D006D005D004D003D002D001D000D0D017
:102C5800D082D083D0F0D0E0327BFF7A3A795678B0
:102C6800707C937D017E007F28121580E4909398F4
:102C7800F0A3F0909398E0FEA3E0C39404EE9400D0
:102C88004003022DA5909398E0A3E07803C333CEC8
:102C980033CED8F9246CF58274903EF583E0FF902A
:102CA80093D0E0FCA3E0FDEF6D7001EC6003022D12
:102CB80098909398E0FEA3E07803C333CE33CED840
:102CC800F9246DF58274903EF583E0FEA3E0FF7B66
:102CD800017A9379709093BBE4F0A37402F0122107
:102CE8000A909398E0FEA3E07803C333CE33CED89E
:102CF800F9246FF58274903EF583E0FEA3E0FF7B34
:102D0800017A9379729093BBE4F0A37402F01221D4
:102D18000A909372E0FEA3E0FF909370E0FCA3E0BA
:102D28006F7002EC6E6069909398E0FEA3E0780300
:102D3800C333CE33CED8F9246FF58274903EF58331
:102D4800E0FEA3E0FF7B017A93797090939FE4F013
:102D5800A37402F0122377909374E4F0A3745AF0EA
:102D6800909398E0FEA3E07803C333CE33CED8F92E
:102D78002471F58274903EF583E0FEA3E0FF7B01A9
:102D88007A93797490939FE4F0A37402F0122377F6
:102D9800909398E475F001121665022C7B229093AB
:102DA800C4E475F001121665FEC3E5F09404EE94D0
:102DB800005003022ECBE49093C4F0A3F07B017A79
:102DC80093796D9093BBF0A37402F07F227EA012DA
:102DD800210A90936DE0FEA3E04E70089093C2F034
:102DE800A3740EF0E490936FF090936FE0C3940E89
:102DF800748094805070E0FF9093C2E0FCA3E0FDE3
:102E0800EF2DFFE43CFEEF2401FFE43EFE7C007D55
:102E18000E1216107E007401A805088005C333CE73
:102E280033CED8F9FF90936DE0FCA3E0FDEE5CFE95
:102E3800EF5D4E6029A3E0FF9093C2E0FCA3E0FDA4
:102E4800EF2DFFE43CFEEF2401FFE43EFE7C007D15
:102E58000E1216109093C2ECF0A3EDF08008909338
:102E68006FE004F080837B017A9379C290939FE4AA
:102E7800F0A37402F07FB07EA01223777B017A93CF
:102E8800796D9093BBE4F0A37402F07F207EA012CA
:102E9800210A90936DE0A3E030E3067E007F018075
:102EA800047E007F0090936DEEF0A3EFF07B017A33
:102EB80093796D90939FE4F0A37402F07F107EA045
:102EC800122377229093701218AAE4909375F090C9
:102ED800937012188A9000011215BFFF909375E045
:102EE800FE04F074762EF582E43493F583EFF090C7
:102EF8009375E0FF04F074762FF582E43493F5833C
:102F08007403F090937012188A90000A1216BCE5A8
:102F1800F0FF909375E0FE04F074762EF582E434A9
:102F280093F583EFF090937012188A90000A1216A6
:102F3800BCFF909375E0FE04F074762EF582E434BD
:102F480093F583EFF090937012188A90000312158E
:102F5800BFFFE4909375E0FE04F074762EF582E4EA
:102F68003493F583E4F090937012188A900003125A
:102F780015BFFF909375E0FE04F074762EF582E499
:102F88003493F583EFF07B017A937976909375E02B
:102F9800FD7C001232CC909373EEF0A3EFF0909387
:102FA80073E0FEA3E0EEFFA3E0FE04F074762EF5D6
:102FB80082E43493F583EFF0909373E0A3E0FFA3EA
:102FC800E0FE04F074762EF582E43493F583EFF096
:102FD8007B017A937976909375E0FD12369722906B
:102FE80093701218AA909373ECF0A3EDF0E4909309
:102FF80077F090937012188A9000011215BFFF9015
:103008009377E0FE04F074782EF582E43493F58328
:10301800EFF0909377E0FF04F074782FF582E434B2
:1030280093F5837406F090937012188A90000A1230
:1030380016BCE5F0FF909377E0FE04F074782EF567
:1030480082E43493F583EFF090937012188A90001D
:103058000A1216BCFF909377E0FE04F074782EF500
:1030680082E43493F583EFF0909373E0FEA3E0EEEF
:10307800FF909377E0FE04F074782EF582E43493A1
:10308800F583EFF0909373E0A3E0FF909377E0FE71
:1030980004F074782EF582E43493F583EFF07B0125
:1030A8007A937978909377E0FD7C001232CC9093F4
:1030B80075EEF0A3EFF0909375E0FEA3E0EEFFA3AA
:1030C800E0FE04F074782EF582E43493F583EFF093
:1030D800909375E0A3E0FFA3E0FE04F074782EF56A
:1030E80082E43493F583EFF07B017A9379789093B7
:1030F80077E0FD12369722E51330E0167B017A93CC
:1031080079D09093BBE4F0A37402F07F147E001290
:10311800210AE51320E2030231A59093D0E0FEA333
:10312800E04E7003122DA67B017A93796B9093BBC6
:10313800E4F0A37402F07F167E0012210A90936BCC
:10314800E0FEA3E04E6024E490936BF0A3F07B01D3
:103158007A93796B90939FF0A37402F07F167E00A8
:10316800122377E49093C0F0A3F0229093C0E0FE7E
:10317800A3E0C39458EE9402500B9093C0E475F00A
:1031880001121665229093C0E0FEA3E0B4580EEE3B
:10319800B4020A9093C0E475F00112166522759482
:1031A80001759502758E0075930075C87075C960B4
:1031B80075F800787FE4F6D8FD75811402320202B2
:1031C80038C8E493A3F8E493A34003F68001F20817
:1031D800DFF48029E493A3F85407240CC8C333C44C
:1031E800540F4420C8834004F456800146F6DFE4B7
:1031F800800B0102040810204080900100E47E0149
:103208009360BCA3FF543F30E509541FFEE493A329
:1032180060010ECF54C025E060A840B8E493A3FA3B
:10322800E493A3F8E493A3C8C582C8CAC583CAF0C7
:10323800A3C8C582C8CAC583CADFE9DEE780BE90D5
:103248009382EFF0A3ECF0A3EDF0E4F5F1F5F2755D
:10325800F30475F40175F88F30FCFD909382E0F566
:10326800FA90938512182978101218158FFB9093ED
:103278008512182978081218158FFC909385121852
:1032880029EF54FEFFE48FFDD2FE20FEFD909383CC
:10329800E0FEA3E0EEF5FA909383E0A3E054FEF598
:1032A800FB909389E0FEA3E0EEF5FC909389E0A300
:1032B800E054FEF5FDD2FE20FEFDE4F5F87F04FEA5
:1032C8001236F1229093B61218AA9093B9ECF0A393
:1032D800EDF0A374FFF0A3F09093B974FFF5F0122A
:1032E800167B45F0604D9093B6E475F00112189383
:1032F8001215A6FF9093BBE06FFF9093BDE4F0A377
:10330800EFF09093BDE0FEA3E02469F582748E3E51
:10331800F583E0FF9093BCE06F9093BBF09093BD72
:10332800E0A3E02469F582748F3EF583E09093BCB6
:10333800F080A59093BBE0FEA3E0FDEEEDFF2290A8
:103348009371EEF0A3EFF0909371E0FEA3E04E606E
:1033580065909371E0A3E064014E700412374A222D
:10336800909371E0FEA3E064024E604A909371E08E
:10337800A3E064034E703FA3F0909373E0C39406F8
:1033880074809480502DE025E025E02433F582E414
:103398003493F583121829909373E025E025E024EF
:1033A80053F582E43493F583121841909373E00443
:1033B800F080C612394B227BFF7A3A7990786D7C7F
:1033C800937D017E007F041215807B017A93796DCD
:1033D8009093BBE4F0A37404F07F207EA412210A2A
:1033E8009092C8E0FF7B017A93796D1237A2EF6063
:1033F8000D12390C9092C8E090932FF080077F054A
:103408007E001238817E007F047D007B017A9379EB
:103418006D121AB07B017A93796D90939FE4F0A3B3
:103428007404F07F207EA41223772290936DEEF02F
:10343800A3EFF090936DE0FEA3E08EF01218D9345C
:1034480057A0003460A001347DA002000034989099
:1034580092C4E4F0A304F0229092C4E0FEA3E064D6
:10346800014E70099092C4F0A37403F022E4909284
:10347800C4F0A3F0229092C4E0FEA3E064034E706F
:10348800077FAA7EA4123839E49092C4F0A3F022F0
:10349800E49092C4F0A3F022909371EEF0A3EFF0C1
:1034A800A3E4F0A3745AF0909371E0FEA3E0640ED5
:1034B8004E7021909371E0A3E0FEE42400FFEE3407
:1034C800A0FE7B017A93797390939FE4F0A3740232
:1034D800F0122377909371E0FEA3E064184E7021F8
:1034E800909371E0A3E0FEE42400FFEE34A0FE7B9D
:1034F800017A93797390939FE4F0A37402F01223F6
:10350800772290936DEEF0A3EFF090936DE0A3E037
:10351800FFA3E4F0A3EFF090936DE0FEA3E0742026
:10352800909371EEF0A37420F0909371E0FEA3E005
:10353800FF7B017A93796F90939FE4F0A37402F074
:1035480012237790936FE4F0A3745AF0A3E0FEA3DC
:10355800E02460FFE43EFE7B017A93796F90939FAD
:10356800E4F0A37402F01223772290936DEEF0A397
:10357800EFF090936DE0A3E0FFA3E4F0A3EFF090E9
:10358800936DE0FEA3E07422909371EEF0A3742291
:10359800F0909371E0FEA3E0FF7B017A93796F903E
:1035A800939FE4F0A37402F012237790936FE4F0F2
:1035B800A3745AF0A3E0FEA3E02460FFE43EFE7B80
:1035C800017A93796F90939FE4F0A37402F0122329
:1035D8007722C0E0C083C082C0D075D000C006C0CA
:1035E800079093BFE4F0C2AF309830E599F090911E
:1035F8007FE0C3948074809480501E9093BFE0FF56
:1036080090917FE0FE04F074802EF582E43491F509
:1036180083EFF09090907401F0C298309907C299A6
:103628009093E4E4F0D2AFD007D006D0D0D082D0C7
:1036380083D0E032909371EEF0A3EFF0909371E0B5
:10364800FEA3E0D394D1EE94A45019909371E0A313
:10365800E025E0FFEE33FE748C2FF58274493EF5C9
:1036680083E0FF22909371E0FEA3E0D394F3EE94FD
:10367800A45019909371E0A3E025E0FFEE33FE74A7
:103688006C2FF58274493EF583E0FF227F05229076
:1036980093B61218AA9093B9EDF07B007A007900DE
:1036A800C003C002C0019093B612188AD082D0839A
:1036B800D0E06B7008E965827003EA658360299041
:1036C80093B9E060239093B9E0FF14F0EF6019908C
:1036D80093B612188A1215A6FF1239FB9093B7E415
:1036E80075F00112166580DD2290938BEEF0A3EF42
:1036F800F0E4F5F190938BE0FEA3E0EEF5F2909301
:103708008BE0A3E0F5F3E4F5F4E490938BF0A3F0F9
:1037180090938BE0FEA3E0C394E8EE9403500F85EA
:10372800FCFB90938BE475F00112166580E275F846
:10373800AF30FCFDD2FE20FEFDE4F5F8AFFAEF70E5
:10374800C8227E007F087D007B017A92794B121A8D
:10375800B07B017A92794B90939FE4F0A37408F0C0
:103768007F007E3012237790924DE0FEA3E078032D
:10377800C333CE33CED8F92400FFEE3420FEE4FC68
:10378800FD909385121841909389E4F0A37404F096
:103798007D007C307FA512324722909371EFF0A311
:1037A8001218AA909371E070037F0122909371E040
:1037B80075F004A42453F9749335F0FA7B01C0031F
:1037C800C002C001A312188AA801AC02AD03D0013F
:1037D800D002D0037E007F04121A8CEF3395E04F9D
:1037E80070037F01227F002290936DEEF0A3EFF02B
:1037F80090936DE0FEA3E02410FFEE345B9092C638
:10380800F0A3EFF090936DE0A3E0FF12363C9092A6
:10381800C8EFF09093D0E0FEA3E0FF9092C9EEF0DD
:10382800A3EFF09093307401F07F047E001238818A
:103838002290936FEEF0A3EFF090936FE0FEA3E079
:103848002460FFEE345B909331F0A3EFF09093D0B7
:10385800E0FEA3E0FF9092C9EEF0A3EFF090936F23
:10386800E0FEA3E0FF12363C9092C8EFF0E490939C
:1038780030F07F04FE12388122909382EEF0A3EF9D
:10388800F07BFF7A3A798C78847C937D017E007F87
:1038980004121580909382E0FEA3E0EE909386F0E8
:1038A800909382A3E0909387F07B017A9379849038
:1038B800939FE4F0A37404F07F847E0012237722A0
:1038C800123A12123A3AE50A30E01C431301E50AAB
:1038D80030E103431302E50A30E203431304530AB9
:1038E800FE530AFD530AFB43C9011225E31230FFB8
:1038F8001227CAE51330E0CE5313FE5313FD5313BA
:10390800FB80C322909330E01218B3391D0039347C
:10391800010000394A909331E0FEA3E0FF1238819C
:10392800909331E0FEA3E0FF1234A0229092C6E00B
:10393800FEA3E0FF1233479092C9E0FEA3E0FF1216
:103948003881227B017A93795390939FE4F0A37492
:1039580014F07F007E3012237790938512184D0063
:10396800003000909389E4F0A3740AF07D007C3065
:103978007FA512324722E490917FF0909090F0FE5C
:103988007F80FD7B017A917980121AB0E490908B48
:10399800F090920012184D000000002275F901E421
:1039A800F5A8F5B8F59AF5A9F5B9F580F590F5A05B
:1039B800F5B075B750F5BCF5BDF5BE2243B7104359
:1039C800C940E49093E4F075D88075985053877F88
:1039D80075BA0375AA58D29CD2AC2275F90175B78D
:1039E8000375BC03E4F5BD75BE0CF580F590F5A034
:1039F800F5B0229093BAEFF09093E4E0640160F898
:103A08007401F09093BAE0F59922C2AF1200261221
:103A180039E3123A4F123A4843C902D2AF2275C865
:103A280070E4F5CDF5CC75CBFF75CAEF43A820D26D
:103A3800C82212397E90908C12184D000000002286
:103A48001200E8123A26221239C422C2C6320000F5
:103A5800000000000000000000000000000000005E
:103A6800000000000000000000000000000000004E
:103A7800000000000000000000000000000000003E
:0C3A8800000000005A01000000000000D7
:00000001FF
