:100000000231B9020006C2AFD2AF32022B2AC2AF10
:10001000D2AF3202000E909327E0FEA3E0FF123829
:02002000942228
:070023000235ED1239B7228E
:10002B00023A667B017A9379CB909419E4F0A3742E
:10003B0010F07F207EA6121ED69093CBE0A3E02576
:10004B00E025E024B5F582E43493F583121887900C
:10005B0093CF121893C312186260087F077E0012A9
:10006B003894229093D71218879093D3121893C376
:10007B0012186260087F087E00123894229093D386
:10008B001218879093CBE0A3E025E025E024B5F58B
:10009B0082E43493F58312189F12395EE49093DF58
:1000AB00F09093DFE0C3940A748094805018E0259D
:1000BB00E024CBF582E43493F583E4F0A3F0909342
:1000CB00DFE004F080DB7B017A9379CB9093FDE446
:1000DB00F0A3740CF07F227EA612214322438901E8
:0B00EB00758CBC758ACDD2A9D28C2286
:1000F800FFFF4457494E543542942E000042942441
:1001080000004894260069005A003C001542941EDD
:100118000000429420000E42942200005A92623F4E
:10012800C900690046000086000A2D2D203A3A00D1
:100138000000000000000000005A927C3FCC01271C
:100148000046000086000A2D2D2F3A3A00000000D4
:100158000000000000005A93083FD0021200460039
:10016800000212004602DA00640010001718180294
:10017800000000603C92CC400040A041404010404C
:10018800B04150402040C04160403040D0417040B4
:100198004040E04180405040F04190406041004183
:1001A800A04070411041B04080412041C040904182
:1001B8003041D05492B841E041F8421042284240C0
:1001C80042584270428842A042B84892A9000000B2
:1001D80000000000004292B100004292B6000042C6
:1001E80092B300004192B5004192A8004292960055
:1001F80005498000B2E2CAD4BABAD7D6006E608088
:100208000949443030BBD8B7E7B8DFCEC200000098
:1002180000000000000000000000000000000000D6
:100228000049443031BBD8B7E7B5CDCEC200000095
:1002380000000000000000000000000000000000B6
:100248000049443032BBD8B7E7B8DFCAAA0000007B
:100258000000000000000000000000000000000096
:100268000049443033BBD8B7E7B8DFCAAA0000005A
:100278000000000000000000000000000000000076
:100288000049443034CBCDB7E7B8DFCEC200000018
:100298000000000000000000000000000000000056
:1002A8000049443035CBCDB7E7B5CDCEC20000000C
:1002B8000000000000000000000000000000000036
:1002C8000049443036CBCDB7E7B8DFCAAA000000F2
:1002D8000000000000000000000000000000000016
:1002E8000049443037CBCDB7E7B5CDCAAA000000E6
:1002F80000000000000000000000000000000000F6
:100308000049443038B1A3C1F400000000000000E7
:1003180000000000000000000000000000000000D5
:100328000049443039C4DAB2BFCDA8D0C5000000B6
:1003380000000000000000000000000000000000B5
:1003480000494431304E5443D2ECB3A300000000BE
:100358000000000000000000000000000000000095
:100368000049443131B7E7BBFA31B9CAD5CF0000EB
:100378000000000000000000000000000000000075
:100388000049443132B7E7BBFA32B9CAD5CF0000C9
:100398000000000000000000000000000000000055
:1003A8000049443133B7E7BBFA33B9CAD5CF0000A7
:1003B8000000000000000000000000000000000035
:1003C8000049443134B7E7BBFA34B9CAD5CF000085
:1003D8000000000000000000000000000000000015
:1003E8000049443135B7E7BBFA35B9CAD5CF000063
:1003F80000000000000000000000000000000000F5
:100408000049443136CDE2B7E7BBFAB9CAD5CF00C7
:1004180000000000000000000000000000000000D4
:100428000049443137B7E7BBFA31D4CBD0D0B3ACAD
:10043800CAB1000000000000000000000000000039
:100448000049443138B7E7BBFA32D4CBD0D0B3AC8B
:10045800CAB1000000000000000000000000000019
:100468000049443139B7E7BBFA33D4CBD0D0B3AC69
:10047800CAB10000000000000000000000000000F9
:100488000049443230B7E7BBFA34D4CBD0D0B3AC50
:10049800CAB10000000000000000000000000000D9
:1004A8000049443231B7E7BBFA35D4CBD0D0B3AC2E
:1004B800CAB10000000000000000000000000000B9
:1004C8000049443232CDE2B7E7BBFAD4CBD0D0B33F
:1004D800ACCAB100000000000000000000000000ED
:1004E8000049443233B8DFD1B931B8E6BEAF0000B5
:1004F80000000000000000000000000000000000F4
:100508000049443234B8DFD1B931CBF8CBC0000050
:1005180000000000000000000000000000000000D3
:100528000049443235B5CDD1B931B8E6BEAF000087
:1005380000000000000000000000000000000000B3
:100548000049443236B5CDD1B931CBF8CBC0000023
:100558000000000000000000000000000000000093
:100568000049443237C5C5C6F8CEC2B6C831B8E668
:10057800BEAF000000000000000000000000000006
:100588000049443238C5C5C6F8CEC2B6C831CBF822
:10059800CBC00000000000000000000000000000C8
:1005A8000049443239B6CCD6DCC6DA31B8E6BEAF3B
:1005B8000000000000000000000000000000000033
:1005C8000049443330D1B9BBFA31D4CBD0D0B3AC25
:1005D800CAB1000000000000000000000000000098
:1005E8000049443331B8DFD1B932B8E6BEAF0000B4
:1005F80000000000000000000000000000000000F3
:100608000049443332B8DFD1B932CBF8CBC000004F
:1006180000000000000000000000000000000000D2
:100628000049443333B5CDD1B9D1B9C1A6B8E6BE76
:10063800AF00000000000000000000000000000003
:100648000049443334B5CDD1B932CBF8CBC0000022
:100658000000000000000000000000000000000092
:100668000049443335C5C5C6F8CEC2B6C832B8E667
:10067800BEAF000000000000000000000000000005
:100688000049443336C5C5C6F8CEC2B6C832CBF821
:10069800CBC00000000000000000000000000000C7
:1006A8000049443337B6CCD6DCC6DA32B8E6BEAF3A
:1006B8000000000000000000000000000000000032
:1006C8000049443338D1B9BBFA32D4CBD0D0B3AC1B
:1006D800CAB1000000000000000000000000000097
:1006E8000049443339BCD3CAAAC6F7B5E7C1F7B93C
:1006F800FDB4F3000000000000000000000000004E
:100708000049443430BCD3CAAAC6F7B8DFCBAECE52
:10071800BB00000000000000000000000000000016
:100728000049443431BCD3CAAAC6F7C8B1CBAE001D
:1007380000000000000000000000000000000000B1
:100748000049443432BCD3CAAAC6F7D4CBD0D0B3FC
:10075800ACCAB1000000000000000000000000006A
:100768000049443433BCD3C8C8C6F7B8E6BEAF00A6
:100778000000000000000000000000000000000071
:100788000049443434BCD3C8C8C6F731B3ACCAB185
:100798000000000000000000000000000000000051
:1007A8000049443435BCD3C8C8C6F732B3ACCAB163
:1007B8000000000000000000000000000000000031
:1007C8000049443436B6CFB5E7D6D8C6F4000000A1
:1007D8000000000000000000000000000000000011
:1007E8000049443437B5E7D4B4CFE0D0F2B4EDCE05
:1007F800F3000000000000000000000000000000FE
:100808000049443438B5E7D4B4C6B5C2CAC6ABB893
:10081800DF000000000000000000000000000000F1
:100828000049443439B5E7D4B4C6B5C2CAC6ABB575
:10083800CD000000000000000000000000000000E3
:10084800004944353041CFE0B9FDD1B9000000007E
:100858000000000000000000000000000000000090
:10086800004944353142CFE0B9FDD1B9000000005C
:100878000000000000000000000000000000000070
:10088800004944353243CFE0B9FDD1B9200000001A
:100898000000000000000000000000000000000050
:1008A800004944353341CFE0C7B7D1B90000000053
:1008B8000000000000000000000000000000000030
:1008C800004944353442CFE0C7B7D1B90000000031
:1008D8000000000000000000000000000000000010
:1008E800004944353543CFE0C7B7D1B9000000000F
:1008F80000000000000000000000000000000000F0
:10090800004944353641CFE0C8B1CFE000000000CF
:1009180000000000000000000000000000000000CF
:10092800004944353742CFE0C8B1CFE000000000AD
:1009380000000000000000000000000000000000AF
:10094800004944353843CFE0C8B1CFE0000000008B
:10095800000000000000000000000000000000008F
:100968000049443539C6F8C1F7B6AACAA7B8E6BEE1
:10097800AF000000000000000000000000000000C0
:100988000049443630B9FDC2CBCDF8D4CBD0D0B372
:10099800ACCAB10000000000000000000000000028
:1009A8000049443631B9FDC2CBCDF8B6C2B8E6BE6F
:1009B800AF00000000000000000000000000000080
:1009C8000049443632D4B6B3CCB9D8BBFAB8E6BE7F
:1009D800AF00000000000000000000000000000060
:1009E8000049443633D2E7CBAEB8E6BEAF000000CC
:1009F80000000000000000000000000000000000EF
:100A08000049443634C8BABFD8CDA8D0C5D2ECB353
:100A1800A30000000000000000000000000000002B
:100A28000049443635B1E4C6B5C6F7B9CAD5CF00D2
:100A380000000000000000000000000000000000AE
:100A48000049443636D7A2CBAEB5E7B5BCC2CAB862
:100A5800DF000000000000000000000000000000AF
:100A68000049443637D7A2CBAEB5E7B5BCC2CAB544
:100A7800CD000000000000000000000000000000A1
:100A88000049443638D1CCCEEDB8E6BEAF00000000
:100A9800000000000000000000000000000000004E
:100AA8000049443639D3C3BBA7D7D4B6A8D2E5B8D2
:100AB800E6BEAF00000000000000000000000000DB
:100AC8000049443730B5E7D4B4D2ECB3A3000000F2
:100AD800000000000000000000000000000000000E
:100AE8000049443731C8EBCBAEB8DFCEC2000000B6
:100AF80000000000000000000000000000000000EE
:100B08000049443732CBAEB7A7B9CAD5CF000000E9
:100B180000000000000000000000000000000000CD
:100B28000049443733C5CCB9DCB6CFC1F7B8E6BE07
:100B3800AF000000000000000000000000000000FE
:100B48000049443734B7E7BBFA36B9CAD5CF0000F5
:100B5800000000000000000000000000000000008D
:100B68000049443735B7E7BBFA37B9CAD5CF0000D3
:100B7800000000000000000000000000000000006D
:100B88000049443736B7E7BBFA38B9CAD5CF0000B1
:100B9800000000000000000000000000000000004D
:100BA8000049443737B7E7BBFA36B3ACCAB10000DF
:100BB800000000000000000000000000000000002D
:100BC8000049443738B7E7BBFA37B3ACCAB10000BD
:100BD800000000000000000000000000000000000D
:100BE8000049443739B7E7BBFA38B3ACCAB100009B
:100BF80000000000000000000000000000000000ED
:100C08000049443830C5C5CBAEB8DFCBAECEBB004B
:100C180000000000000000000000000000000000CC
:100C28000049443831BCD3CAAAC6F7D2ECB3A300F2
:100C380000000000000000000000000000000000AC
:100C48000049443832B7E7D1B9B9FDB5CD00000045
:100C5800000000000000000000000000000000008C
:100C68000049443833BAECCDE2BCD3CAAAB9FDC8AE
:100C7800C8000000000000000000000000000000A4
:100C88000049443834D1B9BBFA31B8DFD1B90000D2
:100C9800000000000000000000000000000000004C
:100CA8000049443835B7E7BBFAB5E7C1F7B9FDB431
:100CB800F300000000000000000000000000000039
:100CC8000049443836B8A8C2B7C8EBCBAEB8DFCEB7
:100CD800C20000000000000000000000000000004A
:100CE8000049443837454556B8E6BEAF0000000015
:100CF80000000000000000000000000000000000EC
:100D08000049443838BDD3CBAEC5CCD2E7CBAE0012
:100D180000000000000000000000000000000000CB
:100D28000049443839C5C5C6F8B8DFCEC20000004E
:100D380000000000000000000000000000000000AB
:100D48000049443930C9E8B1B8CAB9D3C3B3ACCA49
:100D5800B1000000000000000000000000000000DA
:100D68000049443931B1A3C1F4000000000000007B
:100D7800000000000000000000000000000000006B
:100D88000049443932B1A3C1F4000000000000005A
:100D9800000000000000000000000000000000004B
:100DA8000049443933B1A3C1F40000000000000039
:100DB800000000000000000000000000000000002B
:100DC8000049443934B1A3C1F40000000000000018
:100DD800000000000000000000000000000000000B
:100DE8000049443935B1A3C1F400000000000000F7
:100DF80000000000000000000000000000000000EB
:100E08000049443936B1A3C1F400000000000000D5
:100E180000000000000000000000000000000000CA
:100E28000049443937BBD8B7E7CEC2CAAAB6C8B456
:100E3800ABB8D0C6F70000000000000000000000BA
:100E48000049443938CBCDB7E7CEC2CAAAB6C8B430
:100E5800ABB8D0C6F700000000000000000000009A
:100E68000049443939BCD3CAAAB0E5D2ECB3A300CF
:100E7800000000000000000000000000000000006A
:100E8800004944313030C6C1C4BBD2D1CBF8B6A872
:100E9800000000000000000000000000000000004A
:100EA800004944313031D2BBCCECBDABCBF8B6A84D
:100EB800000000000000000000000000000000002A
:100EC800004944313032C8FDCCECBDABCBF8B6A8F4
:100ED800000000000000000000000000000000000A
:100EE800004944313033C6DFCCECBDABCBF8B6A8F3
:100EF80000000000000000000000000000000000EA
:100F0800004944313034CAAECEE5CCECBDABCBF8A9
:100F1800B6A800000000000000000000000000006B
:100F2800004944313035C8FDCAAECCECBDABCBF876
:100F3800B6A800000000000000000000000000004B
:100F4800004944313036B5E7D4B432CFE0D0F2B4FA
:100F5800ED0000000000000000000000000000009C
:100F6800004944313037B5E7D4B432C6B5C2CAB83F
:100F7800DF0000000000000000000000000000008A
:100F8800004944313038B5E7D4B432C6B5C2CAB521
:100F9800CD0000000000000000000000000000007C
:100FA800004944313039B5E7D4B43241CFE0B9FD16
:100FB800D1B900000000000000000000000000009F
:100FC800004944313130B5E7D4B43242CFE0B9FDFD
:100FD800D1B900000000000000000000000000007F
:100FE800004944313131B5E7D4B43243CFE0B9FDDB
:100FF800D1B900000000000000000000000000005F
:10100800004944313132B5E7D4B43241CFE0C7B7F3
:10101800D1B900000000000000000000000000003E
:10102800004944313133B5E7D4B43242CFE0C7B7D1
:10103800D1B900000000000000000000000000001E
:10104800004944313134B5E7D4B43243CFE0C7B7AF
:10105800D1B90000000000000000000000000000FE
:10106800004194420042943200004294340000420D
:101078009430000044943E00000000429436000082
:101088004494380000000002080000040B0000002F
:1010980000040F0000000042943C0000010A0061B7
:1010A800008E6900C1814001C0804101C0804100BB
:1010B800C1814001C0804100C1814000C18140011F
:1010C800C0804101C0804100C1814000C181400110
:1010D800C0804100C1814001C0804101C080410001
:1010E800C1814001C0804100C1814000C1814001EF
:1010F800C0804100C1814001C0804101C0804100E1
:10110800C1814000C1814001C0804101C0804100CF
:10111800C1814001C0804100C1814000C1814001BE
:10112800C0804101C0804100C1814000C1814001AF
:10113800C0804100C1814001C0804101C0804100A0
:10114800C1814000C1814001C0804101C08041008F
:10115800C1814001C0804100C1814000C18140017E
:10116800C0804100C1814001C0804101C080410070
:10117800C1814001C0804100C1814000C18140015E
:10118800C0804101C0804100C1814000C18140014F
:10119800C0804100C1814001C0804101C080410040
:1011A800C1814061008F6900C0C101C30302C2C68A
:1011B8000607C705C5C404CC0C0DCD0FCFCE0E0A4B
:1011C800CACB0BC90908C8D81819D91BDBDA1A1EEB
:1011D800DEDF1FDD1D1CDC14D4D515D71716D6D2BB
:1011E8001213D311D1D010F03031F133F3F232367B
:1011F800F6F737F53534F43CFCFD3DFF3F3EFEFA8B
:101208003A3BFB39F9F83828E8E929EB2B2AEAEECA
:101218002E2FEF2DEDEC2CE42425E527E7E62622FA
:10122800E2E323E12120E0A06061A163A3A262665A
:10123800A6A767A56564A46CACAD6DAF6F6EAEAACA
:101248006A6BAB69A9A86878B8B979BB7B7ABABE6A
:101258007E7FBF7DBDBC7CB47475B577B7B676723A
:10126800B2B373B17170B05090915193535292963A
:10127800565797559594549C5C5D9D5F9F9E5E5A0A
:101288009A9B5B99595898884849894B8B8A4A4E4A
:101298008E8F4F8D4D4C8C4484854587474686827A
:1012A800424383418180404191DD004190A8004440
:1012B800925E000000004190A3004490A40000004A
:1012C80000612690B75A010301C8010000A0200060
:1012D8005000FF5A010301C8010000A0220053007A
:1012E800FF5A010304C8010000A023006500FF5A4B
:1012F800010301C8010000A027006E00FF5A010386
:1013080001C801000AAA23006700FF5A010305C8A3
:1013180001000AAA24006900FF5A010301C801005C
:101328000AAA29003500FF5A010601C803AA80AAA3
:10133800200016000A5A010601C803AA82AA220040
:1013480035000A5A010302C803AB00AB20001A009B
:101358000B5A010302C803AB00AB22002E000B5A44
:10136800010302C803AB00AB25000B000B5A0103B5
:1013780001C803AB00AB27000F000B5A010301C8DB
:1013880001000BAB24002C000B5A010601C803AB6B
:1013980080AB20001A000B5A010601C803AB81ABD1
:1013A80021001B000B5A010601C803AB82AB2200C7
:1013B8002E000B5A010601C803AB83AB23002F0094
:1013C8000B5A010601C803AB85AB25000B000B5A6D
:1013D800010601C803AB86AB26000C000B5A0106B8
:1013E80001C803AB87AB27000F000B4E90A9000084
:1013F80000000000000000000000000041906A00AA
:101408006038906B5A0BAB20AB50AB805A0BAB21BA
:10141800AB51AB815A0BAB22AB52AB825A0BAB230D
:10142800AB53AB835A0BAB25AB55AB855A0BAB26ED
:10143800AB56AB865A0BAB27AB57AB8741906900CD
:101448005893B100000000000000000000000000F8
:101458000000000000000000000000589391000008
:101468000000000A2997000A2D08000CF13B000231
:10147800C2460007ED6541938DFF60649329000023
:101488000100020003000400050006000700080030
:1014980009000A010B000C000D000E020F001000DD
:1014A8001100120313001400150016001700180489
:1014B80019001A001B001C001D001E001F00200040
:1014C80021002200230024002500260027002800F0
:1014D80029002A002B002C002D002E002F003000A0
:1014E80031004893A9000101030203030542938FC9
:1014F80000004293270000429324000041932600F5
:10150800429322000000E709F608DFFA8046E7095F
:10151800F208DFFA803E88828C83E709F0A3DFFABD
:101528008032E309F608DFFA8078E309F208DFFA87
:10153800807088828C83E309F0A3DFFA8064898253
:101548008A83E0A3F608DFFA805889828A83E0A3B9
:10155800F208DFFA804C80D280FA80C680D4806995
:1015680080F28033801080A680EA809A80A880DA92
:1015780080E280CA803389828A83ECFAE493A3C824
:10158800C582C8CCC583CCF0A3C8C582C8CCC583E6
:10159800CCDFE9DEE7800D89828A83E493A3F6082D
:1015A800DFF9ECFAA9F0EDFB2289828A83ECFAE0F4
:1015B800A3C8C582C8CCC583CCF0A3C8C582C8CC93
:1015C800C583CCDFEADEE880DB89828A83E493A3E3
:1015D800F208DFF980CC88F0EF60010E4E60C38816
:1015E800F0ED2402B4040050B9F582EB2402B404EF
:1015F8000050AF232345822390155E73BB010689F3
:10160800828A83E0225002E722BBFE02E32289821B
:101618008A83E49322BB010CE58229F582E5833AAB
:10162800F583E0225006E92582F8E622BBFE06E9AA
:101638002582F8E222E58229F582E5833AF583E4FA
:101648009322BB010689828A83F0225002F722BBCB
:10165800FE01F322EF8DF0A4A8F0CF8CF0A428CEE1
:101668008DF0A42EFE22BC000BBE0029EF8DF08465
:10167800FFADF022E4CCF875F008EF2FFFEE33FE53
:10168800EC33FCEE9DEC984005FCEE9DFE0FD5F08A
:10169800E9E4CEFD22EDF8F5F0EE8420D21CFEAD93
:1016A800F075F008EF2FFFED33FD4007985006D591
:1016B800F0F222C398FD0FD5F0EA22C5F0F8A3E0B6
:1016C80028F0C5F0F8E582158270021583E038F03D
:1016D80022A3F8E0C5F025F0F0E582158270021526
:1016E80083E0C838F0E822BB010A89828A83E0F5E2
:1016F800F0A3E022500687F009E71922BBFE07E3B2
:10170800F5F009E3192289828A83E493F5F07401DC
:101718009322BB0110E58229F582E5833AF583E03F
:10172800F5F0A3E0225009E92582F886F008E622C0
:10173800BBFE0AE92582F8E2F5F008E222E5832AF1
:10174800F583E993F5F0A3E99322BB010A89828A1C
:1017580083F0E5F0A3F0225006F709A7F01922BBA1
:10176800FE06F3E5F009F31922EF2BFFEE3AFEED42
:1017780039FDEC38FC2275F008758200EF2FFFEE7A
:1017880033FECD33CDCC33CCC58233C5829BED9AA5
:10179800EC99E58298400CF582EE9BFEED9AFDEC03
:1017A80099FC0FD5F0D6E4CEFBE4CDFAE4CCF9A849
:1017B8008222B800C1B90059BA002DEC8BF084CF51
:1017C800CECDFCE5F0CBF97818EF2FFFEE33FEED28
:1017D80033FDEC33FCEB33FB10D703994004EB9952
:1017E800FB0FD8E5E4F9FA227818EF2FFFEE33FE65
:1017F800ED33FDEC33FCC933C910D7059BE99A409A
:1018080007EC9BFCE99AF90FD8E0E4C9FAE4CCFBB1
:101818002275F010EF2FFFEE33FEED33FDCC33CC05
:10182800C833C810D7079BEC9AE899400AED9BFD8E
:10183800EC9AFCE899F80FD5F0DAE4CDFBE4CCFAA1
:10184800E4C8F922EB9FF5F0EA9E42F0E99D42F0E8
:10185800EC6480C864809845F022EB9FF5F0EA9E1E
:1018680042F0E99D42F0E89C45F022E86010ECA2C5
:10187800E713FCED13FDEE13FEEF13FFD8F022E0A3
:10188800FCA3E0FDA3E0FEA3E0FF22E0F8A3E0F95B
:10189800A3E0FAA3E0FB22ECF0A3EDF0A3EEF0A3A3
:1018A800EFF022A8828583F0D083D0821218C2126A
:1018B80018C21218C21218C2E473E493A3C583C5F0
:1018C800F0C583C8C582C8F0A3C583C5F0C583C861
:1018D800C582C822A42582F582E5F03583F58322E6
:1018E800E0FBA3E0FAA3E0F922F8E0FBA3A3E0F908
:1018F80025F0F0E582158270021583E0FA38F022AF
:10190800EBF0A3EAF0A3E9F022D083D082F8E493C5
:101918007012740193700DA3A393F8740193F58268
:101928008883E4737402936860EFA3A3A380DFD075
:1019380083D082F8E4937012740193700DA3A3937B
:10194800F8740193F5828883E473740293B5F00602
:101958007403936860E9A3A3A3A380D8E3F5F0090F
:10196800E208B5F06BDFF58067E3F5F009E608B546
:10197800F05EDFF5805A87F009E608B5F052DFF629
:10198800804E87F009E208B5F046DFF6804288828B
:101998008C8387F009E0A3B5F036DFF680328882C1
:1019A8008C8387F009E493A3B5F025DFF5802188BF
:1019B800828C83E3F5F009E0A3B5F014DFF580101D
:1019C80088828C83E3F5F009E493A3B5F002DFF491
:1019D800021A93808780E9809080D4803E801580A9
:1019E8006E807E809D80B7808D80A38051807480BA
:1019F8003C021A9F89828A83ECFAE493F5F0A3C823
:101A0800C582C8CCC583CCE493A3C8C582C8CCC55D
:101A180083CCB5F076DFE3DEE1807089828A83E4E7
:101A280093F5F0A3E208B5F062DFF4805E89828A5C
:101A380083E0F5F0A3E608B5F051DFF5804D898223
:101A48008A83E0F5F0A3E208B5F040DFF5803C8931
:101A5800828A83E493F5F0A3E608B5F02EDFF480DC
:101A68002A8002805789828A83ECFAE493F5F0A3EE
:101A7800C8C582C8CCC583CCE0A3C8C582C8CCC5BC
:101A880083CCB5F006DFE4DEE280007FFFB5F0022C
:101A98000F2240027F012289828A83ECFAE0F5F066
:101AA800A3C8C582C8CCC583CCE0A3C8C582C8CCAE
:101AB800C583CCB5F0D5DFE5DEE380CF89828A83A4
:101AC800ECFAE0F5F0A3C8C582C8CCC583CCE49392
:101AD800A3C8C582C8CCC583CCB5F0AFDFE4DEE2CD
:101AE80080A988F0EF60010E4E60ABED2402B404CB
:101AF800005098F582EB2402B40400508E2323454D
:101B080082239019DB73EF4E6012EF60010EEDBB7C
:101B1800010B89828A83F0A3DFFCDEFA2289F05068
:101B280007F709DFFCA9F022BBFEFCF309DFFCA9DB
:101B3800F022F8BB010DE58229F582E5833AF583A9
:101B4800E8F0225006E92582C8F622BBFE05E92501
:101B580082C8F2229093CE1219089093D1ECF0A388
:101B6800EDF0E4A3F0A3F09093D1E0FEA3E0FFA38F
:101B7800E0FCA3E0C39FEC9E500C9093D3E475F077
:101B8800011216C380E19093D1E0FEA3E0C394054F
:101B9800EE94005003021ED5E4A3F0A3F09093CE78
:101BA8001218E89093D3E0FEA3E0F5828E83121614
:101BB8001D64016003021EAF9093CE1218E8909343
:101BC800D3E0A3E029F9EA3EFA90000112161D12AB
:101BD80019111BE7031D36061DF81000001EAF90F3
:101BE80093CE1218E89093D3E0FEA3E029F9EA3ED9
:101BF800FA90000212161DFF9093D7E4F0A3EFF0BD
:101C08009093D3E0A3E0FF9093D7E0FCA3E02FFFED
:101C1800EC3EFEEF2405FFE43EFE9093D1E0FCA3EA
:101C2800E0FDD3EF9DEE9C40119093D1E0FEA3E040
:101C3800FFA3EEF0A3EFF0021EAF9093CE1218E8C8
:101C48009093D3E0FEA3E029F9EA3EFA9093D7E017
:101C5800FEA3E02403FDE43EFC1232DF9093D5EEB0
:101C6800F0A3EFF09093CE1218E89093D3E0FEA380
:101C7800E029F9EA3EFA9093D7E0FEA3E029F9EAD1
:101C88003EFA90000312161DFD9093D5E0FEA3E0E6
:101C9800EE6D7001E46003021EAF9093CE1218E857
:101CA8009093D3E0FEA3E029F9EA3EFA9093D7E0B7
:101CB800FEA3E029F9EA3EFA90000412161DFF90EF
:101CC80093D5E0A3E06F7001E46003021EAF90902B
:101CD800B1E0FEA3E0FF9093CE1218E89093D3E012
:101CE800FCA3E029F9EA3CFAE92403F9E43AFA907A
:101CF80093D7E0FCA3E0FD9093FDECF0A3EDF01288
:101D080021437E007F0E7D007B017A9079A9121B0A
:101D18000E9093D7E0FEA3E02405FFE43E9093D312
:101D2800F0A3EFF0909069E04402F0021EAF9093A8
:101D3800D3E0FEA3E02408FFE43EFE9093D1E0FC4C
:101D4800A3E0FDD3EF9DEE9C40119093D1E0FEA35C
:101D5800E0FFA3EEF0A3EFF0021EAF9093CE1218AF
:101D6800E89093D3E0FEA3E029F9EA3EFA7D067CE9
:101D7800001232DF9093D5EEF0A3EFF09093CE12DD
:101D880018E89093D3E0FEA3E029F9EA3EFA900020
:101D98000612161DFD9093D5E0FEA3E0EE6D7001CE
:101DA800E46003021EAF9093CE1218E89093D3E03C
:101DB800FEA3E029F9EA3EFA90000712161DFF90EB
:101DC80093D5E0A3E06F7001E46003021EAF909327
:101DD800D375F0081216C37E007F0E7D007B017A52
:101DE8009079A9121B0E909069E04402F0021EAF90
:101DF8009093D3E0FEA3E02408FFE43EFE9093D145
:101E0800E0FCA3E0FDD3EF9DEE9C40119093D1E060
:101E1800FEA3E0FFA3EEF0A3EFF0021EAF9093CE77
:101E28001218E89093D3E0FEA3E029F9EA3EFA7D80
:101E3800067C001232DF9093D5EEF0A3EFF090937A
:101E4800CE1218E89093D3E0FEA3E029F9EA3EFA0F
:101E580090000612161DFD9093D5E0FEA3E0EE6DEE
:101E68007001E470429093CE1218E89093D3E0FE8C
:101E7800A3E029F9EA3EFA90000712161DFF909395
:101E8800D5E0A3E0B50720E49093D375F0081216C7
:101E9800C37E007F0E7D007B017A9079A9121B0E0C
:101EA800909069E04402F09093D3E475F001121623
:101EB800C39093D1E0FEA3E024FBFFEE34FFFEA322
:101EC800E0FCA3E0C39FEC9E5003021BA522909464
:101ED80014EEF0A3EFF0A31219087B007A00790042
:101EE800C003C002C0019094161218E8D082D083B3
:101EF800D0E06B7008E965827003EA6583700302BD
:101F08002142909419E0FEA3E04E70030221429012
:101F18009419E0A3E0FFEEC313FEEF13FF909414AF
:101F2800E0FCA3E02FFFEE3CFED3EF94FEEE94FF1F
:101F38004003022142C2AF909414E0A3E054019000
:101F4800941BF0909414E0FEA3E0FFEEC313FEEFA1
:101F580013FF909414EEF0A3EFF0909414E0FEA316
:101F6800E07810CEC313CE13D8F9F5F1909414E0AD
:101F7800FEA3E0EEF5F2909414E0A3E0F5F3E4F5A7
:101F8800F875F401D2FF30FCFDD2FD90941BE0649B
:101F9800017072909419E0FEA3E064014E700AC2C9
:101FA800FBC2FAD2F9C2F88008C2FBC2FAD2F9D24F
:101FB800F8D2FE20FEFD909419E0FEA3E064014EE5
:101FC800701A90941675F0011218F1E5FC12164A71
:101FD80090941974FFF5F01216C38029909416E4B2
:101FE80075F0011218F1E5FC12164A909416E47582
:101FF800F0011218F1E5FD12164A90941974FF7554
:10200800F0FE1216C3909419E0FEA3E04E7003028E
:10201800213D909419E0A3E0C39404EE940040039A
:102028000220E6909419E0A3E08EF0121937205AA6
:102038000001205000022046000300002062D2FB6D
:10204800D2FAD2F9C2F88012D2FBD2FAC2F9C2F897
:102058008008D2FBC2FAC2F9C2F8D2FE20FEFD9077
:102068009419E0FEA3E08EF012193720D300012066
:10207800B30002208300030000213D909416E4750C
:10208800F0011218F1E5FA12164A909416E475F068
:10209800011218F1E5FB12164A909416E475F00146
:1020A8001218F1E5FC12164A02213D909416E475C7
:1020B800F0011218F1E5FA12164A909416E475F038
:1020C800011218F1E5FB12164A806A909416E4751D
:1020D800F0011218F1E5FA12164A80598057D2FB1E
:1020E800D2FAD2F9D2F8D2FE20FEFD909416E47509
:1020F800F0011218F1E5FA12164A909416E475F0F8
:10210800011218F1E5FB12164A909416E475F001D5
:102118001218F1E5FC12164A909416E475F00112B3
:1021280018F1E5FD12164A90941974FF75F0FC1227
:1021380016C302200DE4F5F8D2AF229093F8EEF022
:10214800A3EFF0A31219087B007A007900C003C03E
:1021580002C0019093FA1218E8D082D083D0E06BC5
:102168007008E965827003EA658370030223AE9004
:1021780093FDE0FEA3E04E70030223AE9093FDE0D2
:10218800A3E0FFEEC313FEEF13FF9093F8E0FCA368
:10219800E02FFFEE3CFED3EF94FEEE94FF400302E7
:1021A80023AEC2AF9093F8E0A3E054019093FFF000
:1021B8009093F8E0FEA3E0FFEEC313FEEF13FF9049
:1021C80093F8EEF0A3EFF09093F8E0FEA3E0781018
:1021D800CEC313CE13D8F9F5F19093F8E0FEA3E03F
:1021E800EEF5F29093F8E0A3E0F5F3E4F5F875F472
:1021F80001D2FF30FCFDC2FD9093FFE064017072D4
:102208009093FDE0FEA3E064014E700AC2FBC2FA9F
:10221800D2F9C2F88008C2FBC2FAD2F9D2F8909378
:10222800FDE0FEA3E064014E701A9093FA75F00188
:102238001218F1121604F5FC9093FD74FFF5F012D4
:1022480016C380299093FAE475F0011218F112165A
:1022580004F5FC9093FAE475F0011218F1121604D3
:10226800F5FD9093FD74FF75F0FE1216C3D2FE20A3
:10227800FEFD9093FDE0FEA3E04E70030223A990BB
:1022880093FDE0A3E0C39404EE94004003022352BC
:102298009093FDE0A3E08EF012193722C7000122C7
:1022A800BD000222B30003000022CFD2FBD2FAD233
:1022B800F9C2F88012D2FBD2FAC2F9C2F88008D269
:1022C800FBC2FAC2F9C2F89093FDE0FEA3E08EF0DB
:1022D800121937233A0001231A000222EB000300E7
:1022E8000023499093FAE475F0011218F1121604CC
:1022F800F5FA9093FAE475F0011218F1121604F544
:10230800FB9093FAE475F0011218F1121604F5FC2B
:10231800802F9093FAE475F0011218F1121604F563
:10232800FA9093FAE475F0011218F1121604F5FB0D
:10233800800F9093FAE475F0011218F1121604F563
:10234800FAD2FE30FE5B80FB8057D2FBD2FAD2F97C
:10235800D2F89093FAE475F0011218F1121604F508
:10236800FA9093FAE475F0011218F1121604F5FBCD
:102378009093FAE475F0011218F1121604F5FC9026
:1023880093FAE475F0011218F1121604F5FDD2FE65
:1023980020FEFD9093FD74FF75F0FC1216C3022217
:1023A8007AE4F5F8D2AF229093CE1219089093CE22
:1023B8001218E81216049093D1F09093D1E0C394C8
:1023C800157480948040030225E6E075F00E909025
:1023D800B71218DCE0645A60030225DD9093D1E05F
:1023E80075F00E9090BA1218DCE070030225DD90AB
:1023F80093D1E075F00E9090BC1218DCE0700302E7
:1024080025E69093D1E075F00E9090BC1218DCE0B0
:10241800640170299093D1E075F00E9090BD121868
:10242800DCE0FEA3E0FF90942EE0FCA3E06F7002D6
:10243800EC6E60030225DD0225E60225DD9093D1CE
:10244800E075F00E9090BC1218DCE06402600302A4
:1024580025029093D1E075F00E9090BD1218DCE043
:10246800FEA3E0FF7B017A9379D2909419E4F0A35C
:102478007402F0121ED69093D2E0A3E0645A60036F
:102488000225DD9093D1E0C3941474809480503C6D
:10249800E075F00E9090CA1218DCE06402702D907E
:1024A80093D1E075F00E9090CB1218DCE0FEA3E01B
:1024B800FF9093D1E075F00E9090BD1218DCE0FC0F
:1024C800A3E06F7002EC6E70030225E6E49093D2ED
:1024D800F0A3F09093D1E075F00E9090BD1218DC47
:1024E800E0FEA3E0FF7B017A9379D29093FDE4F0BC
:1024F800A37402F01221430225E69093D1E075F00F
:102508000E9090BC1218DCE0640360030225DD9095
:1025180093D1E075F00E9090C31218DCE0FEA3E0B2
:10252800FF90942EE0FCA3E0FDEF6D7002EE6C606E
:10253800030225DD9093D1E075F00E9090BD12183E
:10254800DCE0FEA3E0FF7B017A9379D2909419E452
:10255800F0A37402F0121ED69093D2E0A3E0645A5E
:1025680070739093D1E0C39414748094805039E0D0
:1025780075F00E9090CA1218DCE06403702A9093EC
:10258800D1E075F00E9090CB1218DCE0FEA3E0FFCE
:102598009093D1E075F00E9090BD1218DCE0FCA38A
:1025A800E06F7002EC6E6036E49093D2F0A3F09086
:1025B80093D1E075F00E9090BD1218DCE0FEA3E018
:1025C800FF7B017A9379D29093FDE4F0A37402F033
:1025D80012214380099093D1E004F00223C2909322
:1025E800D1E0FF9093CE1218E8EF12164A227B0032
:1025F8007A0079009093C91219089090A8E06401B4
:10260800600302268D9090A3E0FF9091DDE0D39FB8
:102618004011E09090A3F090925E1218AB00000079
:102628000080629090A3E0FF9091DDE06F7056FF0C
:10263800FEFDFC90925E121893D3121862403890F7
:10264800925E121893C3E50E9BFFE50D9AFEE50C0A
:1026580099FDE50B98FCE47B14FAF9F8C3121862AB
:1026680050237B017A9179DE9091DDE0FD7C0012A8
:102678001B5C123991800EAF0EAE0DAD0CAC0B90F9
:10268800925E12189F909069E030E042E020E129C4
:102698009090A4121893C3E50E9BFBE50D9AFAE5FA
:1026A8000C99F9E50B98F89090ADE0FFE4FCFDFE7D
:1026B800C312186250030227DC909069E030E106EB
:1026C800A3E004F0802F909069E054FEF0229090EF
:1026D800A4121893C3E50E9BFFE50D9AFEE50C992D
:1026E800FDE50B98FCE47BF47A01F9F8D312186243
:1026F80040030227DC90906AE07003122C749090DB
:10270800A41218AB00000000E4F50EF50DF50CF569
:102718000B909069E054FDF0E054FEF01239917B83
:10272800017A90796A1223AF90906AE0C394157485
:1027380080948040030227D7E075F00EA424B7F9EF
:10274800749035F0FA7B0178A97C907D017E007F3A
:102758000E1215DE1239919090ABE0640370127B73
:10276800017A9079A9122EDF909069E04401F080F7
:10277800549090ABE0640670349090B1E0FEA3E012
:10278800FF7B017A9379CC909419E4F0A37402F05A
:10279800121ED67B017A9079A99093CCE0FCA3E035
:1027A800FD122FFA909069E04401F080189090ABE8
:1027B800E0641070107B017A9079A91229959090A5
:1027C80069E04401F0E4F50EF50DF50CF50B22E493
:1027D80090906AF022E49093C9F0A3F0E51320E00A
:1027E800030229947B017A9379C9909419E4F0A3A0
:1027F8007402F07F147E50121ED69093C9E0FEA397
:10280800E04E70030229949093C9E0A3E08EF01281
:1028180019372953A0002953A0012953A002292AB6
:10282800A400292FA4012934A4A02934A4A129345F
:10283800A4A22934A4A32934A4A42934A4A52934FE
:10284800A4A62934A4A72934A4A82934A4A92934DE
:10285800A4AA2934A4AB2934A4AC2934A4AD2934BE
:10286800A4AE2934A4AF2934A4B02934A4B129349E
:10287800A4B22934A4B32934A4B42934A4B529347E
:10288800A4B62934A4B72934A4B82934A4B929345E
:10289800A4BA2934A4BB2934A4BC2934A4BD29343E
:1028A800A4BE2934A4BF2934A4C02934A4C129341E
:1028B800A4C22934A4C32934A4C42934A4C52934FE
:1028C800A4C62934A4C72934A4C82934A4C92934DE
:1028D800A4CA2934A4CB2934A4CC2934A4CD2934BE
:1028E800A4CE2934A4CF2934A4D02934A4D1294191
:1028F800A4F02941A4F12941A4F22941A4F3294EC5
:10290800A6002978A6012960AA01296DAA21296DA6
:10291800AA22296DAA23296DAA24296DAA250000B7
:1029280029781233D2804912001680449093C9E066
:10293800FEA3E0FF12384C80379093C9E0FEA3E075
:10294800FF123803802A12002E80259093C9E0FEDA
:10295800A3E0FF12344680189093C9E0FEA3E0FF7D
:10296800123585800B9093C9E0FEA3E0FF12351D58
:10297800E49093C9F0A3F07B017A9379C99093FD11
:10298800F0A37402F07F147E50122143229093CE5C
:10299800121908E49093D3F09093CE1218E890009F
:1029A8000112161DFF9093D3E0FE04F074D42EF5A7
:1029B80082E43493F583EFF09093D3E0FF04F0744E
:1029C800D42FF582E43493F5837410F09093CE12EB
:1029D80018E890000A12171AE5F0FF9093D3E0FE6A
:1029E80004F074D42EF582E43493F583EFF09093D9
:1029F800CE1218E890000A12171AFF9093D3E0FE3F
:102A080004F074D42EF582E43493F583EFF09093B8
:102A1800CE1218E890000312161DFFE49093D3E03D
:102A2800FE04F074D42EF582E43493F583E4F09038
:102A380093CE1218E890000312161DFF9093D3E06E
:102A4800FE04F074D42EF582E43493F583EFF0900D
:102A580093CE1218E890000312161D25E0FF9093FC
:102A6800D3E0FE04F074D42EF582E43493F583EFBA
:102A7800F09090B1E0FEA3E0FFC006C0079093D3AA
:102A8800E024D4F9E43493FA7B01C003C002C00106
:102A98009093CE1218E890000312161D75F002A448
:102AA800FF909419E5F0F0A3EFF0D001D002D00325
:102AB800D007D006121ED69093CE1218E8900003C5
:102AC80012161D25E0FF9093D3E02FF07B017A9337
:102AD80079D4E0FD7C001232DF9093D1EEF0A3EFC1
:102AE800F09093D1E0FEA3E0EEFFA3E0FE04F074C3
:102AF800D42EF582E43493F583EFF09093D1E0A3DC
:102B0800E0FFA3E0FE04F074D42EF582E43493F5DC
:102B180083EFF07B017A9379D49093D3E0FD12365A
:102B2800AA22C0E0C0F0C083C082C0D075D000C067
:102B380000C001C002C003C004C005C006C007C26F
:102B4800AF758CBC758ACD909432E475F00112167D
:102B5800C3909432E0FEA3E0D394E8EE94034018C7
:102B6800909432E4F0A3F0A375F0011216C3909488
:102B780030E475F0011216C343C90190943E12184F
:102B880087E47B01FAF9F812177190943E12189FA6
:102B9800909436E475F0011216C390943812188791
:102BA800E4F812177190943812189F90943CE0FE44
:102BB800A3E0FFE4FCFD7BDC7AFFF8D312184C405D
:102BC8000A90943CE475F0011216C30509E50970F2
:102BD800020508AF12AE11AD10AC0FE47B01FAF993
:102BE800F81217718F128E118D108C0FAF0EAE0D5B
:102BF800AD0CAC0BE41217718F0E8E0D8D0C8C0B77
:102C0800E47B64AF12AE11AD10AC0F1217BAAC0072
:102C1800AD01AE02AF03E4FBFAF9F8C31218627013
:102C280003430A02E47BF47A01F9F8AF12AE11AD5E
:102C380010AC0F1217BAAC00AD01AE02AF03E4FB43
:102C4800FAF9F8C31218627003430A04430A01D25E
:102C5800AFD007D006D005D004D003D002D001D021
:102C680000D0D0D082D083D0F0D0E0327BFF7A3A47
:102C7800796978CE7C937D017E007F281215DEE489
:102C88009093F6F0A3F09093F6E0FEA3E0C39407C8
:102C9800EE94004003022DB89093F6E0A3E0780389
:102CA800C333CE33CED8F9246CF58274903EF583C5
:102CB800E0FF90942EE0FCA3E0FDEF6D7001EC6066
:102CC80003022DAB9093F6E0FEA3E07803C333CE66
:102CD80033CED8F9246DF58274903EF583E0FEA3D7
:102CE800E0FF7B017A9379CE909419E4F0A3740203
:102CF800F0121ED69093F6E0FEA3E07803C333CE1D
:102D080033CED8F9246FF58274903EF583E0FEA3A4
:102D1800E0FF7B017A9379D0909419E4F0A37402D0
:102D2800F0121ED69093D0E0FEA3E0FF9093CEE081
:102D3800FCA3E06F7002EC6E60699093F6E0FEA36E
:102D4800E07803C333CE33CED8F9246FF58274907C
:102D58003EF583E0FEA3E0FF7B017A9379CE909362
:102D6800FDE4F0A37402F01221439093D2E4F0A39F
:102D7800745AF09093F6E0FEA3E07803C333CE33A1
:102D8800CED8F92471F58274903EF583E0FEA3E075
:102D9800FF7B017A9379D29093FDE4F0A37402F05B
:102DA8001221439093F6E475F0011216C3022C8E9B
:102DB80022909422E475F0011216C3FEC3E5F09444
:102DC80004EE94005003022EDEE4909422F0A3F067
:102DD8007B017A9379CB909419F0A37402F07F2247
:102DE8007EA0121ED69093CBE0FEA3E04E70089012
:102DF8009420F0A3740EF0E49093CDF09093CDE07E
:102E0800C3940E748094805070E0FF909420E0FC8E
:102E1800A3E0FDEF2DFFE43CFEEF2401FFE43EFEBE
:102E28007C007D0E12166E7E007401A805088005D0
:102E3800C333CE33CED8F9FF9093CBE0FCA3E0FDAB
:102E4800EE5CFEEF5D4E6029A3E0FF909420E0FC6D
:102E5800A3E0FDEF2DFFE43CFEEF2401FFE43EFE7E
:102E68007C007D0E12166E909420ECF0A3EDF0809D
:102E7800089093CDE004F080837B017A94792090C8
:102E880093FDE4F0A37402F07FB07EA01221437B8F
:102E9800017A9379CB909419E4F0A37402F07F201F
:102EA8007EA0121ED69093CBE0A3E030E3067E000E
:102EB8007F0180047E007F009093CBEEF0A3EFF0BB
:102EC8007B017A9379CB9093FDE4F0A37402F07FB1
:102ED800107EA0122143229093CE121908E49093F9
:102EE800D3F09093CE1218E890000112161DFF90AF
:102EF80093D3E0FE04F074D42EF582E43493F58382
:102F0800EFF09093D3E0FF04F074D42FF582E4340B
:102F180093F5837403F09093CE1218E890000A1288
:102F2800171AE5F0FF9093D3E0FE04F074D42EF561
:102F380082E43493F583EFF09093CE1218E8900072
:102F48000A12171AFF9093D3E0FE04F074D42EF5FA
:102F580082E43493F583EFF09093CE1218E8900052
:102F68000312161DFFE49093D3E0FE04F074D42EF0
:102F7800F582E43493F583E4F09093CE1218E89048
:102F8800000312161DFF9093D3E0FE04F074D42EB4
:102F9800F582E43493F583EFF07B017A9379D4904A
:102FA80093D3E0FD7C001232DF9093D1EEF0A3EFD3
:102FB800F09093D1E0FEA3E0EEFFA3E0FE04F074EE
:102FC800D42EF582E43493F583EFF09093D1E0A307
:102FD800E0FFA3E0FE04F074D42EF582E43493F508
:102FE80083EFF07B017A9379D49093D3E0FD123686
:102FF800AA229093CE1219089093D1ECF0A3EDF089
:10300800E49093D5F09093CE1218E8900001121630
:103018001DFF9093D5E0FE04F074D62EF582E434BB
:1030280093F583EFF09093D5E0FF04F074D62FF575
:1030380082E43493F5837406F09093CE1218E890E6
:10304800000A12171AE5F0FF9093D5E0FE04F07419
:10305800D62EF582E43493F583EFF09093CE1218D0
:10306800E890000A12171AFF9093D5E0FE04F07456
:10307800D62EF582E43493F583EFF09093D1E0FEF9
:10308800A3E0EEFF9093D5E0FE04F074D62EF5820F
:10309800E43493F583EFF09093D1E0A3E0FF9093AD
:1030A800D5E0FE04F074D62EF582E43493F583EF70
:1030B800F07B017A9379D69093D5E0FD7C001232AB
:1030C800DF9093D3EEF0A3EFF09093D3E0FEA3E06C
:1030D800EEFFA3E0FE04F074D62EF582E43493F5F7
:1030E80083EFF09093D3E0A3E0FFA3E0FE04F07435
:1030F800D62EF582E43493F583EFF07B017A937949
:10310800D69093D5E0FD1236AA22E51330E0167B5F
:10311800017A94792E909419E4F0A37402F07F1444
:103128007E00121ED6E51320E2030231B890942ED9
:10313800E0FEA3E04E7003122DB97B017A9379C9A2
:10314800909419E4F0A37402F07F167E00121ED644
:103158009093C9E0FEA3E04E6024E49093C9F0A3E5
:10316800F07B017A9379C99093FDF0A37402F07F04
:10317800167E00122143E490941EF0A3F02290944E
:103188001EE0FEA3E0C39458EE9402500B90941EE8
:10319800E475F0011216C32290941EE0FEA3E0B479
:1031A800580EEEB4020A90941EE475F0011216C38C
:1031B80022759401759502758E0075930075C87017
:1031C80075C96075F800787FE4F6D8FD758114023A
:1031D80032150238DBE493A3F8E493A34003F680A6
:1031E80001F208DFF48029E493A3F85407240CC8FB
:1031F800C333C4540F4420C8834004F456800146A6
:10320800F6DFE4800B0102040810204080900100E2
:10321800E47E019360BCA3FF543F30E509541FFED0
:10322800E493A360010ECF54C025E060A840B8E441
:1032380093A3FAE493A3F8E493A3C8C582C8CAC5C4
:1032480083CAF0A3C8C582C8CAC583CADFE9DEE756
:1032580080BE9093E0EFF0A3ECF0A3EDF0E4F5F17D
:10326800F5F275F30475F40175F88F30FCFD909351
:10327800E0E0F5FA9093E312188778101218738F2C
:10328800FB9093E312188778081218738FFC9093B9
:10329800E3121887EF54FEFFE48FFDD2FE20FEFDF7
:1032A8009093E1E0FEA3E0EEF5FA9093E1E0A3E06D
:1032B80054FEF5FB9093E7E0FEA3E0EEF5FC909357
:1032C800E7E0A3E054FEF5FDD2FE20FEFDE4F5F8AC
:1032D8007F04FE1237042290941412190890941750
:1032E800ECF0A3EDF0A374FFF0A3F090941774FF33
:1032F800F5F01216D945F0604D909414E475F0017C
:103308001218F1121604FF909419E06FFF90941BA5
:10331800E4F0A3EFF090941BE0FEA3E02469F582AB
:10332800748E3EF583E0FF90941AE06F909419F044
:1033380090941BE0A3E02469F582748F3EF583E046
:1033480090941AF080A5909419E0FEA3E0FDEEEDAC
:10335800FF229093CFEEF0A3EFF09093CFE0FEA37F
:10336800E04E60659093CFE0A3E064014E700412D4
:10337800375D229093CFE0FEA3E064024E604A904E
:1033880093CFE0A3E064034E703FA3F09093D1E0A5
:10339800C3940674809480502DE025E025E02491A4
:1033A800F582E43493F5831218879093D1E025E0F1
:1033B80025E024B1F582E43493F58312189F9093A5
:1033C800D1E004F080C612395E227BFF7A3A79A3F5
:1033D80078CB7C937D017E007F041215DE7B017A19
:1033E8009379CB909419E4F0A37404F07F207EA421
:1033F800121ED6909326E0FF7B017A9379CB123781
:10340800B5EF600D12391F909326E090938DF080F0
:10341800077F057E001238947E007F047D007B01C3
:103428007A9379CB121B0E7B017A9379CB9093FD1B
:10343800E4F0A37404F07F207EA412214322909329
:10344800CBEEF0A3EFF09093CBE0FEA3E08EF0126A
:103458001937346AA0003473A0013490A002000028
:1034680034AB909322E4F0A304F022909322E0FE80
:10347800A3E064014E7009909322F0A37403F02234
:10348800E4909322F0A3F022909322E0FEA3E0645C
:10349800034E70077FAA7EA412384CE4909322F062
:1034A800A3F022E4909322F0A3F0229093CFEEF0C1
:1034B800A3EFF0A3E4F0A3745AF09093CFE0FEA337
:1034C800E0640E4E70219093CFE0A3E0FEE4240068
:1034D800FFEE34A0FE7B017A9379D19093FDE4F05E
:1034E800A37402F01221439093CFE0FEA3E0641886
:1034F8004E70219093CFE0A3E0FEE42400FFEE3469
:10350800A0FE7B017A9379D19093FDE4F0A3740235
:10351800F0122143229093CBEEF0A3EFF09093CBDF
:10352800E0A3E0FFA3E4F0A3EFF09093CBE0FEA3C9
:10353800E074209093CFEEF0A37420F09093CFE046
:10354800FEA3E0FF7B017A9379CD9093FDE4F0A38D
:103558007402F01221439093CDE4F0A3745AF0A3BF
:10356800E0FEA3E02460FFE43EFE7B017A9379CD80
:103578009093FDE4F0A37402F0122143229093CBC0
:10358800EEF0A3EFF09093CBE0A3E0FFA3E4F0A369
:10359800EFF09093CBE0FEA3E074229093CFEEF08F
:1035A800A37422F09093CFE0FEA3E0FF7B017A930F
:1035B80079CD9093FDE4F0A37402F0122143909327
:1035C800CDE4F0A3745AF0A3E0FEA3E02460FFE486
:1035D8003EFE7B017A9379CD9093FDE4F0A37402CB
:1035E800F012214322C0E0C083C082C0D075D00051
:1035F800C006C00790941DE4F0C2AF309830E5993A
:10360800F09091DDE0C3948074809480501E909473
:103618001DE0FF9091DDE0FE04F074DE2EF582E4FB
:103628003491F583EFF09090A87401F0C298309926
:1036380007C299909442E4F0D2AFD007D006D0D018
:10364800D082D083D0E0329093CFEEF0A3EFF09009
:1036580093CFE0FEA3E0D394D1EE94A450199093B5
:10366800CFE0A3E025E0FFEE33FE74EA2FF5827485
:10367800493EF583E0FF229093CFE0FEA3E0D39488
:10368800F3EE94A450199093CFE0A3E025E0FFEE69
:1036980033FE74CA2FF58274493EF583E0FF227F1A
:1036A8000522909414121908909417EDF07B007A73
:1036B800007900C003C002C0019094141218E8D029
:1036C80082D083D0E06B7008E965827003EA658375
:1036D8006029909417E06023909417E0FF14F0EFAE
:1036E80060199094141218E8121604FF123A0E90FA
:1036F8009415E475F0011216C380DD229093E9EE6B
:10370800F0A3EFF0E4F5F19093E9E0FEA3E0EEF525
:10371800F29093E9E0A3E0F5F3E4F5F4E49093E99B
:10372800F0A3F09093E9E0FEA3E0C394E8EE9403DD
:10373800500F85FCFB9093E9E475F0011216C380E5
:10374800E275F8AF30FCFDD2FE20FEFDE4F5F8AFDF
:10375800FAEF70C8227E007F087D007B017A92799B
:10376800A9121B0E7B017A9279A99093FDE4F0A32C
:103778007408F07F007E301221439092ABE0FEA3E4
:10378800E07803C333CE33CED8F92400FFEE3420DB
:10379800FEE4FCFD9093E312189F9093E7E4F0A3F6
:1037A8007404F07D007C307FA512325A229093CFAA
:1037B800EFF0A31219089093CFE070037F012290D5
:1037C80093CFE075F004A424B1F9749335F0FA7B33
:1037D80001C003C002C001A31218E8A801AC02ADE1
:1037E80003D001D002D0037E007F04121AEAEF331F
:1037F80095E04F70037F01227F00229093CBEEF07B
:10380800A3EFF09093CBE0FEA3E02410FFEE345B2F
:10381800909324F0A3EFF09093CBE0A3E0FF12364F
:103828004F909326EFF090942EE0FEA3E0FF909344
:1038380027EEF0A3EFF090938E7401F07F047E00E2
:10384800123894229093CDEEF0A3EFF09093CDE050
:10385800FEA3E02460FFEE345B90938FF0A3EFF0BB
:1038680090942EE0FEA3E0FF909327EEF0A3EFF0F4
:103878009093CDE0FEA3E0FF12364F909326EFF031
:10388800E490938EF07F04FE123894229093E0EE39
:10389800F0A3EFF07BFF7A3A799F78E27C937D0181
:1038A8007E007F041215DE9093E0E0FEA3E0EE9028
:1038B80093E4F09093E0A3E09093E5F07B017A9392
:1038C80079E29093FDE4F0A37404F07F847E001203
:1038D800214322123A25123A4DE50A30E01C4313DF
:1038E80001E50A30E103431302E50A30E20343131A
:1038F80004530AFE530AFD530AFB43C9011225F675
:103908001231121227DDE51330E0CE5313FE5313A4
:10391800FD5313FB80C32290938EE01219113930A6
:10392800003947010000395D90938FE0FEA3E0FF66
:1039380012389490938FE0FEA3E0FF1234B32290E4
:103948009324E0FEA3E0FF12335A909327E0FEA3EE
:10395800E0FF123894227B017A9379B19093FDE4C9
:10396800F0A37414F07F007E301221439093E31289
:1039780018AB000030009093E7E4F0A3740AF07DE0
:10398800007C307FA512325A22E49091DDF09090AD
:10399800A8F0FE7F80FD7B017A9179DE121B0EE490
:1039A8009090A3F090925E1218AB00000000227570
:1039B800F901E4F5A8F5B8F59AF5A9F5B9F580F592
:1039C80090F5A0F5B075B750F5BCF5BDF5BE22432E
:1039D800B71043C940E4909442F075D88075985068
:1039E80053877F75BA0375AA58D29CD2AC2275F951
:1039F8000175B70375BC03E4F5BD75BE0CF580F51C
:103A080090F5A0F5B022909418EFF0909442E064FD
:103A18000160F87401F0909418E0F59922C2AF1291
:103A280000261239F6123A62123A5B43C902D2AF43
:103A38002275C870E4F5CDF5CC75CBFF75CAEF4398
:103A4800A820D2C8221239919090A41218AB000075
:103A58000000221200E8123A39221239D722C2C6CF
:103A6800320000000000000000000000000000001C
:103A7800000000000000000000000000000000003E
:103A8800000000000000000000000000000000002E
:0F3A9800000000000000005A01000000000000C4
:00000001FF
